:100000000C9462000C948A000C948A000C948A0070
:100010000C948A000C948A000C948A000C948A0038
:100020000C948A000C948A000C948A000C942B0681
:100030000C948A000C948A000C948A000C948A0018
:100040000C9408040C948A000C9466020C94F50835
:100050000C948A000C948A000C948A000C948A00F8
:100060000C94EC060C948A00000000002400270089
:100070002A0000000000250028002B0000000000DE
:1000800023002600290004040404040404040202DA
:100090000202020203030303030301020408102007
:1000A0004080010204081020010204081020000012
:1000B0000008000201000003040700000000000027
:1000C00000001B0911241FBECFEFD8E0DEBFCDBF5B
:1000D00012E0A0E0B1E0E4EBFFE102C005900D9278
:1000E000A435B107D9F723E0A4E5B2E001C01D9221
:1000F000A03FB207E1F710E0C2E6D0E004C02197CC
:10010000FE010E94CD0FC136D107C9F70E94E30955
:100110000C94D80F0C940000FC01538D448D252FB6
:1001200030E0842F90E0821B930B541710F0CF9691
:10013000089501970895FC01918D828D981761F0C3
:10014000828DDF01A80FB11D5D968C91928D9F5F0E
:100150009F73928F90E008958FEF9FEF0895FC01B9
:10016000918D828D981731F0828DE80FF11D858D6C
:1001700090E008958FEF9FEF0895FC01918D228DFF
:10018000892F90E0805C9F4F821B91098F73992784
:10019000089580E090E0892B29F00E9445088111A4
:1001A0000C94000008953FB7F8948091A3029091B9
:1001B000A402A091A502B091A60226B5A89B05C0F5
:1001C0002F3F19F00196A11DB11D3FBFBA2FA92FD6
:1001D000982F8827820F911DA11DB11DBC01CD0153
:1001E00042E0660F771F881F991F4A95D1F708953F
:1001F00021E001C0220F6A95EAF7DC011C962C93DE
:100200001C971A965C934E931997ED91FC91048478
:10021000F585E02D60E00994DC01ED91FC91068408
:10022000F785E02D41E0099581E090E0089508957B
:10023000089585ED8093BC008091BC0084FDFCCFC7
:100240001092CD02089540917602262F30E0240FBF
:10025000311D21323105DCF42091CD022430C9F466
:10026000FC0180E090E0861758F4309176022191ED
:10027000DC01AC5ABD4FA30FB11D2C930196F3CFF7
:1002800080917602680F6093760280E0089581E0A5
:10029000089582E00895089581E090E030919D02F4
:1002A00020919C02321710F480E090E091958195A6
:1002B0009109089580919D0290919C02891730F4D4
:1002C0008F5F80939D0280E090E008958FEF9FEF15
:1002D000089580919C0290E020919D02821B9109DB
:1002E0000895CF92DF92EF92FF920F931F93CF93D7
:1002F000DF937C01262F972F8A018091CE028823DD
:1003000091F0C62FD72F6E01C40ED51ECC15DD057A
:1003100071F06991D701ED91FC910190F081E02D90
:10032000C7010995F3CF642F822F0E942301C801D2
:10033000DF91CF911F910F91FF90EF90DF90CF90C1
:100340000895CF93DF931F92CDB7DEB769832091D5
:10035000CE022223D1F02091F102203240F021E0A0
:1003600030E0FC013383228380E090E015C080916F
:10037000CF02E82FF0E0E053FD4F998190838F5F2B
:100380008093CF028093F10205C061E0CE01019617
:100390000E94230181E090E00F90DF91CF910895BA
:1003A000089580E090E008950E94D30FFC0123811E
:1003B0002223B9F09181909569236083828191E035
:1003C0009093CE028093F0021092CF021092F1022D
:1003D0008FE893E00E94A1010E949808282F30E046
:1003E00002C020E030E081E090E0232B11F080E0BB
:1003F00090E00895EF92FF920F931F93CF938C019B
:10040000FC01759684E0C0E060FF02C09081C92BBA
:100410006695815031968111F7CF413011F4F80182
:100420004489F8018585C82BC42B7801FEE0EF0EC6
:10043000F11CF80162896C2BC7010E94D601F801FA
:10044000628960956C23C701CF911F910F91FF9036
:10045000EF900C94D6010F931F93CF93DF93062F49
:100460000F70423019F440E0602F10C0142F262F77
:10047000EC0130E0B90184E0759567958A95E1F764
:10048000CE010E94FA01412F602FCE01DF91CF9162
:100490001F910F910C94FA01FC0184858823A9F027
:1004A000218532852115310519F4611106C007C077
:1004B0002130310521F4611102C0858701C0158604
:1004C0006585CF010E960C94D60108951F920F9268
:1004D0000FB60F9211242F938F939F93EF93FF9357
:1004E000E0910203F09103038081E0910803F09111
:1004F000090382FD12C0908180910B038F5F8F737F
:1005000020910C03821751F0E0910B03F0E0EE50C4
:10051000FD4F958F80930B0301C08081FF91EF9178
:100520009F918F912F910F900FBE0F901F90189554
:10053000FC01848DDF01A80FB11DA35ABF4F2C9180
:10054000848D90E001968F739927848FA689B7894F
:100550002C93A089B1898C9180648C93938D848D28
:10056000981306C00288F389E02D80818F7D8083F7
:100570000895EF92FF920F931F93CF93DF93EC01B7
:1005800081E0888F9B8D8C8D981305C0E889F9894F
:10059000808185FD24C0F62E0B8D10E00F5F1F4F6C
:1005A0000F731127E02E8C8DE8120CC00FB607FCDC
:1005B000FACFE889F989808185FFF5CFCE010E94C5
:1005C0009802F1CF8B8DFE01E80FF11DE35AFF4F2A
:1005D000F0820B8FEA89FB898081806207C0EE89F7
:1005E000FF896083E889F98980818064808381E064
:1005F00090E0DF91CF911F910F91FF90EF900895C0
:10060000CF93DF93EC01888D8823C9F0EA89FB89B9
:10061000808185FD05C0A889B9898C9186FD0FC0B0
:100620000FB607FCF5CF808185FFF2CFA889B98985
:100630008C9185FFEDCFCE010E949802E7CFDF912C
:10064000CF910895833081F028F4813099F0823081
:10065000A1F008958730A9F08830B9F08430D1F442
:10066000809180008F7D03C0809180008F77809380
:100670008000089584B58F7702C084B58F7D84BDD6
:1006800008958091B0008F7703C08091B0008F7D76
:100690008093B00008951F93CF93DF93282F30E00D
:1006A000F901E255FF4F8491F901E656FF4FD491CD
:1006B000F901EA57FF4FC491CC23C9F0162F8111DD
:1006C0000E942203EC2FF0E0EE0FFF1FEE58FF4FC9
:1006D000A591B4918FB7F894111105C09C91ED2F9D
:1006E000E095E92302C0EC91ED2BEC938FBFDF91F5
:1006F000CF911F910895CF93DF9390E0FC01E656D0
:10070000FF4F2491FC01EA57FF4F8491882361F148
:1007100090E0880F991FFC01E859FF4FC591D491D3
:10072000FC01EE58FF4FA591B491611109C09FB72C
:10073000F8948881209582238883EC912E230BC026
:10074000623061F49FB7F8943881822F80958323BB
:100750008883EC912E2B2C939FBF06C08FB7F89403
:10076000E8812E2B28838FBFDF91CF9108958E30A3
:1007700008F08E508770806480937C0080917A00AE
:10078000806480937A0080917A0086FDFCCF80910E
:1007900078002091790090E0922B08958F929F929B
:1007A000AF92BF92CF92DF92EF92FF926B017C01EA
:1007B0000E94D3004B015C01C114D104E104F10497
:1007C000F1F00E94D300DC01CB0188199909AA0934
:1007D000BB09883E9340A105B10570F321E0C21A20
:1007E000D108E108F10888EE880E83E0981EA11C6C
:1007F000B11CC114D104E104F10419F7DDCFFF905D
:10080000EF90DF90CF90BF90AF909F908F90089522
:100810001F920F920FB60F9211242F933F938F9335
:100820009F93AF93BF9380919F029091A002A0915C
:10083000A102B091A20230919E0223E0230F2D3736
:1008400020F40196A11DB11D05C026E8230F0296D4
:10085000A11DB11D20939E0280939F029093A00240
:10086000A093A102B093A2028091A3029091A4024E
:10087000A091A502B091A6020196A11DB11D809381
:10088000A3029093A402A093A502B093A602BF91E5
:10089000AF919F918F913F912F910F900FBE0F902D
:1008A0001F901895DC01ED91FC910684F785E02DF1
:1008B00040E0099461E00E9452048BE39FE10197BC
:1008C000F1F708950F931F93CF93DF93EC0142301C
:1008D00018F08C8188608C834F836887222329F0ED
:1008E000413019F48C8184608C8364E670E080E090
:1008F00090E00E94CE036C8164FD31C0E881F981F3
:100900000684F785E02D42E063E0CE0109958BE493
:1009100096E40197F1F7E881F9810684F785E02DE7
:1009200042E063E0CE01099503E512E0C8010197BA
:10093000F1F7E881F9810684F785E02D42E063E074
:10094000CE010995C8010197F1F7E881F981068484
:10095000F785E02D42E062E0CE01099517C06062A4
:10096000CE010E9452048BE496E40197F1F76C816A
:100970006062CE010E94520403E512E0C8010197B3
:10098000F1F76C816062CE010E945204C8010197A8
:10099000F1F76C816062CE010E9452048BEE90E010
:1009A0000197F1F784E08D836CE0CE010E94520440
:1009B000CE010E945A0482E08E8366E0CE010E943E
:1009C0005204E881F9810484F585E02D6FEFCE01B2
:1009D000DF91CF911F910F910994EF92FF920F93A6
:1009E0001F93CF93DF93EC01062FF42EE22E8B851D
:1009F000888B10929D0210929C021092CF0210924E
:100A0000F1021092CD0211E01093CC021092A702D5
:100A100061E082E10E944B0361E083E10E944B03AD
:100A20008091B9008E7F8093B9008091B9008D7F4D
:100A30008093B90088E48093B80085E48093BC007B
:100A400088891093CE028093F0021092CF02109208
:100A5000F1020E94980891E0811190E0998B99230E
:100A600029F08FE893E00E945A018E8789898823B4
:100A700039F01F861C8260E0CE010E960E94D601DE
:100A80002E2D4F2D602FCE01DF91CF911F910F9111
:100A9000FF90EF900C946204CF92DF92EF92FF925E
:100AA000CF93DF93EC01603282E078070CF03DC019
:100AB00077FD06C0653B71052CF064EB70E002C069
:100AC00060E070E0898128E830E06901C81AD10847
:100AD00087FDD394CC0CDD1CCC0CDD1C0D2C000C44
:100AE000EE08FF088A8128E532E0281B310987FDDE
:100AF0003395220F331F220F331FC901330FAA0B67
:100B0000BB0B9C01AD012C193D094E095F09DB01AE
:100B10000E94880F24EB30E040E050E00E945E0F1E
:100B2000C20ED31EE41EF51EB60188818C3080F5FE
:100B3000998148E850E0491B510997FD5395440FAE
:100B4000551F440F551F6417750784F09A8128E5D7
:100B500032E0291B310997FD3395220F331F220FF5
:100B6000331FAB01261737070CF4A9014250510976
:100B7000440F551F2FB7F89490E0FC01EE0FFF1FB4
:100B80008E0F9F1FFC01E556FC4F528341832FBF00
:100B9000DF91CF91FF90EF90DF90CF9008951F935A
:100BA000CF93DF93EC01162F88818C3008F04EC074
:100BB00061E0812F0E947B038881E82FF0E09F0194
:100BC000220F331FE20FF31FE556FC4F1F73908176
:100BD000907C192B108319821A826CE00E94C10F3D
:100BE0009CE0899FB001112440E050E09A01260F5B
:100BF000371FF901EE0FFF1F2E0F3F1FF901E556BA
:100C0000FC4F908196FD16C04F5F5F4F4C305105F1
:100C100069F781110FC01092800082E080938100FB
:100C20001092850010928400B19A80916F008260CA
:100C300080936F00E881F0E0CF01880F991FE80FE3
:100C4000F91FE556FC4F8081806480838881DF91A5
:100C5000CF911F9108951F920F920FB60F921124FA
:100C60002F933F934F935F936F937F938F939F93B4
:100C7000AF93BF93EF93FF9380919B0287FF05C0D3
:100C800010928500109284001BC020919B02022EBE
:100C9000000C330B8091BF0390E02817390784F4D0
:100CA00080919B02082E000C990BFC01EE0FFF1F98
:100CB0008E0F9F1FFC01E556FC4F808186FD15C0FD
:100CC00080919B028F5F80939B0220919B02022E5A
:100CD000000C330B8091BF0390E028173907C4F450
:100CE00080919B028C3064F113C080919B02082E8E
:100CF000000C990BFC01EE0FFF1F8E0F9F1FFC01D4
:100D0000E556FC4F808160E08F730E944B03D8CF83
:100D10008091840090918500049680349C4918F459
:100D200080E49CE905C08091840090918500049640
:100D300090938900809388008FEF80939B023BC043
:100D4000209184003091850080919B02082E000C38
:100D5000990BFC01EE0FFF1F8E0F9F1FFC01E55644
:100D6000FC4F81819281820F931F90938900809321
:100D7000880080919B02082E000C990BFC01EE0F5D
:100D8000FF1F8E0F9F1FFC01E556FC4F808186FFE1
:100D900012C080919B02082E000C990BFC01EE0FF3
:100DA000FF1F8E0F9F1FFC01E556FC4F808161E005
:100DB0008F730E944B03FF91EF91BF91AF919F9171
:100DC0008F917F916F915F914F913F912F910F90F4
:100DD0000FBE0F901F9018951F920F920FB60F9293
:100DE00011242F933F934F935F936F937F938F9330
:100DF0009F93AF93BF93EF93FF938091B900887F48
:100E0000803609F49CC068F5883209F45BC090F420
:100E1000803109F454C038F4882309F4F6C08830CE
:100E200009F44DC0F6C0883109F44CC0803209F491
:100E30005DC0EFC0803409F468C048F4803309F421
:100E400055C0883309F0E5C08093CB02D8C0803507
:100E500009F44FC0883509F45DC0883409F0D9C061
:100E6000D6C0883909F4C7C0A8F4883709F467C028
:100E700038F4883609F463C0803709F460C0C9C00B
:100E8000883809F4B8C0803909F45FC0803809F0A7
:100E9000C0C05BC0803B09F486C038F4803A09F4D6
:100EA00066C0883A09F47FC0B4C0803C09F4A7C08A
:100EB000883C09F4A4C0883B09F48AC0AAC0809188
:100EC000A80210C09091CA028091C902981770F5CB
:100ED000E091CA0281E08E0F8093CA02F0E0E755EC
:100EE000FD4F80818093BB0085EC86C08093CB0250
:100EF0008EC0E091CA0281E08E0F8093CA02809179
:100F0000BB00F0E0E755FD4F80839091CA028091CD
:100F1000C9026EC0E091CA0281E08E0F8093CA02BE
:100F20008091BB00F0E0E755FD4F80838091CC02BB
:100F300081116DC081E08093A70284EA61C083E0E3
:100F40008093CD0210929A02CFCF80919A02803284
:100F500008F051C0E0919A0281E08E0F80939A02CE
:100F60008091BB00F0E0E658FD4F8083BDCF85EC5B
:100F70008093BC001092CD0280919A02803230F4AE
:100F8000E0919A02F0E0E658FD4F108260919A02DB
:100F900070E0E0917802F09179028AE792E0099599
:100FA00010929A0236C084E08093CD0210927702AC
:100FB00010927602E0917402F09175020995809189
:100FC0007602811105C081E080937602109254026E
:100FD000E091770281E08E0F80937702F0E0EC5A87
:100FE000FD4F80818093BB009091770280917602C3
:100FF000981708F479CF85E88093BC000AC085EC87
:101000008093BC001092CD0204C01092CB020E94CB
:101010001901FF91EF91BF91AF919F918F917F91B6
:101020006F915F914F913F912F910F900FBE0F9055
:101030001F901895CF92DF92EF92FF920F931F931C
:10104000CF93DF936C017A018B01C0E0D0E0CE1525
:10105000DF0589F0D8016D918D01D601ED91FC91EC
:101060000190F081E02DC6010995892B11F47E01D4
:1010700002C02196ECCFC701DF91CF911F910F9154
:10108000FF90EF90DF90CF90089582EF92E00E9462
:10109000BD0021E0892B09F420E0822F08950097FC
:1010A00069F0FC0101900020E9F73197AF01481B7E
:1010B000590BBC018FEC93E00C941A0880E090E08F
:1010C0000895CF93DF93CDB7DEB728970FB6F89486
:1010D000DEBF0FBECDBF1D8290E49E8324E12F832F
:1010E00024E5288719829A8390E19B8390E59C836D
:1010F0002091D603821710F08FEF820F3091D70323
:1011000090E0FE01E80FF91F303121F4243011F492
:10111000618101C0658160688FEC93E028960FB60D
:10112000F894DEBF0FBECDBFDF91CF910C94520477
:101130002091F1029091F002213208F04AC0809192
:10114000CD028111FCCF32E03093CD0231E03093FB
:10115000CC023FEF3093CB021092CA022093C90217
:10116000A0EDB2E049EA52E0FA013E2F341B3217FB
:1011700018F43D913193F9CF1092A8022091A80262
:10118000990F922B9093A8029091A702913061F44D
:101190001092A7029091A8029093BB009091BC007E
:1011A00093FDF8CF95EC01C095EE9093BC00909123
:1011B000CD029230E1F39091CB029F3F79F0809184
:1011C000CB02803241F08091CB02803331F084E059
:1011D00005C081E003C082E001C083E01092CF022D
:1011E0001092F1021092CE0208951F920F920FB644
:1011F0000F9211242F933F934F935F936F937F939D
:101200008F939F93AF93BF93EF93FF9382EF92E0FF
:101210000E949802FF91EF91BF91AF919F918F91A2
:101220007F916F915F914F913F912F910F900FBEE2
:101230000F901F9018951092F5021092F40288EE0C
:1012400093E0A0E0B0E08093F6029093F702A093C1
:10125000F802B093F90221E131E03093F3022093D8
:10126000F20225EC30E03093FF022093FE0224ECE2
:1012700030E0309301032093000320EC30E0309302
:1012800003032093020321EC30E030930503209305
:10129000040322EC30E0309307032093060326EC8E
:1012A00030E0309309032093080310920B0310924F
:1012B0000C0310920D0310920E03109292031092E1
:1012C00091038093930390939403A0939503B09319
:1012D000960383E291E09093900380938F03809133
:1012E000BF038C30A0F491E0980F9093BF038093DC
:1012F000ED0390E0FC01EE0FFF1F8E0F9F1FFC011E
:10130000E556FC4F88EB9BE09283818303C08FEF0F
:101310008093ED031092EC031092EB038091BF03D6
:101320008C30A0F491E0980F9093BF038093E80372
:1013300090E0FC01EE0FFF1F8E0F9F1FFC01E55692
:10134000FC4F88EB9BE09283818303C08FEF8093F7
:10135000E8031092D2031092D10385E391E09093B9
:10136000D0038093CF031092DF038FEF8093DE03CF
:101370001092DD031092E0038FE38093DA03109262
:10138000DB031092DC031092D9031092D80384E09F
:101390008093E10382E08093E20381E08093E303A2
:1013A00080E18093E40380E28093E50380E480930E
:1013B000E60380E88093E70340E050E063E08FECD1
:1013C00093E00C94F800CF93DF9300D0CDB7DEB755
:1013D000789484B5826084BD84B5816084BD85B510
:1013E000826085BD85B5816085BD80916E0081601C
:1013F00080936E00109281008091810082608093C2
:1014000081008091810081608093810080918000C3
:101410008160809380008091B10084608093B100EE
:101420008091B00081608093B00080917A008460E8
:1014300080937A0080917A00826080937A00809114
:101440007A00816080937A0080917A00806880932E
:101450007A001092C100E0910203F091030382E050
:101460008083E091FE02F091FF021082E091000380
:10147000F091010380E1808310920A03E09106035A
:10148000F091070386E08083E0910403F091050367
:10149000808180618083E0910403F0910503808165
:1014A00088608083E0910403F09105038081806867
:1014B0008083E0910403F091050380818F7D808318
:1014C00060E08EE00E947B0360E081E10E947B038C
:1014D00063E070E08DEE93E00E94CF0585E090E040
:1014E0009093EC038093EB030091EB031091EC03DA
:1014F000093B110594F0B8018DEE93E00E944C0574
:101500006FE070E080E090E00E94CE03055011098A
:101510001093EC030093EB03E7CF65E070E088EEF7
:1015200093E00E94CF0585E090E0909305018093C1
:10153000040100910401109105010A3B110594F486
:10154000B80188EE93E00E944C056FE070E080E007
:1015500090E00E94CE030B5F1F4F10930501009394
:101560000401E7CF62E082E00E947B0360E08FE04D
:101570000E947B0360E080E10E947B0361E084E0E5
:101580000E947B0361E087E00E947B0361E088E0CA
:101590000E947B0360E088E00E944B0360E087E0EC
:1015A0000E944B0360E084E00E944B0361E089E00D
:1015B0000E947B0361E08CE00E947B0361E089E094
:1015C0000E944B0361E08CE00E944B0320E042E06C
:1015D00060E18FEC93E00E94ED0480E00E946108DE
:1015E00003E010E085E491E00E944F0867E771E0B6
:1015F00080E090E00E94CE038FEC93E00E945A04BA
:101600008EE491E00E944F0867E771E080E090E08F
:101610000E94CE038FEC93E00E945A0488E591E08B
:101620000E944F0867E771E080E090E00E94CE03DF
:101630008FEC93E00E945A040150110999F680E062
:101640000E94610883E691E00E944F0881E00E94B9
:10165000610884E791E00E944F0868EE73E080E043
:1016600090E00E94CE038FEC93E00E945A0480E049
:101670000E94610884E791E00E944F0881E00E9487
:10168000610883E891E00E944F0868EE73E080E013
:1016900090E00E94CE038FEC93E00E945A0480E019
:1016A0000E94610883E891E00E944F0881E00E9457
:1016B00061088FE891E00E944F0868EE73E080E0D7
:1016C00090E00E94CE038FEC93E00E945A0480E0E9
:1016D0000E9461088FE891E00E944F0881E00E941B
:1016E000610889E991E00E944F0868EE73E080E0AC
:1016F00090E00E94CE038FEC93E00E945A0480E0B9
:101700000E94610889E991E00E944F0881E00E94EF
:10171000610888EA91E00E944F0868EE73E080E07B
:1017200090E00E94CE038FEC93E00E945A0490EB6D
:10173000492E90E0592E2CE9622E20E0722E38E8D6
:10174000832E30E0932E42E0A42EB12C59EBE52EEF
:10175000F12C65E0C62ED12C8FE00E94B7038C01DE
:101760009093CE038093CD0380E10E94B7031C01C8
:101770009093CC038093CB03F2018491F301949175
:10178000F40124912223C9F0882331F02A8399831C
:101790000E94220399812A81E22FF0E0EE0FFF1FC1
:1017A000E458FF4FA591B4918C91982331E020E04B
:1017B00009F430E0832F922F02C080E090E0F1E046
:1017C0008F27282F21702093CA032091C8033091BE
:1017D000C9032115310509F04CC32CEB221622E078
:1017E000320634F0E1E0F0E0F093C903E093C8037F
:1017F000053611053CF421E030E030930C012093D4
:101800000B010EC00C3B12402CF010920C011092F8
:101810000B0106C0892B21F0B0920C01A0920B01A4
:101820008EE00E94B7038C5291409093C70380933F
:10183000C603181619061CF01092C50303C081E0F8
:101840008093C50381E10E94B7038C52914090932D
:10185000C4038093C303181619061CF01092C20328
:1018600003C081E08093C20300910B0110910C0131
:1018700060E00230110531F488E00E944B0361E022
:1018800087E005C087E00E944B0361E088E00E948A
:101890004B038091C0039091C103009731F460E045
:1018A00089E00E944B0361E007C0019741F461E0C9
:1018B00089E00E944B0360E08CE00E944B03023001
:1018C000110509F0ADC08091C503882309F450C00B
:1018D00080910A0181114CC08FEC93E00E945A0460
:1018E00080E00E94610880EB91E00E944F08009127
:1018F0000801109109010130110561F481E00E9495
:1019000061088DEB91E00E944F081093070100934E
:1019100006010DC0012B59F481E00E94610889EC99
:1019200091E00E944F081092070110920601D09298
:10193000EC03C092EB030091EB031091EC030A3B24
:10194000110594F4B8018DEE93E00E944C056FE010
:1019500070E080E090E00E94CE030B5F1F4F109379
:10196000EC030093EB03E7CF81E080930A0153C0BF
:101970008091C2038111F6C080910A01882309F485
:10198000F1C08FEC93E00E945A0480E00E9461084D
:1019900085ED91E00E944F08009108011091090126
:1019A0000130110561F481E00E9461088DEB91E046
:1019B0000E944F0810930701009306010DC0012BF0
:1019C00059F481E00E94610889EC91E00E944F087F
:1019D0001092070110920601F092EC03E092EB03E3
:1019E0000091EB031091EC030530110594F0B80160
:1019F0008DEE93E00E944C056FE070E080E090E097
:101A00000E94CE03055011091093EC030093EB03E1
:101A1000E7CF10920A018FEC93E00E945A04A2C013
:101A20000130110509F04DC080910A0181119AC061
:101A30008FEC93E00E945A0480E00E94610882EEDD
:101A400091E00E944F088091080190910901813036
:101A5000910561F481E00E9461088DEB91E00E94A4
:101A60004F0810930701009306010DC0892B59F40C
:101A700081E00E94610889EC91E00E944F08109279
:101A8000070110920601D092EC03C092EB03009183
:101A9000EB031091EC030A3B11050CF065CFB80184
:101AA0008DEE93E00E944C056FE070E080E090E0E6
:101AB0000E94CE030B5F1F4F1093EC030093EB03C8
:101AC000E6CF012B09F04EC080910A01882309F46A
:101AD00049C08FEC93E00E945A0480E00E946108A4
:101AE00082EF91E00E944F080091080110910901D6
:101AF0000130110561F481E00E9461088DEB91E0F5
:101B00000E944F0810930701009306010DC0012B9E
:101B100059F481E00E94610889EC91E00E944F082D
:101B20001092070110920601F092EC03E092EB0391
:101B30000091EB031091EC03053011050CF469CF13
:101B4000B8018DEE93E00E944C056FE070E080E0FC
:101B500090E00E94CE03055011091093EC0300930E
:101B6000EB03E6CF82EF92E00E949B008497D1F4D2
:101B700061E070E080E090E00E94CE0382EF92E0AE
:101B80000E949B008133910529F41092C1031092A9
:101B9000C00308C0C09731F481E090E09093C10386
:101BA0008093C0038091C0039091C103009709F016
:101BB0005DC08091080190910901892B09F0AFC0A7
:101BC0008FEC93E00E945A0480E00E94610820910B
:101BD0000A0180910B0190910C01222331F0823097
:101BE000910549F482E092E010C08230910519F429
:101BF0008EE092E00AC08130910519F48AE192E00A
:101C000004C0892B21F48AE292E00E944F0881E00F
:101C10000E9461088AE392E00E944F08D092050179
:101C2000C092040100910401109105010A3B1105C5
:101C300094F4B80188EE93E00E944C056FE070E0E8
:101C400080E090E00E94CE030B5F1F4F10930501D0
:101C500000930401E7CF8FEC93E00E945A04E1E087
:101C6000F0E0F0930901E093080159C0019709F0F1
:101C700056C08091080190910901019709F04FC069
:101C80008FEC93E00E945A0480E00E94610820914A
:101C90000A0180910B0190910C01222331F08230D6
:101CA000910549F482E092E010C08230910519F468
:101CB0008EE092E00AC08130910519F48AE192E049
:101CC00004C0892B21F48AE292E00E944F0881E04F
:101CD0000E94610887E492E00E944F08F09205019B
:101CE000E0920401009104011091050105301105F5
:101CF00094F0B80188EE93E00E944C056FE070E02C
:101D000080E090E00E94CE03055011091093050178
:101D100000930401E7CF109209011092080120916D
:101D20000A018091020190910301222321F08D7F0D
:101D3000892BA1F103C00197029780F180910B01DB
:101D400090910C018230910538F4809100019091BE
:101D50000101019749F422C0029731F480910001FA
:101D600090910101892BD1F0809108019091090196
:101D70008130910541F480910601909107018D7F9A
:101D8000892B61F098C0892B09F095C080910601DC
:101D9000909107010197029708F08DC08FEC93E0B6
:101DA0000E945A0480E00E94610880910A0100911B
:101DB0000B0110910C0181111DC00230110579F445
:101DC0008EE092E00E944F081092030110920201EF
:101DD00021E030E030930101209300012CC0012B61
:101DE00051F58AE292E00E944F081092030110928E
:101DF00002011DC00230110579F482E092E00E94D8
:101E00004F0881E090E0909303018093020190934A
:101E10000101809300010FC00130110561F48AE1D6
:101E200092E00E944F081093030100930201109268
:101E300001011092000181E00E94610800910801F7
:101E4000109109010130110549F48DEB91E00E94D8
:101E50004F0810930701009306012DC0012B59F57F
:101E600089EC91E00E944F08109207011092060140
:101E700022C021303105F9F48FEC93E00E945A041E
:101E8000B0920301A092020160E088E00E944B033F
:101E900060E087E00E944B0360E084E00E944B0317
:101EA0008091CB039091CC038536910524F4109258
:101EB000C9031092C8030E94C9004ECC052E97FB9F
:101EC0001EF400940E94750F57FD07D00E94900FDA
:101ED00007FC03D04EF40C94750F50954095309547
:101EE00021953F4F4F4F5F4F089590958095709586
:101EF00061957F4F8F4F9F4F08950E94B20FA59F0E
:101F0000900DB49F900DA49F800D911D11240895F4
:101F1000B7FF0C947D0F0E947D0F821B930B0895D9
:101F2000A1E21A2EAA1BBB1BFD010DC0AA1FBB1FDD
:101F3000EE1FFF1FA217B307E407F50720F0A21B4F
:101F4000B30BE40BF50B661F771F881F991F1A94BC
:101F500069F760957095809590959B01AC01BD01E6
:101F6000CF010895A29FB001B39FC001A39F700D40
:101F7000811D1124911DB29F700D811D1124911D91
:101F80000895991B79E004C0991F961708F0961BD5
:101F9000881F7A95C9F780950895EE0FFF1F059069
:101FA000F491E02D099481E090E0F8940C94D80F1E
:041FB000F894FFCFD3
:101FB400010002000500020001000102000000000F
:101FC40000B9021A088C000003BD009B00AF00009A
:101FD400000000A1017101D1014B0169015A014CBA
:101FE40001000000000C011A08D101D001ED04F831
:101FF400004C022B024C6F6164696E672E004C6FBB
:102004006164696E672E2E004C6F6164696E672E81
:102014002E2E0062793A486F7373616D20415A5ACB
:102024004F555A00262041796F756220444144413E
:102034004E490026204E6F7561616D616E650041E9
:1020440049542044414F554400262041626465723E
:102054007261686D616E65004452494F5543480092
:102064004D31203A20436C6F73696E67004D322006
:102074003A20436C6F736564004D32203A204F70F0
:10208400656E6564004D31203A204F70656E696E4F
:1020940067004D31203A20436C6F73696E672846A0
:1020A40029004D31203A204F70656E696E672846CD
:1020B40029004D31203A20436C6F736564004D3123
:1020C400203A204F70656E6564004D31203A2043FC
:1020D4006C6F73656420284629004D31203A204FE7
:1020E40070656E656420284629004D32203A2043ED
:1020F4006C6F73696E67004D32203A204F70656EC5
:04210400696E670099
:107E0000112484B714BE81FFF0D085E080938100F7
:107E100082E08093C00088E18093C10086E0809377
:107E2000C20080E18093C4008EE0C9D0259A86E02C
:107E300020E33CEF91E0309385002093840096BBD3
:107E4000B09BFECF1D9AA8958150A9F7CC24DD24C4
:107E500088248394B5E0AB2EA1E19A2EF3E0BF2EE7
:107E6000A2D0813461F49FD0082FAFD0023811F036
:107E7000013811F484E001C083E08DD089C08234E0
:107E800011F484E103C0853419F485E0A6D080C0E4
:107E9000853579F488D0E82EFF2485D0082F10E0AE
:107EA000102F00270E291F29000F111F8ED06801E7
:107EB0006FC0863521F484E090D080E0DECF843638
:107EC00009F040C070D06FD0082F6DD080E0C81688
:107ED00080E7D80618F4F601B7BEE895C0E0D1E017
:107EE00062D089930C17E1F7F0E0CF16F0E7DF06D8
:107EF00018F0F601B7BEE89568D007B600FCFDCFD4
:107F0000A601A0E0B1E02C9130E011968C91119780
:107F100090E0982F8827822B932B1296FA010C0160
:107F200087BEE89511244E5F5F4FF1E0A038BF0790
:107F300051F7F601A7BEE89507B600FCFDCF97BE46
:107F4000E89526C08437B1F42ED02DD0F82E2BD052
:107F50003CD0F601EF2C8F010F5F1F4F84911BD097
:107F6000EA94F801C1F70894C11CD11CFA94CF0C13
:107F7000D11C0EC0853739F428D08EE10CD085E9AC
:107F80000AD08FE07ACF813511F488E018D01DD067
:107F900080E101D065CF982F8091C00085FFFCCF94
:107FA0009093C60008958091C00087FFFCCF809118
:107FB000C00084FD01C0A8958091C6000895E0E648
:107FC000F0E098E1908380830895EDDF803219F02E
:107FD00088E0F5DFFFCF84E1DECF1F93182FE3DFCA
:107FE0001150E9F7F2DF1F91089580E0E8DFEE27F6
:047FF000FF270994CA
:027FFE00040479
:0400000300007E007B
:00000001FF