:100000000C9462000C948A000C948A000C948A0070
:100010000C948A000C948A000C948A000C948A0038
:100020000C948A000C948A000C948A000C94260587
:100030000C948A000C948A000C948A000C948A0018
:100040000C9403030C948A000C9418080C94F20787
:100050000C948A000C948A000C948A000C948A00F8
:100060000C94E7050C948A0000000000240027008F
:100070002A0000000000250028002B0000000000DE
:1000800023002600290004040404040404040202DA
:100090000202020203030303030301020408102007
:1000A0004080010204081020010204081020000012
:1000B0000008000201000003040700000000000027
:1000C00000000A0F11241FBECFEFD8E0DEBFCDBF66
:1000D00012E0A0E0B1E0ECE9F0E202C005900D9280
:1000E000A03BB107D9F724E0A0EBB2E001C01D921C
:1000F000AD34B207E1F710E0C2E6D0E004C02197CA
:10010000FE010E944110C136D107C9F70E941B09A8
:100110000C944C100C9400003FB7F8948091FF02AF
:1001200090910003A0910103B091020326B5A89B12
:1001300005C02F3F19F00196A11DB11D3FBFBA2F79
:10014000A92F982F8827820F911DA11DB11DBC01D9
:10015000CD0142E0660F771F881F991F4A95D1F79E
:10016000089521E001C0220F6A95EAF7DC011C9690
:100170002C931C971A965C934E931997ED91FC91D2
:100180000484F585E02D60E00994DC01ED91FC919B
:100190000684F785E02D41E0099581E090E008951F
:1001A0000895089585ED8093BC008091BC0084FD86
:1001B000FCCF1092390308954091D202262F30E0EF
:1001C000240F311D21323105DCF420913903243014
:1001D000C9F4FC0180E090E0861758F43091D20217
:1001E0002191DC01A055BD4FA30FB11D2C930196A9
:1001F000F3CF8091D202680F6093D20280E008951D
:1002000081E0089582E00895089581E090E03091C2
:10021000F9022091F802321710F480E090E09195F5
:100220008195910908958091F9029091F8028917BA
:1002300030F48F5F8093F90280E090E008958FEFB3
:100240009FEF08958091F80290E02091F902821BBF
:1002500091090895CF92DF92EF92FF920F931F932F
:10026000CF93DF937C01262F972F8A0180913A0349
:10027000882391F0C62FD72F6E01C40ED51ECC1542
:10028000DD0571F06991D701ED91FC910190F0814C
:10029000E02DC7010995F3CF642F822F0E94DC0067
:1002A000C801DF91CF911F910F91FF90EF90DF90E8
:1002B000CF900895CF93DF931F92CDB7DEB76983B8
:1002C00020913A032223D1F020915D03203240F0A7
:1002D00021E030E0FC013383228380E090E015C010
:1002E00080913B03E82FF0E0E45CFC4F9981908320
:1002F0008F5F80933B0380935D0305C061E0CE0177
:1003000001960E94DC0081E090E00F90DF91CF9198
:100310000895089580E090E00895FC012381222350
:10032000B9F09181909569236083828191E09093E7
:100330003A0380935C0310923B0310925D038BEFB2
:1003400093E00E945A010E94BE08282F30E002C0AC
:1003500020E030E081E090E0232B11F080E090E09D
:100360000895EF92FF920F931F93CF938C01FC019E
:10037000759684E0C0E060FF02C09081C92B66954D
:10038000815031968111F7CF413011F4F801448941
:10039000F8018585C82BC42B7801FEE0EF0EF11C17
:1003A000F80162896C2BC7010E948D01F8016289F6
:1003B00060956C23C701CF911F910F91FF90EF9033
:1003C0000C948D010F931F93CF93DF93062F0F7023
:1003D000423019F440E0602F10C0142F262FEC019A
:1003E00030E0B90184E0759567958A95E1F7CE0113
:1003F0000E94B101412F602FCE01DF91CF911F915B
:100400000F910C94B101FC0184858823A9F021850A
:1004100032852115310519F4611106C007C021305C
:10042000310521F4611102C0858701C015866585FB
:10043000CF010E960C948D010895833081F028F43D
:10044000813099F08230A1F008958730A9F088308A
:10045000B9F08430D1F4809180008F7D03C0809109
:1004600080008F7780938000089584B58F7702C0D5
:1004700084B58F7D84BD08958091B0008F7703C0CF
:100480008091B0008F7D8093B00008951F93CF932B
:10049000DF93282F30E0F901E255FF4F8491F901F5
:1004A000E656FF4FD491F901EA57FF4FC491CC2390
:1004B000C9F0162F81110E941D02EC2FF0E0EE0F03
:1004C000FF1FEE58FF4FA591B4918FB7F89411110B
:1004D00005C09C91ED2FE095E92302C0EC91ED2B36
:1004E000EC938FBFDF91CF911F910895CF93DF934E
:1004F00090E0FC01E656FF4F2491FC01EA57FF4FC4
:100500008491882361F190E0880F991FFC01E859DC
:10051000FF4FC591D491FC01EE58FF4FA591B491C6
:10052000611109C09FB7F894888120958223888340
:10053000EC912E230BC0623061F49FB7F8943881A0
:10054000822F809583238883EC912E2B2C939FBF41
:1005500006C08FB7F894E8812E2B28838FBFDF91D8
:10056000CF9108958E3008F08E508770806480930C
:100570007C0080917A00806480937A0080917A0078
:1005800086FDFCCF809178002091790090E0922B3D
:1005900008958F929F92AF92BF92CF92DF92EF9287
:1005A000FF926B017C010E948C004B015C01C11425
:1005B000D104E104F104F1F00E948C00DC01CB01D4
:1005C00088199909AA09BB09883E9340A105B1057C
:1005D00070F321E0C21AD108E108F10888EE880E14
:1005E00083E0981EA11CB11CC114D104E104F104E4
:1005F00019F7DDCFFF90EF90DF90CF90BF90AF90D5
:100600009F908F9008951F920F920FB60F92112412
:100610002F933F938F939F93AF93BF938091FB0250
:100620009091FC02A091FD02B091FE023091FA027D
:1006300023E0230F2D3720F40196A11DB11D05C025
:1006400026E8230F0296A11DB11D2093FA02809384
:10065000FB029093FC02A093FD02B093FE028091F6
:10066000FF0290910003A0910103B0910203019653
:10067000A11DB11D8093FF0290930003A09301037D
:10068000B0930203BF91AF919F918F913F912F91B2
:100690000F900FBE0F901F901895DC01ED91FC910B
:1006A0000684F785E02D40E0099461E00E944D0347
:1006B0008BE39FE10197F1F708950F931F93CF9379
:1006C000DF93EC01423018F08C8188608C834F837B
:1006D0006887222329F0413019F48C8184608C834F
:1006E00064E670E080E090E00E94C9026C8164FDE5
:1006F00031C0E881F9810684F785E02D42E063E0AE
:10070000CE0109958BE496E40197F1F7E881F98130
:100710000684F785E02D42E063E0CE01099503E50C
:1007200012E0C8010197F1F7E881F9810684F785A5
:10073000E02D42E063E0CE010995C8010197F1F791
:10074000E881F9810684F785E02D42E062E0CE0180
:10075000099517C06062CE010E944D038BE496E4B8
:100760000197F1F76C816062CE010E944D0303E5B1
:1007700012E0C8010197F1F76C816062CE010E941E
:100780004D03C8010197F1F76C816062CE010E94B0
:100790004D038BEE90E00197F1F784E08D836CE0E0
:1007A000CE010E944D03CE010E94550382E08E834C
:1007B00066E0CE010E944D03E881F9810484F5854D
:1007C000E02D6FEFCE01DF91CF911F910F91099432
:1007D000EF92FF920F931F93CF93DF93EC01062FBD
:1007E000F42EE22E8B85888B1092F9021092F8027B
:1007F00010923B0310925D031092390311E01093A5
:1008000038031092130361E082E10E94460261E026
:1008100083E10E9446028091B9008E7F8093B900E7
:100820008091B9008D7F8093B90088E48093B800EF
:1008300085E48093BC00888910933A0380935C031D
:1008400010923B0310925D030E94BE0891E081115B
:1008500090E0998B992329F08BEF93E00E9413018C
:100860008E878989882339F01F861C8260E0CE013B
:100870000E960E948D012E2D4F2D602FCE01DF91FF
:10088000CF911F910F91FF90EF900C945D03CF9249
:10089000DF92EF92FF92CF93DF93EC01603282E020
:1008A00078070CF03DC077FD06C0653B71052CF064
:1008B00064EB70E002C060E070E0898128E830E01D
:1008C0006901C81AD10887FDD394CC0CDD1CCC0C6F
:1008D000DD1C0D2C000CEE08FF088A8128E532E0B3
:1008E000281B310987FD3395220F331F220F331F39
:1008F000C901330FAA0BBB0B9C01AD012C193D099B
:100900004E095F09DB010E94FC0F24EB30E040E060
:1009100050E00E94D20FC20ED31EE41EF51EB60197
:1009200088818C3080F5998148E850E0491B510955
:1009300097FD5395440F551F440F551F64177507B6
:1009400084F09A8128E532E0291B310997FD33951F
:10095000220F331F220F331FAB01261737070CF46A
:10096000A90142505109440F551F2FB7F89490E048
:10097000FC01EE0FFF1F8E0F9F1FFC01E95FFB4F75
:10098000528341832FBFDF91CF91FF90EF90DF9093
:10099000CF9008951F93CF93DF93EC01162F88819A
:1009A0008C3008F04EC061E0812F0E947602888171
:1009B000E82FF0E09F01220F331FE20FF31FE95FE2
:1009C000FB4F1F739081907C192B108319821A8220
:1009D0006CE00E9435109CE0899FB001112440E03A
:1009E00050E09A01260F371FF901EE0FFF1F2E0F5F
:1009F0003F1FF901E95FFB4F908196FD16C04F5FE5
:100A00005F4F4C30510569F781110FC01092800083
:100A100082E0809381001092850010928400B19A48
:100A200080916F00826080936F00E881F0E0CF01D9
:100A3000880F991FE80FF91FE95FFB4F80818064E1
:100A400080838881DF91CF911F9108951F920F922B
:100A50000FB60F9211242F933F934F935F936F9391
:100A60007F938F939F93AF93BF93EF93FF93809167
:100A7000F70287FF05C010928500109284001BC00A
:100A80002091F702022E000C330B80912B0490E092
:100A90002817390784F48091F702082E000C990B6F
:100AA000FC01EE0FFF1F8E0F9F1FFC01E95FFB4F44
:100AB000808186FD15C08091F7028F5F8093F702D9
:100AC0002091F702022E000C330B80912B0490E052
:100AD00028173907C4F48091F7028C3064F113C0F1
:100AE0008091F702082E000C990BFC01EE0FFF1FFE
:100AF0008E0F9F1FFC01E95FFB4F808160E08F73C9
:100B00000E944602D8CF809184009091850004967F
:100B100080349C4918F480E49CE905C080918400ED
:100B200090918500049690938900809388008FEFC0
:100B30008093F7023BC02091840030918500809122
:100B4000F702082E000C990BFC01EE0FFF1F8E0F11
:100B50009F1FFC01E95FFB4F81819281820F931FF0
:100B600090938900809388008091F702082E000CF2
:100B7000990BFC01EE0FFF1F8E0F9F1FFC01E95F19
:100B8000FB4F808186FF12C08091F702082E000C77
:100B9000990BFC01EE0FFF1F8E0F9F1FFC01E95FF9
:100BA000FB4F808161E08F730E944602FF91EF91BD
:100BB000BF91AF919F918F917F916F915F914F9175
:100BC0003F912F910F900FBE0F901F9018951F927D
:100BD0000F920FB60F9211242F933F934F935F9371
:100BE0006F937F938F939F93AF93BF93EF93FF93F5
:100BF0008091B900887F803609F49CC068F58832FE
:100C000009F45BC090F4803109F454C038F48823AF
:100C100009F4F6C0883009F44DC0F6C0883109F4F3
:100C20004CC0803209F45DC0EFC0803409F468C064
:100C300048F4803309F455C0883309F0E5C0809347
:100C40003703D8C0803509F44FC0883509F45DC03A
:100C5000883409F0D9C0D6C0883909F4C7C0A8F4CF
:100C6000883709F467C038F4883609F463C08037E0
:100C700009F460C0C9C0883809F4B8C0803909F4E3
:100C80005FC0803809F0C0C05BC0803B09F486C0FB
:100C900038F4803A09F466C0883A09F47FC0B4C0D9
:100CA000803C09F4A7C0883C09F4A4C0883B09F43F
:100CB0008AC0AAC08091140310C09091360380911D
:100CC0003503981770F5E091360381E08E0F80931D
:100CD0003603F0E0EB5EFC4F80818093BB0085EC37
:100CE00086C0809337038EC0E091360381E08E0F7B
:100CF000809336038091BB00F0E0EB5EFC4F808375
:100D000090913603809135036EC0E091360381E007
:100D10008E0F809336038091BB00F0E0EB5EFC4FBA
:100D200080838091380381116DC081E0809313032B
:100D300084EA61C083E0809339031092F602CFCF3A
:100D40008091F602803208F051C0E091F60281E015
:100D50008E0F8093F6028091BB00F0E0EA52FD4FC7
:100D60008083BDCF85EC8093BC00109239038091C5
:100D7000F602803230F4E091F602F0E0EA52FD4FE4
:100D800010826091F60270E0E091D402F091D502F9
:100D900086ED92E009951092F60236C084E08093C9
:100DA00039031092D3021092D202E091D002F09156
:100DB000D10209958091D202811105C081E0809312
:100DC000D2021092B002E091D30281E08E0F8093A4
:100DD000D302F0E0E055FD4F80818093BB009091FD
:100DE000D3028091D202981708F479CF85E88093D6
:100DF000BC000AC085EC8093BC001092390304C08B
:100E0000109237030E94D200FF91EF91BF91AF91F2
:100E10009F918F917F916F915F914F913F912F9112
:100E20000F900FBE0F901F901895FC01538D448DAD
:100E3000252F30E0842F90E0821B930B541710F085
:100E4000CF96089501970895FC01918D828D981792
:100E500061F0828DDF01A80FB11D5D968C91928D9E
:100E60009F5F9F73928F90E008958FEF9FEF08959B
:100E7000FC01918D828D981731F0828DE80FF11D64
:100E8000858D90E008958FEF9FEF0895FC01918D7F
:100E9000228D892F90E0805C9F4F821B91098F7378
:100EA000992708958EE593E00E94460721E0892B5B
:100EB00009F420E0822F0895FC01848DDF01A80F42
:100EC000B11DA35ABF4F2C91848D90E001968F7372
:100ED0009927848FA689B7892C93A089B1898C9191
:100EE00080648C93938D848D981306C00288F38957
:100EF000E02D80818F7D80830895EF92FF920F9384
:100F00001F93CF93DF93EC0181E0888F9B8D8C8DB5
:100F1000981305C0E889F989808185FD24C0F62EE3
:100F20000B8D10E00F5F1F4F0F731127E02E8C8D7C
:100F3000E8120CC00FB607FCFACFE889F989808166
:100F400085FFF5CFCE010E945C07F1CF8B8DFE01AE
:100F5000E80FF11DE35AFF4FF0820B8FEA89FB89FE
:100F60008081806207C0EE89FF896083E889F98902
:100F700080818064808381E090E0DF91CF911F9138
:100F80000F91FF90EF900895CF93DF93EC01888D40
:100F90008823C9F0EA89FB89808185FD05C0A8897D
:100FA000B9898C9186FD0FC00FB607FCF5CF808103
:100FB00085FFF2CFA889B9898C9185FFEDCFCE014D
:100FC0000E945C07E7CFDF91CF91089580E090E029
:100FD000892B29F00E94520781110C94000008957A
:100FE0000E9447101F920F920FB60F9211242F9359
:100FF0003F934F935F936F937F938F939F93AF93A1
:10100000BF93EF93FF938EE593E00E945C07FF91FF
:10101000EF91BF91AF919F918F917F916F915F9170
:101020004F913F912F910F900FBE0F901F901895E9
:101030001F920F920FB60F9211242F938F939F93AD
:10104000EF93FF93E0916E03F0916F038081E09145
:101050007403F091750382FD12C090818091770333
:101060008F5F8F7320917803821751F0E09177039F
:10107000F0E0E25AFC4F958F8093770301C08081A6
:10108000FF91EF919F918F912F910F900FBE0F9035
:101090001F901895CF92DF92EF92FF920F931F93BC
:1010A000CF93DF936C017A018B01C0E0D0E0CE15C5
:1010B000DF0589F0D8016D918D01D601ED91FC918C
:1010C0000190F081E02DC6010995892B11F47E0174
:1010D00002C02196ECCFC701DF91CF911F910F91F4
:1010E000FF90EF90DF90CF900895009769F0FC019A
:1010F00001900020E9F73197AF01481B590BBC0163
:101100008CE294E00C944A0880E090E00895CF933C
:10111000DF93CDB7DEB728970FB6F894DEBF0FBECA
:10112000CDBF1D8290E49E8324E12F8324E5288790
:1011300019829A8390E19B8390E59C8320913304EC
:10114000821710F08FEF820F3091340490E0FE018F
:10115000E80FF91F303121F4243011F4618101C00E
:10116000658160688CE294E028960FB6F894DEBF43
:101170000FBECDBFDF91CF910C944D0320915D0345
:1011800090915C03213208F04AC0809139038111AB
:10119000FCCF32E03093390331E0309338033FEF36
:1011A000309337031092360320933503ACE3B3E05A
:1011B00045E153E0FA013E2F341B321718F43D91FC
:1011C0003193F9CF1092140320911403990F922BAD
:1011D0009093140390911303913061F410921303D0
:1011E000909114039093BB009091BC0093FDF8CFB5
:1011F00095EC01C095EE9093BC009091390392302C
:10120000E1F3909137039F3F79F08091370380326B
:1012100041F080913703803331F084E005C081E0F4
:1012200003C082E001C083E010923B0310925D0393
:1012300010923A030895CF93DF9300D0CDB7DEB775
:10124000789484B5826084BD84B5816084BD85B5A1
:10125000826085BD85B5816085BD80916E008160AD
:1012600080936E0010928100809181008260809353
:101270008100809181008160809381008091800055
:101280008160809380008091B10084608093B10080
:101290008091B00081608093B00080917A0084607A
:1012A00080937A0080917A00826080937A008091A6
:1012B0007A00816080937A0080917A0080688093C0
:1012C0007A001092C100E0916E03F0916F0382E00A
:1012D0008083E0916A03F0916B031082E0916C03CC
:1012E000F0916D0380E1808310927603E0917203A8
:1012F000F091730386E08083E0917003F0917103B5
:10130000808180618083E0917003F091710380811E
:1013100088608083E0917003F09171038081806820
:101320008083E0917003F091710380818F7D8083D1
:1013300060E08EE00E94760260E081E10E94760229
:1013400063E070E08AE494E00E94CA0485E090E0E3
:101350009093490480934804609148047091490433
:101360006A3B710584F48AE494E00E9447046FE0CC
:1013700070E080E090E00E94C90280914804909162
:1013800049040596E5CF65E070E085E494E00E94AD
:10139000CA0485E090E090930501809304010091D8
:1013A0000401109105010A3B110594F4B80185E48C
:1013B00094E00E9447046FE070E080E090E00E94BB
:1013C000C9020B5F1F4F1093050100930401E7CF83
:1013D00062E082E00E94760260E08FE00E94760286
:1013E00060E080E10E94760261E084E00E94760283
:1013F00061E087E00E94760261E088E00E94760268
:1014000060E088E00E94460260E087E00E944602B9
:1014100060E084E00E94460261E089E00E9476027A
:1014200061E08CE00E94760261E089E00E94460261
:1014300061E08CE00E94460220E042E060E18CE244
:1014400094E00E94E80380E00E94870803E010E037
:1014500085E491E00E94750867E771E080E090E024
:101460000E94C9028CE294E00E9455038EE491E050
:101470000E94750867E771E080E090E00E94C90271
:101480008CE294E00E94550388E591E00E94750883
:1014900067E771E080E090E00E94C9028CE294E08E
:1014A0000E9455030150110999F680E00E948708B7
:1014B00083E691E00E94750881E00E94870884E736
:1014C00091E00E94750868EE73E080E090E00E9471
:1014D000C9028CE294E00E94550380E00E948708D4
:1014E00085E891E00E94750881E00E94870886E9FE
:1014F00091E00E94750868EE73E080E090E00E9441
:10150000C9028CE294E00E94550380E00E948708A3
:1015100087EA91E00E94750881E00E94870888EBC5
:1015200091E00E94750868EE73E080E090E00E9410
:10153000C9028CE294E00E94550380E00E94870873
:1015400089EC91E00E94750881E00E9487088AED8D
:1015500091E00E94750868EE73E080E090E00E94E0
:10156000C9028CE294E00E94550380E00E94870843
:1015700089EE91E00E94750881E00E9487088AEF59
:1015800091E00E94750868EE73E080E090E00E94B0
:10159000C9028CE294E00E94550390EB492E90E042
:1015A000592E2CE9622E20E0722E38E8832E30E08E
:1015B000932E42E0A42EB12C59EBC52ED12C65E020
:1015C000E62EF12C8FE00E94B2028C019093120360
:1015D0008093110380E10E94B2021C0190931003DA
:1015E00080930F03F2018491F3019491F40124910B
:1015F0002223C9F0882331F02A8399830E941D0297
:1016000099812A81E22FF0E0EE0FFF1FE458FF4F8F
:10161000A591B4918C91982331E020E009F430E059
:10162000832F922F02C080E090E0F1E08F27282FD7
:10163000217020930E0320910C0330910D0321158E
:10164000310509F06BC32CEB221622E0320634F090
:10165000E1E0F0E0F0930D03E0930C030536110593
:101660003CF421E030E030930C0120930B010EC0DC
:101670000C3B12402CF010920C0110920B0106C092
:10168000892B21F0B0920C01A0920B018EE00E94F8
:10169000B2028C52914090930B0380930A03181668
:1016A00019061CF01092090303C081E0809309031E
:1016B00081E10E94B2028C52914090930803809382
:1016C0000703181619061CF01092060303C081E0E8
:1016D0008093060300910B0110910C0160E0023031
:1016E000110531F488E00E94460261E087E005C000
:1016F00087E00E94460261E088E00E9446028091F5
:10170000040390910503009731F460E089E00E94A2
:10171000460261E007C0019741F461E089E00E9460
:10172000460260E08CE00E9446020230110509F09A
:10173000B1C080910903882309F452C080910A0145
:1017400081114EC08CE294E00E94550380E00E941B
:1017500087088BE092E00E947508009108011091C3
:1017600009010130110561F481E00E94870888E1D8
:1017700092E00E94750810930701009306010DC0C6
:10178000012B59F481E00E94870884E292E00E94D4
:1017900075081092070110920601F0924904E09238
:1017A000480460914804709149046A3B7105A4F4AF
:1017B0008AE494E00E9447046FE070E080E090E0EB
:1017C0000E94C90280914804909149040596909323
:1017D000490480934804E5CF81E080930A0155C015
:1017E000809106038111FCC080910A01882309F4CD
:1017F000F7C08CE294E00E94550380E00E948708C5
:1018000080E392E00E94750800910801109109019F
:101810000130110561F481E00E94870888E192E0BF
:101820000E94750810930701009306010DC0012B5B
:1018300059F481E00E94870884E292E00E947508D2
:101840001092070110920601D0924904C0924804F8
:10185000609148047091490465307105A4F08AE4F0
:1018600094E00E9447046FE070E080E090E00E9406
:10187000C9028091480490914904059790934904C6
:1018800080934804E5CF10920A018CE294E00E9414
:101890005503A6C00130110509F04FC080910A011F
:1018A00081119EC08CE294E00E94550380E00E946A
:1018B00087088DE392E00E9475088091080190915D
:1018C00009018130910561F481E00E94870888E177
:1018D00092E00E94750810930701009306010DC065
:1018E000892B59F481E00E94870884E292E00E94EB
:1018F00075081092070110920601F0924904E092D7
:10190000480460914804709149046A3B71050CF0E9
:1019100063CF8AE494E00E9447046FE070E080E0C7
:1019200090E00E94C9028091480490914904059674
:101930009093490480934804E4CF012B09F050C0F0
:1019400080910A01882309F44BC08CE294E00E9444
:10195000550380E00E9487088DE492E00E9475089C
:1019600000910801109109010130110561F481E035
:101970000E94870888E192E00E9475081093070191
:10198000009306010DC0012B59F481E00E948708E5
:1019900084E292E00E9475081092070110920601FD
:1019A000D0924904C092480460914804709149045F
:1019B000653071050CF467CF8AE494E00E94470417
:1019C0006FE070E080E090E00E94C90280914804DE
:1019D0009091490405979093490480934804E4CF7B
:1019E0008EE593E00E9424078497D1F461E070E0D3
:1019F00080E090E00E94C9028EE593E00E942407F7
:101A00008133910529F4109205031092040308C054
:101A1000C09731F481E090E0909305038093040334
:101A20008091040390910503009709F05FC0109224
:101A300003038091080190910901892B09F05FC08F
:101A40008CE294E00E94550380E00E948708209178
:101A50000A0180910B0190910C01222331F0823018
:101A6000910549F48DE592E010C08230910519F49A
:101A700089E692E00AC08130910519F485E792E089
:101A800004C0892B21F485E892E00E94750881E06A
:101A90000E94870885E992E00E947508F09205018E
:101AA000E092040100910401109105010A3B110527
:101AB00094F4B80185E494E00E9447046FE070E07C
:101AC00080E090E00E94C9020B5F1F4F1093050158
:101AD00000930401E7CF8CE294E00E945503E1E01B
:101AE000F0E0F0930901E093080109C0019739F48F
:101AF0008091080190910901019709F434C1809106
:101B00000303882309F460C08091040390910503C6
:101B1000019709F059C080910603811155C08CE2EC
:101B200094E00E94550380E00E94870820910A01FA
:101B300080910B0190910C01222331F082309105AC
:101B400049F48DE592E010C08230910519F489E6E0
:101B500092E00AC08130910519F485E792E004C053
:101B6000892B21F485E892E00E94750881E00E94AB
:101B7000870885E992E00E947508F0920501E092DD
:101B8000040100910401109105010A3B110594F430
:101B9000B80185E494E00E9447046FE070E080E0C3
:101BA00090E00E94C9020B5F1F4F10930501009344
:101BB0000401E7CF8CE294E00E94550321E030E07D
:101BC000309309012093080120910A0180910201BC
:101BD00090910301222321F08D7F892BA1F103C075
:101BE0000197029780F180910B0190910C01823056
:101BF000910538F48091000190910101019749F419
:101C000022C0029731F48091000190910101892B4B
:101C1000D1F080910801909109018130910541F442
:101C200080910601909107018D7F892B61F098C00A
:101C3000892B09F095C080910601909107010197C9
:101C4000029708F08DC08CE294E00E94550380E07A
:101C50000E94870880910A0100910B0110910C01EC
:101C600081111DC00230110579F489E692E00E94CD
:101C70007508109203011092020181E090E09093A8
:101C80000101809300012CC0012B51F585E892E001
:101C90000E94750810920301109202011DC00230CB
:101CA000110579F48DE592E00E947508E1E0F0E01D
:101CB000F0930301E0930201F0930101E09300012E
:101CC0000FC00130110561F485E792E00E947508AC
:101CD0001093030100930201109201011092000180
:101CE00081E00E94870800910801109109010130EC
:101CF000110549F488E192E00E94750810930701EC
:101D0000009306012DC0012B59F584E292E00E9458
:101D10007508109207011092060122C0213031058A
:101D2000F9F48CE294E00E945503B0920301A09272
:101D3000020160E088E00E94460260E087E00E94C5
:101D4000460260E084E00E94460280910F03909179
:101D500010038536910524F410920D0310920C03A4
:101D60000E94E6072FCC8CE294E00E94550380E0AD
:101D70000E94870820910A0180910B0190910C012B
:101D8000222331F08230910549F48DE592E010C0B4
:101D90008230910519F489E692E00AC081309105FC
:101DA00019F485E792E004C0892B21F485E892E0DC
:101DB0000E947508809103038111A1CE81E00E94E9
:101DC000870882EA92E00E947508D0920501C092CD
:101DD000040100910401109105010530110594F0F2
:101DE000B80185E494E00E9447046FE070E080E071
:101DF00090E00E94C902055011091093050100935B
:101E00000401E7CF81E0809303031092090110924F
:101E1000080175CE109261031092600388EE93E082
:101E2000A0E0B0E08093620390936303A093640307
:101E3000B093650321E131E030935F0320935E03AB
:101E400025EC30E030936B0320936A0324EC30E000
:101E500030936D0320936C0320EC30E030936F03DC
:101E600020936E0321EC30E03093710320937003D4
:101E700022EC30E0309373032093720326EC30E0C1
:101E800030937503209374031092770310927803B4
:101E90001092790310927A031092FE031092FD03C0
:101EA0008093FF0390930004A0930104B093020475
:101EB00083E291E09093FC038093FB0380912B04D9
:101EC0008C30A0F491E0980F90932B0480934A04F7
:101ED00090E0FC01EE0FFF1F8E0F9F1FFC01E95FDA
:101EE000FB4F88EB9BE09283818303C08FEF80934D
:101EF0004A04109249041092480480912B048C30BB
:101F0000A0F491E0980F90932B048093450490E007
:101F1000FC01EE0FFF1F8E0F9F1FFC01E95FFB4FBF
:101F200088EB9BE09283818303C08FEF809345040D
:101F300010922F0410922E0485E391E090932D04CB
:101F400080932C0410923C048FEF80933B041092FA
:101F50003A0410923D048FE38093370410923804C2
:101F600010923904109236041092350484E0809364
:101F70003E0482E080933F0481E08093400480E14E
:101F80008093410480E28093420480E48093430480
:101F900080E88093440440E050E063E08CE294E009
:101FA0000C94B100052E97FB1EF400940E94E90FDB
:101FB00057FD07D00E94041007FC03D04EF40C9488
:101FC000E90F50954095309521953F4F4F4F5F4F0A
:101FD000089590958095709561957F4F8F4F9F4F95
:101FE00008950E942610A59F900DB49F900DA49F68
:101FF000800D911D11240895B7FF0C94F10F0E94DC
:10200000F10F821B930B0895A1E21A2EAA1BBB1B92
:10201000FD010DC0AA1FBB1FEE1FFF1FA217B307B4
:10202000E407F50720F0A21BB30BE40BF50B661FCA
:10203000771F881F991F1A9469F76095709580958E
:1020400090959B01AC01BD01CF010895A29FB00105
:10205000B39FC001A39F700D811D1124911DB29FDC
:10206000700D811D1124911D0895991B79E004C004
:10207000991F961708F0961B881F7A95C9F78095C7
:102080000895EE0FFF1F0590F491E02D099481E073
:0C20900090E0F8940C944C10F894FFCFF2
:10209C000100020005000200010001020000000026
:1020AC00007D074A081507C40746072407380700B0
:1020BC000000005A012A018A0104012201130105C2
:1020CC000100000000C5004A088A018901E803B13B
:1020DC00000302E2014C6F6164696E672E004C6F65
:1020EC006164696E672E2E004C6F6164696E672E99
:1020FC002E2E0020202062793A20486F7373616D78
:10210C00202020002020202020415A5A4F555A20B0
:10211C00202020200020202020202641796F75626D
:10212C002020202020002020202020444144414E0B
:10213C0049202020202000202020264E6F75616130
:10214C006D616E65202020002020204149542044E0
:10215C00414F5544202020200020262041626465F8
:10216C00727261686D616E652000202020445249B6
:10217C004F55434820202020002020202026596144
:10218C007373696E6520202020002020426F756CCF
:10219C0061616C616D6174202020004D31203A200A
:1021AC00436C6F73696E67004D32203A20436C6F3D
:1021BC00736564004D32203A204F70656E65640083
:1021CC004D31203A204F70656E696E67004D31209D
:1021DC003A20436C6F73696E67284629004D312095
:1021EC003A204F70656E696E67284629004D312084
:1021FC003A20436C6F736564004D31203A204F7068
:10220C00656E6564004D31203A20436C6F736564D4
:10221C0020284629004D31203A204F70656E6564A8
:10222C0020284629004D32203A20436C6F73696E8A
:10223C0067004D32203A204F70656E696E67000062
:00000001FF
