:100000000C9462000C948A000C948A000C948A0070
:100010000C948A000C948A000C948A000C948A0038
:100020000C948A000C948A000C948A000C9451065B
:100030000C948A000C948A000C948A000C948A0018
:100040000C942E040C948A000C9416030C94F00269
:100050000C948A000C948A000C948A000C948A00F8
:100060000C9412070C948A00000000002400270062
:100070002A0000000000250028002B0000000000DE
:1000800023002600290004040404040404040202DA
:100090000202020203030303030301020408102007
:1000A0004080010204081020010204081020000012
:1000B0000008000201000003040700000000000027
:1000C00000001B0911241FBECFEFD8E0DEBFCDBF5B
:1000D00012E0A0E0B1E0E2EDFFE102C005900D9278
:1000E000A03BB107D9F724E0A0EBB2E001C01D921C
:1000F000AD34B207E1F710E0C2E6D0E004C02197CA
:10010000FE010E94DC0FC136D107C9F70E94E30946
:100110000C94E70F0C940000FC01538D448D252FA7
:1001200030E0842F90E0821B930B541710F0CF9691
:10013000089501970895FC01918D828D981761F0C3
:10014000828DDF01A80FB11D5D968C91928D9F5F0E
:100150009F73928F90E008958FEF9FEF0895FC01B9
:10016000918D828D981731F0828DE80FF11D858D6C
:1001700090E008958FEF9FEF0895FC01918D228DFF
:10018000892F90E0805C9F4F821B91098F73992784
:100190000895FC01848DDF01A80FB11DA35ABF4F44
:1001A0002C91848D90E001968F739927848FA68976
:1001B000B7892C93A089B1898C9180648C93938D9D
:1001C000848D981306C00288F389E02D80818F7D8D
:1001D00080830895EF92FF920F931F93CF93DF9345
:1001E000EC0181E0888F9B8D8C8D981305C0E88988
:1001F000F989808185FD24C0F62E0B8D10E00F5FFC
:100200001F4F0F731127E02E8C8DE8120CC00FB614
:1002100007FCFACFE889F989808185FFF5CFCE0107
:100220000E94C900F1CF8B8DFE01E80FF11DE35A4A
:10023000FF4FF0820B8FEA89FB898081806207C0C3
:10024000EE89FF896083E889F989808180648083F1
:1002500081E090E0DF91CF911F910F91FF90EF909F
:100260000895CF93DF93EC01888D8823C9F0EA8944
:10027000FB89808185FD05C0A889B9898C9186FD9F
:100280000FC00FB607FCF5CF808185FFF2CFA8899C
:10029000B9898C9185FFEDCFCE010E94C900E7CFCF
:1002A000DF91CF91089580E090E0892B29F00E94A2
:1002B0006B0881110C94000008953FB7F894809169
:1002C000FF0290910003A0910103B091020326B5B3
:1002D000A89B05C02F3F19F00196A11DB11D3FBF7E
:1002E000BA2FA92F982F8827820F911DA11DB11D0C
:1002F000BC01CD0142E0660F771F881F991F4A9508
:10030000D1F7089521E001C0220F6A95EAF7DC01D8
:100310001C962C931C971A965C934E931997ED910B
:10032000FC910484F585E02D60E00994DC01ED91F9
:10033000FC910684F785E02D41E0099581E090E08D
:1003400008950895089585ED8093BC008091BC00C8
:1003500084FDFCCF1092290308954091D202262FEC
:1003600030E0240F311D21323105DCF420912903C6
:100370002430C9F4FC0180E090E0861758F43091F5
:10038000D2022191DC01A055BD4FA30FB11D2C93CA
:100390000196F3CF8091D202680F6093D20280E081
:1003A000089581E0089582E00895089581E090E045
:1003B0003091F9022091F802321710F480E090E0B9
:1003C00091958195910908958091F9029091F80293
:1003D000891730F48F5F8093F90280E090E00895F0
:1003E0008FEF9FEF08958091F80290E02091F9023D
:1003F000821B91090895CF92DF92EF92FF920F93A3
:100400001F93CF93DF937C01262F972F8A01809132
:100410002A03882391F0C62FD72F6E01C40ED51E54
:10042000CC15DD0571F06991D701ED91FC9101903A
:10043000F081E02DC7010995F3CF642F822F0E9430
:10044000AD01C801DF91CF911F910F91FF90EF9007
:10045000DF90CF900895CF93DF931F92CDB7DEB793
:10046000698320912A032223D1F020914D03203269
:1004700040F021E030E0FC013383228380E090E013
:1004800015C080912B03E82FF0E0E45DFC4F9981CB
:1004900090838F5F80932B0380934D0305C061E0B1
:1004A000CE0101960E94AD0181E090E00F90DF91B6
:1004B000CF910895089580E090E008950E94E20FA2
:1004C000FC0123812223B9F09181909569236083F7
:1004D000828191E090932A0380934C0310922B0326
:1004E00010924D038BEE93E00E942B020E94BE08F7
:1004F000282F30E002C020E030E081E090E0232BA4
:1005000011F080E090E00895EF92FF920F931F9317
:10051000CF938C01FC01759684E0C0E060FF02C0BF
:100520009081C92B6695815031968111F7CF41306A
:1005300011F4F8014489F8018585C82BC42B780192
:10054000FEE0EF0EF11CF80162896C2BC7010E94DE
:100550006002F801628960956C23C701CF911F91F9
:100560000F91FF90EF900C9460020F931F93CF9325
:10057000DF93062F0F70423019F440E0602F10C057
:10058000142F262FEC0130E0B90184E075956795B2
:100590008A95E1F7CE010E948402412F602FCE019F
:1005A000DF91CF911F910F910C948402FC018485FF
:1005B0008823A9F0218532852115310519F46111AF
:1005C00006C007C02130310521F4611102C08587C2
:1005D00001C015866585CF010E960C9460020895C2
:1005E0001F920F920FB60F9211242F933F934F93A8
:1005F0005F936F937F938F939F93AF93BF93EF938B
:10060000FF938EE493E00E94C900FF91EF91BF91A8
:10061000AF919F918F917F916F915F914F913F919A
:100620002F910F900FBE0F901F9018951F920F9251
:100630000FB60F9211242F938F939F93EF93FF93F5
:10064000E0915E03F0915F038081E0916403F0919B
:10065000650382FD12C09081809167038F5F8F7365
:1006600020916803821751F0E0916703F0E0E25BAC
:10067000FC4F958F8093670301C08081FF91EF91BC
:100680009F918F912F910F900FBE0F901F901895F3
:10069000833081F028F4813099F08230A1F0089500
:1006A0008730A9F08830B9F08430D1F4809180008F
:1006B0008F7D03C0809180008F77809380000895A4
:1006C00084B58F7702C084B58F7D84BD08958091F5
:1006D000B0008F7703C08091B0008F7D8093B00011
:1006E00008951F93CF93DF93282F30E0F901E2554F
:1006F000FF4F8491F901E656FF4FD491F901EA5773
:10070000FF4FC491CC23C9F0162F81110E944803DA
:10071000EC2FF0E0EE0FFF1FEE58FF4FA591B491C4
:100720008FB7F894111105C09C91ED2FE095E92346
:1007300002C0EC91ED2BEC938FBFDF91CF911F9115
:100740000895CF93DF9390E0FC01E656FF4F24918C
:10075000FC01EA57FF4F8491882361F190E0880FF4
:10076000991FFC01E859FF4FC591D491FC01EE5847
:10077000FF4FA591B491611109C09FB7F89488818A
:10078000209582238883EC912E230BC0623061F484
:100790009FB7F8943881822F809583238883EC91CA
:1007A0002E2B2C939FBF06C08FB7F894E8812E2B79
:1007B00028838FBFDF91CF9108958E3008F08E503F
:1007C0008770806480937C0080917A00806480933D
:1007D0007A0080917A0086FDFCCF8091780020918C
:1007E000790090E0922B08958F929F92AF92BF92E2
:1007F000CF92DF92EF92FF926B017C010E945D012C
:100800004B015C01C114D104E104F104F1F00E9438
:100810005D01DC01CB0188199909AA09BB09883E51
:100820009340A105B10570F321E0C21AD108E10897
:10083000F10888EE880E83E0981EA11CB11CC1143B
:10084000D104E104F10419F7DDCFFF90EF90DF90C0
:10085000CF90BF90AF909F908F9008951F920F926E
:100860000FB60F9211242F933F938F939F93AF93C3
:10087000BF938091FB029091FC02A091FD02B09188
:10088000FE023091FA0223E0230F2D3720F4019667
:10089000A11DB11D05C026E8230F0296A11DB11DA3
:1008A0002093FA028093FB029093FC02A093FD0236
:1008B000B093FE028091FF0290910003A09101038A
:1008C000B09102030196A11DB11D8093FF02909388
:1008D0000003A0930103B0930203BF91AF919F91D6
:1008E0008F913F912F910F900FBE0F901F901895F1
:1008F000DC01ED91FC910684F785E02D40E0099440
:1009000061E00E9478048BE39FE10197F1F708957D
:100910000F931F93CF93DF93EC01423018F08C813B
:1009200088608C834F836887222329F0413019F433
:100930008C8184608C8364E670E080E090E00E94AB
:10094000F4036C8164FD31C0E881F9810684F78588
:10095000E02D42E063E0CE0109958BE496E4019737
:10096000F1F7E881F9810684F785E02D42E063E044
:10097000CE01099503E512E0C8010197F1F7E8817E
:10098000F9810684F785E02D42E063E0CE01099508
:10099000C8010197F1F7E881F9810684F785E02D18
:1009A00042E062E0CE01099517C06062CE010E946C
:1009B00078048BE496E40197F1F76C816062CE01D4
:1009C0000E94780403E512E0C8010197F1F76C81F9
:1009D0006062CE010E947804C8010197F1F76C8132
:1009E0006062CE010E9478048BEE90E00197F1F7EF
:1009F00084E08D836CE0CE010E947804CE010E94D9
:100A0000800482E08E8366E0CE010E947804E88153
:100A1000F9810484F585E02D6FEFCE01DF91CF9150
:100A20001F910F910994EF92FF920F931F93CF9311
:100A3000DF93EC01062FF42EE22E8B85888B10922B
:100A4000F9021092F80210922B0310924D031092AB
:100A5000290311E0109328031092030361E082E15F
:100A60000E94710361E083E10E9471038091B900EB
:100A70008E7F8093B9008091B9008D7F8093B900FB
:100A800088E48093B80085E48093BC008889109343
:100A90002A0380934C0310922B0310924D030E9463
:100AA000BE0891E0811190E0998B992329F08BEE9B
:100AB00093E00E94E4018E878989882339F01F869C
:100AC0001C8260E0CE010E960E9460022E2D4F2DFA
:100AD000602FCE01DF91CF911F910F91FF90EF908A
:100AE0000C948804CF92DF92EF92FF92CF93DF9322
:100AF000EC01603282E078070CF03DC077FD06C063
:100B0000653B71052CF064EB70E002C060E070E0C2
:100B1000898128E830E06901C81AD10887FDD3949B
:100B2000CC0CDD1CCC0CDD1C0D2C000CEE08FF08E1
:100B30008A8128E532E0281B310987FD3395220F91
:100B4000331F220F331FC901330FAA0BBB0B9C01AC
:100B5000AD012C193D094E095F09DB010E94970F79
:100B600024EB30E040E050E00E946D0FC20ED31E37
:100B7000E41EF51EB60188818C3080F5998148E825
:100B800050E0491B510997FD5395440F551F440FE1
:100B9000551F6417750784F09A8128E532E0291BF8
:100BA000310997FD3395220F331F220F331FAB01FD
:100BB000261737070CF4A90142505109440F551F5D
:100BC0002FB7F89490E0FC01EE0FFF1F8E0F9F1FD0
:100BD000FC01E950FC4F528341832FBFDF91CF913D
:100BE000FF90EF90DF90CF9008951F93CF93DF9306
:100BF000EC01162F88818C3008F04EC061E0812F07
:100C00000E94A1038881E82FF0E09F01220F331F8B
:100C1000E20FF31FE950FC4F1F739081907C192B5A
:100C2000108319821A826CE00E94D00F9CE0899F89
:100C3000B001112440E050E09A01260F371FF9015E
:100C4000EE0FFF1F2E0F3F1FF901E950FC4F90815F
:100C500096FD16C04F5F5F4F4C30510569F781110B
:100C60000FC01092800082E0809381001092850076
:100C700010928400B19A80916F00826080936F001F
:100C8000E881F0E0CF01880F991FE80FF91FE950C4
:100C9000FC4F8081806480838881DF91CF911F9198
:100CA00008951F920F920FB60F9211242F933F9326
:100CB0004F935F936F937F938F939F93AF93BF9364
:100CC000EF93FF938091F70287FF05C01092850094
:100CD000109284001BC02091F702022E000C330BEF
:100CE00080911B0490E02817390784F48091F70263
:100CF000082E000C990BFC01EE0FFF1F8E0F9F1F9B
:100D0000FC01E950FC4F808186FD15C08091F702FF
:100D10008F5F8093F7022091F702022E000C330BB5
:100D200080911B0490E028173907C4F48091F702E2
:100D30008C3064F113C08091F702082E000C990BDF
:100D4000FC01EE0FFF1F8E0F9F1FFC01E950FC4FAF
:100D5000808160E08F730E947103D8CF80918400FE
:100D600090918500049680349C4918F480E49CE9B5
:100D700005C080918400909185000496909389002D
:100D8000809388008FEF8093F7023BC0209184000E
:100D9000309185008091F702082E000C990BFC0120
:100DA000EE0FFF1F8E0F9F1FFC01E950FC4F81814A
:100DB0009281820F931F9093890080938800809185
:100DC000F702082E000C990BFC01EE0FFF1F8E0F8F
:100DD0009F1FFC01E950FC4F808186FF12C080916B
:100DE000F702082E000C990BFC01EE0FFF1F8E0F6F
:100DF0009F1FFC01E950FC4F808161E08F730E94CE
:100E00007103FF91EF91BF91AF919F918F917F916E
:100E10006F915F914F913F912F910F900FBE0F9067
:100E20001F9018951F920F920FB60F9211242F93B7
:100E30003F934F935F936F937F938F939F93AF9362
:100E4000BF93EF93FF938091B900887F803609F4B8
:100E50009CC068F5883209F45BC090F4803109F4D5
:100E600054C038F4882309F4F6C0883009F44DC022
:100E7000F6C0883109F44CC0803209F45DC0EFC07F
:100E8000803409F468C048F4803309F455C08833CD
:100E900009F0E5C080932703D8C0803509F44FC01E
:100EA000883509F45DC0883409F0D9C0D6C08839C6
:100EB00009F4C7C0A8F4883709F467C038F4883645
:100EC00009F463C0803709F460C0C9C0883809F4E8
:100ED000B8C0803909F45FC0803809F0C0C05BC079
:100EE000803B09F486C038F4803A09F466C0883A39
:100EF00009F47FC0B4C0803C09F4A7C0883C09F461
:100F0000A4C0883B09F48AC0AAC08091040310C021
:100F10009091260380912503981770F5E0912603A0
:100F200081E08E0F80932603F0E0EB5FFC4F808121
:100F30008093BB0085EC86C0809327038EC0E09130
:100F4000260381E08E0F809326038091BB00F0E0A2
:100F5000EB5FFC4F808390912603809125036EC048
:100F6000E091260381E08E0F809326038091BB00E1
:100F7000F0E0EB5FFC4F80838091280381116DC00E
:100F800081E08093030384EA61C083E080932903B6
:100F90001092F602CFCF8091F602803208F051C055
:100FA000E091F60281E08E0F8093F6028091BB0003
:100FB000F0E0EA52FD4F8083BDCF85EC8093BC000A
:100FC000109229038091F602803230F4E091F6020B
:100FD000F0E0EA52FD4F10826091F60270E0E0917D
:100FE000D402F091D50286ED92E009951092F602B6
:100FF00036C084E0809329031092D3021092D2026B
:10100000E091D002F091D10209958091D202811134
:1010100005C081E08093D2021092B002E091D30229
:1010200081E08E0F8093D302F0E0E055FD4F808188
:101030008093BB009091D3028091D202981708F45C
:1010400079CF85E88093BC000AC085EC8093BC0012
:101050001092290304C0109227030E94A301FF915C
:10106000EF91BF91AF919F918F917F916F915F9120
:101070004F913F912F910F900FBE0F901F90189599
:10108000CF92DF92EF92FF920F931F93CF93DF9354
:101090006C017A018B01C0E0D0E0CE15DF0589F04C
:1010A000D8016D918D01D601ED91FC910190F081F7
:1010B000E02DC6010995892B11F47E0102C021960D
:1010C000ECCFC701DF91CF911F910F91FF90EF906F
:1010D000DF90CF9008958EE493E00E94BD0021E060
:1010E000892B09F420E0822F0895009769F0FC0114
:1010F00001900020E9F73197AF01481B590BBC0163
:101100008CE294E00C94400880E090E00895CF9346
:10111000DF93CDB7DEB728970FB6F894DEBF0FBECA
:10112000CDBF1D8290E49E8324E12F8324E5288790
:1011300019829A8390E19B8390E59C8320913304EC
:10114000821710F08FEF820F3091340490E0FE018F
:10115000E80FF91F303121F4243011F4618101C00E
:10116000658160688CE294E028960FB6F894DEBF43
:101170000FBECDBFDF91CF910C94780420914D0329
:1011800090914C03213208F04AC0809129038111CB
:10119000FCCF32E03093290331E0309328033FEF56
:1011A000309327031092260320932503ACE2B3E08B
:1011B00045E053E0FA013E2F341B321718F43D91FD
:1011C0003193F9CF1092040320910403990F922BCD
:1011D0009093040390910303913061F41092030300
:1011E000909104039093BB009091BC0093FDF8CFC5
:1011F00095EC01C095EE9093BC009091290392303C
:10120000E1F3909127039F3F79F08091270380328B
:1012100041F080912703803331F084E005C081E004
:1012200003C082E001C083E010922B0310924D03B3
:1012300010922A030895109251031092500388EEE1
:1012400093E0A0E0B0E08093520390935303A09307
:101250005403B093550321E131E030934F032093C1
:101260004E0325EC30E030935B0320935A0324ECCB
:1012700030E030935D0320935C0320EC30E030934A
:101280005F0320935E0321EC30E0309361032093F1
:10129000600322EC30E0309363032093620326EC7A
:1012A00030E030936503209364031092670310923B
:1012B00068031092690310926A031092EE03109271
:1012C000ED038093EF039093F003A093F103B093A9
:1012D000F20383E291E09093EC038093EB0380911F
:1012E0001B048C30A0F491E0980F90931B04809322
:1012F0004A0490E0FC01EE0FFF1F8E0F9F1FFC01C0
:10130000E950FC4F88EB9BE09283818303C08FEF11
:1013100080934A04109249041092480480911B045F
:101320008C30A0F491E0980F90931B0480934504B7
:1013300090E0FC01EE0FFF1F8E0F9F1FFC01E95094
:10134000FC4F88EB9BE09283818303C08FEF8093F7
:10135000450410922F0410922E0485E391E090939F
:101360002D0480932C0410923C048FEF80933B0457
:1013700010923A0410923D048FE380933704109248
:10138000380410923904109236041092350484E027
:1013900080933E0482E080933F0481E08093400488
:1013A00080E18093410480E28093420480E4809352
:1013B000430480E88093440440E050E063E08CE222
:1013C00094E00C948201CF93DF9300D0CDB7DEB7C9
:1013D000789484B5826084BD84B5816084BD85B510
:1013E000826085BD85B5816085BD80916E0081601C
:1013F00080936E00109281008091810082608093C2
:1014000081008091810081608093810080918000C3
:101410008160809380008091B10084608093B100EE
:101420008091B00081608093B00080917A008460E8
:1014300080937A0080917A00826080937A00809114
:101440007A00816080937A0080917A00806880932E
:101450007A001092C100E0915E03F0915F0382E098
:101460008083E0915A03F0915B031082E0915C036A
:10147000F0915D0380E1808310926603E091620346
:10148000F091630386E08083E0916003F091610353
:10149000808180618083E0916003F09161038081AD
:1014A00088608083E0916003F091610380818068AF
:1014B0008083E0916003F091610380818F7D808360
:1014C00060E08EE00E94A10360E081E10E94A10340
:1014D00063E070E08AE494E00E94F50585E090E026
:1014E0009093490480934804009148041091490462
:1014F0000A3B110594F4B8018AE494E00E94720555
:101500006FE070E080E090E00E94F4030B5F1F4FFB
:101510001093490400934804E7CF65E070E085E448
:1015200094E00E94F50585E090E09093050180939A
:10153000040100910401109105010A3B110594F486
:10154000B80185E494E00E9472056FE070E080E0ED
:1015500090E00E94F4030B5F1F4F1093050100936E
:101560000401E7CF62E082E00E94A10360E08FE027
:101570000E94A10360E080E10E94A10361E084E099
:101580000E94A10361E087E00E94A10361E088E07E
:101590000E94A10360E088E00E94710360E087E0A0
:1015A0000E94710360E084E00E94710361E089E0C1
:1015B0000E94A10361E08CE00E94A10361E089E048
:1015C0000E94710361E08CE00E94710320E042E020
:1015D00060E18CE294E00E94130580E00E9487089D
:1015E00003E010E085E491E00E94750867E771E090
:1015F00080E090E00E94F4038CE294E00E9480047A
:101600008EE491E00E94750867E771E080E090E069
:101610000E94F4038CE294E00E94800488E591E04B
:101620000E94750867E771E080E090E00E94F40393
:101630008CE294E00E9480040150110999F680E048
:101640000E94870883E691E00E94750881E00E946D
:10165000870884E791E00E94750868EE73E080E0F7
:1016600090E00E94F4038CE294E00E94800480E009
:101670000E94870885E891E00E94750881E00E9439
:10168000870886E991E00E94750868EE73E080E0C3
:1016900090E00E94F4038CE294E00E94800480E0D9
:1016A0000E94870887EA91E00E94750881E00E9405
:1016B000870888EB91E00E94750868EE73E080E08F
:1016C00090E00E94F4038CE294E00E94800480E0A9
:1016D0000E94870889EC91E00E94750881E00E94D1
:1016E00087088AED91E00E94750868EE73E080E05B
:1016F00090E00E94F4038CE294E00E94800480E079
:101700000E94870889EE91E00E94750881E00E949E
:1017100087088AEF91E00E94750868EE73E080E028
:1017200090E00E94F4038CE294E00E94800490EB2D
:10173000492E90E0592E2CE9622E20E0722E38E8D6
:10174000832E30E0932E42E0A42EB12C59EBE52EEF
:10175000F12C65E0C62ED12C8FE00E94DD038C01B8
:1017600090932B0480932A0480E10E94DD031C01E6
:101770009093290480932804F2018491F3019491B9
:10178000F40124912223C9F0882331F02A8399831C
:101790000E94480399812A81E22FF0E0EE0FFF1F9B
:1017A000E458FF4FA591B4918C91982331E020E04B
:1017B00009F430E0832F922F02C080E090E0F1E046
:1017C0008F27282F21702093270420912504309102
:1017D00026042115310509F05BC32CEB221622E00B
:1017E000320634F0E1E0F0E0F0932604E0932504C3
:1017F000053611053CF421E030E030930C012093D4
:101800000B010EC00C3B12402CF010920C011092F8
:101810000B0106C0892B21F0B0920C01A0920B01A4
:101820008EE00E94DD038C529140909324048093BB
:101830002304181619061CF01092220403C081E03C
:101840008093220481E10E94DD038C5291409093A9
:10185000210480932004181619061CF010921F040E
:1018600003C081E080931F0400910B0110910C01D3
:1018700060E00230110531F488E00E94710361E0FC
:1018800087E005C087E00E94710361E088E00E9464
:10189000710380911D0490911E04009731F460E063
:1018A00089E00E94710361E007C0019741F461E0A3
:1018B00089E00E94710360E08CE00E9471030230B5
:1018C000110509F0ADC080912204882309F450C0AD
:1018D00080910A0181114CC08CE294E00E94800446
:1018E00080E00E9487088BE092E00E9475080091DA
:1018F0000801109109010130110561F481E00E9495
:10190000870888E192E00E94750810930701009310
:1019100006010DC0012B59F481E00E94870884E282
:1019200092E00E9475081092070110920601D09271
:101930004904C092480400914804109149040A3BAC
:10194000110594F4B8018AE494E00E9472056FE0F6
:1019500070E080E090E00E94F4030B5F1F4F109353
:10196000490400934804E7CF81E080930A0153C003
:1019700080911F048111F6C080910A01882309F427
:10198000F1C08CE294E00E94800480E00E9487080D
:1019900080E392E00E94750800910801109109010E
:1019A0000130110561F481E00E94870888E192E02E
:1019B0000E94750810930701009306010DC0012BCA
:1019C00059F481E00E94870884E292E00E94750841
:1019D0001092070110920601F0924904E092480427
:1019E00000914804109149040530110594F0B801A4
:1019F0008AE494E00E9472056FE070E080E090E07D
:101A00000E94F403055011091093490400934804FF
:101A1000E7CF10920A018CE294E00E948004A2C0F9
:101A20000130110509F04DC080910A0181119AC061
:101A30008CE294E00E94800480E00E9487088DE39D
:101A400092E00E947508809108019091090181300F
:101A5000910561F481E00E94870888E192E00E948C
:101A6000750810930701009306010DC0892B59F4E6
:101A700081E00E94870884E292E00E94750810923B
:101A8000070110920601D0924904C09248040091C7
:101A90004804109149040A3B11050CF065CFB801C8
:101AA0008AE494E00E9472056FE070E080E090E0CC
:101AB0000E94F4030B5F1F4F1093490400934804E6
:101AC000E6CF012B09F04EC080910A01882309F46A
:101AD00049C08CE294E00E94800480E00E94870864
:101AE0008DE492E00E9475080091080110910901AF
:101AF0000130110561F481E00E94870888E192E0DD
:101B00000E94750810930701009306010DC0012B78
:101B100059F481E00E94870884E292E00E947508EF
:101B20001092070110920601F0924904E0924804D5
:101B30000091480410914904053011050CF469CF57
:101B4000B8018AE494E00E9472056FE070E080E0E2
:101B500090E00E94F403055011091093490400938A
:101B60004804E6CF8EE493E00E949B008497D1F472
:101B700061E070E080E090E00E94F4038EE493E086
:101B80000E949B008133910529F410921E0410924B
:101B90001D0408C0C09731F481E090E090931E04CA
:101BA00080931D0480911D0490911E04009709F0FC
:101BB0005DC08091080190910901892B09F0BEC098
:101BC0008CE294E00E94800480E00E9487082091CB
:101BD0000A0180910B0190910C01222331F0823097
:101BE000910549F48DE592E010C08230910519F419
:101BF00089E692E00AC08130910519F485E792E008
:101C000004C0892B21F485E892E00E94750881E0E8
:101C10000E94870885E992E00E947508D09205012C
:101C2000C092040100910401109105010A3B1105C5
:101C300094F4B80185E494E00E9472056FE070E0CE
:101C400080E090E00E94F4030B5F1F4F10930501AA
:101C500000930401E7CF8CE294E00E948004E1E06D
:101C6000F0E0F0930901E093080168C0019709F0E2
:101C700065C08091080190910901019709F05EC04B
:101C80008CE294E00E94800480E00E94870820910A
:101C90000A0180910B0190910C01222331F08230D6
:101CA000910549F48DE592E010C08230910519F458
:101CB00089E692E00AC08130910519F485E792E047
:101CC00004C0892B21F485E892E00E947508809178
:101CD0001C0481112BC081E00E94870882EA92E0F7
:101CE0000E947508F0920501E09204010091040140
:101CF000109105010530110594F0B80185E494E0D8
:101D00000E9472056FE070E080E090E00E94F403B2
:101D1000055011091093050100930401E7CF81E0FC
:101D200080931C04109209011092080180911D04F7
:101D300090911E04892B11F410921C0420910A0129
:101D40008091020190910301222321F08D7F892B44
:101D5000A1F103C00197029780F180910B0190914E
:101D60000C018230910538F48091000190910101BD
:101D7000019749F422C0029731F4809100019091BB
:101D80000101892BD1F080910801909109018130E6
:101D9000910541F480910601909107018D7F892B77
:101DA00061F098C0892B09F095C08091060190914F
:101DB00007010197029708F08DC08CE294E00E9421
:101DC000800480E00E94870880910A0100910B0145
:101DD00010910C0181111DC00230110579F489E6C2
:101DE00092E00E947508109203011092020121E016
:101DF00030E030930101209300012CC0012B51F5FC
:101E000085E892E00E947508109203011092020189
:101E10001DC00230110579F48DE592E00E9475082D
:101E200081E090E09093030180930201909301017F
:101E3000809300010FC00130110561F485E792E045
:101E40000E94750810930301009302011092010192
:101E50001092000181E00E94870800910801109112
:101E600009010130110549F488E192E00E947508EA
:101E700010930701009306012DC0012B59F584E250
:101E800092E00E947508109207011092060122C08C
:101E900021303105F9F48CE294E00E948004B09284
:101EA0000301A092020160E088E00E94710360E0FB
:101EB00087E00E94710360E084E00E9471038091DA
:101EC0002804909129048536910524F41092260463
:101ED000109225040E9453013FCC052E97FB1EF45F
:101EE00000940E94840F57FD07D00E949F0F07FCAB
:101EF00003D04EF40C94840F509540953095219565
:101F00003F4F4F4F5F4F0895909580957095619525
:101F10007F4F8F4F9F4F08950E94C10FA59F900D37
:101F2000B49F900DA49F800D911D11240895B7FFBB
:101F30000C948C0F0E948C0F821B930B0895A1E2CE
:101F40001A2EAA1BBB1BFD010DC0AA1FBB1FEE1F33
:101F5000FF1FA217B307E407F50720F0A21BB30B7E
:101F6000E40BF50B661F771F881F991F1A9469F7FA
:101F700060957095809590959B01AC01BD01CF0156
:101F80000895A29FB001B39FC001A39F700D811D52
:101F90001124911DB29F700D811D1124911D089572
:101FA000991B79E004C0991F961708F0961B881FAB
:101FB0007A95C9F780950895EE0FFF1F0590F4916B
:101FC000E02D099481E090E0F8940C94E70FF894E8
:021FD000FFCF41
:101FD20001000200050002000100010200000000F1
:101FE20000EA0040088C003101BD009B00AF0000F8
:101FF2000000002B02FB015B02D501F301E401D6D4
:102002000100000000960140085B025A021305829B
:1020120001D602B5024C6F6164696E672E004C6F87
:102022006164696E672E2E004C6F6164696E672E63
:102032002E2E0020202062793A20486F7373616D42
:10204200202020002020202020415A5A4F555A207B
:10205200202020200020202020202641796F756238
:102062002020202020002020202020444144414ED6
:1020720049202020202000202020264E6F756161FB
:102082006D616E65202020002020204149542044AB
:10209200414F5544202020200020262041626465C3
:1020A200727261686D616E65200020202044524981
:1020B2004F5543482020202000202020202659610F
:1020C2007373696E6520202020002020426F756C9A
:1020D20061616C616D6174202020004D31203A20D5
:1020E200436C6F73696E67004D32203A20436C6F08
:1020F200736564004D32203A204F70656E6564004E
:102102004D31203A204F70656E696E67004D312067
:102112003A20436C6F73696E67284629004D31205F
:102122003A204F70656E696E67284629004D31204E
:102132003A20436C6F736564004D31203A204F7032
:10214200656E6564004D31203A20436C6F7365649F
:1021520020284629004D31203A204F70656E656473
:1021620020284629004D32203A20436C6F73696E55
:1021720067004D32203A204F70656E696E6700002D
:107E0000112484B714BE81FFF0D085E080938100F7
:107E100082E08093C00088E18093C10086E0809377
:107E2000C20080E18093C4008EE0C9D0259A86E02C
:107E300020E33CEF91E0309385002093840096BBD3
:107E4000B09BFECF1D9AA8958150A9F7CC24DD24C4
:107E500088248394B5E0AB2EA1E19A2EF3E0BF2EE7
:107E6000A2D0813461F49FD0082FAFD0023811F036
:107E7000013811F484E001C083E08DD089C08234E0
:107E800011F484E103C0853419F485E0A6D080C0E4
:107E9000853579F488D0E82EFF2485D0082F10E0AE
:107EA000102F00270E291F29000F111F8ED06801E7
:107EB0006FC0863521F484E090D080E0DECF843638
:107EC00009F040C070D06FD0082F6DD080E0C81688
:107ED00080E7D80618F4F601B7BEE895C0E0D1E017
:107EE00062D089930C17E1F7F0E0CF16F0E7DF06D8
:107EF00018F0F601B7BEE89568D007B600FCFDCFD4
:107F0000A601A0E0B1E02C9130E011968C91119780
:107F100090E0982F8827822B932B1296FA010C0160
:107F200087BEE89511244E5F5F4FF1E0A038BF0790
:107F300051F7F601A7BEE89507B600FCFDCF97BE46
:107F4000E89526C08437B1F42ED02DD0F82E2BD052
:107F50003CD0F601EF2C8F010F5F1F4F84911BD097
:107F6000EA94F801C1F70894C11CD11CFA94CF0C13
:107F7000D11C0EC0853739F428D08EE10CD085E9AC
:107F80000AD08FE07ACF813511F488E018D01DD067
:107F900080E101D065CF982F8091C00085FFFCCF94
:107FA0009093C60008958091C00087FFFCCF809118
:107FB000C00084FD01C0A8958091C6000895E0E648
:107FC000F0E098E1908380830895EDDF803219F02E
:107FD00088E0F5DFFFCF84E1DECF1F93182FE3DFCA
:107FE0001150E9F7F2DF1F91089580E0E8DFEE27F6
:047FF000FF270994CA
:027FFE00040479
:0400000300007E007B
:00000001FF