:100000000C9462000C948A000C948A000C948A0070
:100010000C948A000C948A000C948A000C948A0038
:100020000C948A000C948A000C948A000C942B0681
:100030000C948A000C948A000C948A000C948A0018
:100040000C9408040C948A000C9466020C94F80832
:100050000C948A000C948A000C948A000C948A00F8
:100060000C94EC060C948A00000000002400270089
:100070002A0000000000250028002B0000000000DE
:1000800023002600290004040404040404040202DA
:100090000202020203030303030301020408102007
:1000A0004080010204081020010204081020000012
:1000B0000008000201000003040700000000000027
:1000C00000001E0911241FBECFEFD8E0DEBFCDBF58
:1000D00012E0A0E0B1E0E4E1FFE102C005900D9282
:1000E000A031B107D9F723E0A0E1B2E001C01D9231
:1000F000AC3AB207E1F710E0C2E6D0E004C02197C5
:10010000FE010E947D0FC136D107C9F70E94E609A2
:100110000C94880F0C940000FC01538D448D252F06
:1001200030E0842F90E0821B930B541710F0CF9691
:10013000089501970895FC01918D828D981761F0C3
:10014000828DDF01A80FB11D5D968C91928D9F5F0E
:100150009F73928F90E008958FEF9FEF0895FC01B9
:10016000918D828D981731F0828DE80FF11D858D6C
:1001700090E008958FEF9FEF0895FC01918D228DFF
:10018000892F90E0805C9F4F821B91098F73992784
:10019000089580E090E0892B29F00E9445088111A4
:1001A0000C94000008953FB7F89480915F029091FD
:1001B0006002A0916102B091620226B5A89B05C0C1
:1001C0002F3F19F00196A11DB11D3FBFBA2FA92FD6
:1001D000982F8827820F911DA11DB11DBC01CD0153
:1001E00042E0660F771F881F991F4A95D1F708953F
:1001F00021E001C0220F6A95EAF7DC011C962C93DE
:100200001C971A965C934E931997ED91FC91048478
:10021000F585E02D60E00994DC01ED91FC91068408
:10022000F785E02D41E0099581E090E0089508957B
:10023000089585ED8093BC008091BC0084FDFCCFC7
:1002400010928902089540913202262F30E0240F47
:10025000311D21323105DCF4209189022430C9F4AA
:10026000FC0180E090E0861758F430913202219131
:10027000DC01A05FBD4FA30FB11D2C930196F3CFFE
:1002800080913202680F6093320280E0089581E02D
:10029000089582E00895089581E090E03091590238
:1002A00020915802321710F480E090E091958195EA
:1002B000910908958091590290915802891730F45C
:1002C0008F5F8093590280E090E008958FEF9FEF59
:1002D00008958091580290E020915902821B910963
:1002E0000895CF92DF92EF92FF920F931F93CF93D7
:1002F000DF937C01262F972F8A0180918A02882321
:1003000091F0C62FD72F6E01C40ED51ECC15DD057A
:1003100071F06991D701ED91FC910190F081E02D90
:10032000C7010995F3CF642F822F0E942301C801D2
:10033000DF91CF911F910F91FF90EF90DF90CF90C1
:100340000895CF93DF931F92CDB7DEB769832091D5
:100350008A022223D1F02091AD02203240F021E028
:1003600030E0FC013383228380E090E015C080916F
:100370008B02E82FF0E0E457FD4F998190838F5F67
:1003800080938B028093AD0205C061E0CE0101969F
:100390000E94230181E090E00F90DF91CF910895BA
:1003A000089580E090E008950E94830FFC0123816E
:1003B0002223B9F09181909569236083828191E035
:1003C00090938A028093AC0210928B021092AD023D
:1003D0008BE493E00E94A1010E949B08282F30E04B
:1003E00002C020E030E081E090E0232B11F080E0BB
:1003F00090E00895EF92FF920F931F93CF938C019B
:10040000FC01759684E0C0E060FF02C09081C92BBA
:100410006695815031968111F7CF413011F4F80182
:100420004489F8018585C82BC42B7801FEE0EF0EC6
:10043000F11CF80162896C2BC7010E94D601F801FA
:10044000628960956C23C701CF911F910F91FF9036
:10045000EF900C94D6010F931F93CF93DF93062F49
:100460000F70423019F440E0602F10C0142F262F77
:10047000EC0130E0B90184E0759567958A95E1F764
:10048000CE010E94FA01412F602FCE01DF91CF9162
:100490001F910F910C94FA01FC0184858823A9F027
:1004A000218532852115310519F4611106C007C077
:1004B0002130310521F4611102C0858701C0158604
:1004C0006585CF010E960C94D60108951F920F9268
:1004D0000FB60F9211242F938F939F93EF93FF9357
:1004E000E091BE02F091BF028081E091C402F091E0
:1004F000C50282FD12C090818091C7028F5F8F7309
:100500002091C802821751F0E091C702F0E0E25555
:10051000FD4F958F8093C70201C08081FF91EF91BD
:100520009F918F912F910F900FBE0F901F90189554
:10053000FC01848DDF01A80FB11DA35ABF4F2C9180
:10054000848D90E001968F739927848FA689B7894F
:100550002C93A089B1898C9180648C93938D848D28
:10056000981306C00288F389E02D80818F7D8083F7
:100570000895EF92FF920F931F93CF93DF93EC01B7
:1005800081E0888F9B8D8C8D981305C0E889F9894F
:10059000808185FD24C0F62E0B8D10E00F5F1F4F6C
:1005A0000F731127E02E8C8DE8120CC00FB607FCDC
:1005B000FACFE889F989808185FFF5CFCE010E94C5
:1005C0009802F1CF8B8DFE01E80FF11DE35AFF4F2A
:1005D000F0820B8FEA89FB898081806207C0EE89F7
:1005E000FF896083E889F98980818064808381E064
:1005F00090E0DF91CF911F910F91FF90EF900895C0
:10060000CF93DF93EC01888D8823C9F0EA89FB89B9
:10061000808185FD05C0A889B9898C9186FD0FC0B0
:100620000FB607FCF5CF808185FFF2CFA889B98985
:100630008C9185FFEDCFCE010E949802E7CFDF912C
:10064000CF910895833081F028F4813099F0823081
:10065000A1F008958730A9F08830B9F08430D1F442
:10066000809180008F7D03C0809180008F77809380
:100670008000089584B58F7702C084B58F7D84BDD6
:1006800008958091B0008F7703C08091B0008F7D76
:100690008093B00008951F93CF93DF93282F30E00D
:1006A000F901E255FF4F8491F901E656FF4FD491CD
:1006B000F901EA57FF4FC491CC23C9F0162F8111DD
:1006C0000E942203EC2FF0E0EE0FFF1FEE58FF4FC9
:1006D000A591B4918FB7F894111105C09C91ED2F9D
:1006E000E095E92302C0EC91ED2BEC938FBFDF91F5
:1006F000CF911F910895CF93DF9390E0FC01E656D0
:10070000FF4F2491FC01EA57FF4F8491882361F148
:1007100090E0880F991FFC01E859FF4FC591D491D3
:10072000FC01EE58FF4FA591B491611109C09FB72C
:10073000F8948881209582238883EC912E230BC026
:10074000623061F49FB7F8943881822F80958323BB
:100750008883EC912E2B2C939FBF06C08FB7F89403
:10076000E8812E2B28838FBFDF91CF9108958E30A3
:1007700008F08E508770806480937C0080917A00AE
:10078000806480937A0080917A0086FDFCCF80910E
:1007900078002091790090E0922B08958F929F929B
:1007A000AF92BF92CF92DF92EF92FF926B017C01EA
:1007B0000E94D3004B015C01C114D104E104F10497
:1007C000F1F00E94D300DC01CB0188199909AA0934
:1007D000BB09883E9340A105B10570F321E0C21A20
:1007E000D108E108F10888EE880E83E0981EA11C6C
:1007F000B11CC114D104E104F10419F7DDCFFF905D
:10080000EF90DF90CF90BF90AF909F908F90089522
:100810001F920F920FB60F9211242F933F938F9335
:100820009F93AF93BF9380915B0290915C02A091E4
:100830005D02B0915E0230915A0223E0230F2D3702
:1008400020F40196A11DB11D05C026E8230F0296D4
:10085000A11DB11D20935A0280935B0290935C020C
:10086000A0935D02B0935E0280915F02909160025E
:10087000A0916102B09162020196A11DB11D809309
:100880005F0290936002A0936102B0936202BF91F5
:10089000AF919F918F913F912F910F900FBE0F902D
:1008A0001F901895DC01ED91FC910684F785E02DF1
:1008B00040E0099461E00E9452048BE39FE10197BC
:1008C000F1F708950F931F93CF93DF93EC0142301C
:1008D00018F08C8188608C834F836887222329F0ED
:1008E000413019F48C8184608C8364E670E080E090
:1008F00090E00E94CE036C8164FD31C0E881F981F3
:100900000684F785E02D42E063E0CE0109958BE493
:1009100096E40197F1F7E881F9810684F785E02DE7
:1009200042E063E0CE01099503E512E0C8010197BA
:10093000F1F7E881F9810684F785E02D42E063E074
:10094000CE010995C8010197F1F7E881F981068484
:10095000F785E02D42E062E0CE01099517C06062A4
:10096000CE010E9452048BE496E40197F1F76C816A
:100970006062CE010E94520403E512E0C8010197B3
:10098000F1F76C816062CE010E945204C8010197A8
:10099000F1F76C816062CE010E9452048BEE90E010
:1009A0000197F1F784E08D836CE0CE010E94520440
:1009B000CE010E945A0482E08E8366E0CE010E943E
:1009C0005204E881F9810484F585E02D6FEFCE01B2
:1009D000DF91CF911F910F910994EF92FF920F93A6
:1009E0001F93CF93DF93EC01062FF42EE22E8B851D
:1009F000888B109259021092580210928B0210921A
:100A0000AD021092890211E01093880210926302E5
:100A100061E082E10E944B0361E083E10E944B03AD
:100A20008091B9008E7F8093B9008091B9008D7F4D
:100A30008093B90088E48093B80085E48093BC007B
:100A4000888910938A028093AC0210928B021092D4
:100A5000AD020E949B0891E0811190E0998B99234F
:100A600029F08BE493E00E945A018E8789898823BC
:100A700039F01F861C8260E0CE010E960E94D601DE
:100A80002E2D4F2D602FCE01DF91CF911F910F9111
:100A9000FF90EF900C946204CF92DF92EF92FF925E
:100AA000CF93DF93EC01603282E078070CF03DC019
:100AB00077FD06C0653B71052CF064EB70E002C069
:100AC00060E070E0898128E830E06901C81AD10847
:100AD00087FDD394CC0CDD1CCC0CDD1C0D2C000C44
:100AE000EE08FF088A8128E532E0281B310987FDDE
:100AF0003395220F331F220F331FC901330FAA0B67
:100B0000BB0B9C01AD012C193D094E095F09DB01AE
:100B10000E94380F24EB30E040E050E00E940E0FBE
:100B2000C20ED31EE41EF51EB60188818C3080F5FE
:100B3000998148E850E0491B510997FD5395440FAE
:100B4000551F440F551F6417750784F09A8128E5D7
:100B500032E0291B310997FD3395220F331F220FF5
:100B6000331FAB01261737070CF4A9014250510976
:100B7000440F551F2FB7F89490E0FC01EE0FFF1FB4
:100B80008E0F9F1FFC01E95AFC4F528341832FBFF8
:100B9000DF91CF91FF90EF90DF90CF9008951F935A
:100BA000CF93DF93EC01162F88818C3008F04EC074
:100BB00061E0812F0E947B038881E82FF0E09F0194
:100BC000220F331FE20FF31FE95AFC4F1F7390816E
:100BD000907C192B108319821A826CE00E94710F8D
:100BE0009CE0899FB001112440E050E09A01260F5B
:100BF000371FF901EE0FFF1F2E0F3F1FF901E95AB2
:100C0000FC4F908196FD16C04F5F5F4F4C305105F1
:100C100069F781110FC01092800082E080938100FB
:100C20001092850010928400B19A80916F008260CA
:100C300080936F00E881F0E0CF01880F991FE80FE3
:100C4000F91FE95AFC4F8081806480838881DF919D
:100C5000CF911F9108951F920F920FB60F921124FA
:100C60002F933F934F935F936F937F938F939F93B4
:100C7000AF93BF93EF93FF938091570287FF05C017
:100C800010928500109284001BC020915702022E02
:100C9000000C330B80917B0390E02817390784F414
:100CA00080915702082E000C990BFC01EE0FFF1FDC
:100CB0008E0F9F1FFC01E95AFC4F808186FD15C0F5
:100CC000809157028F5F8093570220915702022E26
:100CD000000C330B80917B0390E028173907C4F494
:100CE000809157028C3064F113C080915702082E16
:100CF000000C990BFC01EE0FFF1F8E0F9F1FFC01D4
:100D0000E95AFC4F808160E08F730E944B03D8CF7B
:100D10008091840090918500049680349C4918F459
:100D200080E49CE905C08091840090918500049640
:100D300090938900809388008FEF809357023BC087
:100D4000209184003091850080915702082E000C7C
:100D5000990BFC01EE0FFF1F8E0F9F1FFC01E95A3C
:100D6000FC4F81819281820F931F90938900809321
:100D7000880080915702082E000C990BFC01EE0FA1
:100D8000FF1F8E0F9F1FFC01E95AFC4F808186FFD9
:100D900012C080915702082E000C990BFC01EE0F37
:100DA000FF1F8E0F9F1FFC01E95AFC4F808161E0FD
:100DB0008F730E944B03FF91EF91BF91AF919F9171
:100DC0008F917F916F915F914F913F912F910F90F4
:100DD0000FBE0F901F9018951F920F920FB60F9293
:100DE00011242F933F934F935F936F937F938F9330
:100DF0009F93AF93BF93EF93FF938091B900887F48
:100E0000803609F49CC068F5883209F45BC090F420
:100E1000803109F454C038F4882309F4F6C08830CE
:100E200009F44DC0F6C0883109F44CC0803209F491
:100E30005DC0EFC0803409F468C048F4803309F421
:100E400055C0883309F0E5C080938702D8C080354B
:100E500009F44FC0883509F45DC0883409F0D9C061
:100E6000D6C0883909F4C7C0A8F4883709F467C028
:100E700038F4883609F463C0803709F460C0C9C00B
:100E8000883809F4B8C0803909F45FC0803809F0A7
:100E9000C0C05BC0803B09F486C038F4803A09F4D6
:100EA00066C0883A09F47FC0B4C0803C09F4A7C08A
:100EB000883C09F4A4C0883B09F48AC0AAC0809188
:100EC000640210C09091860280918502981770F597
:100ED000E091860281E08E0F80938602F0E0EB596C
:100EE000FD4F80818093BB0085EC86C08093870294
:100EF0008EC0E091860281E08E0F80938602809101
:100F0000BB00F0E0EB59FD4F808390918602809109
:100F100085026EC0E091860281E08E0F809386028A
:100F20008091BB00F0E0EB59FD4F808380918802F7
:100F300081116DC081E08093630284EA61C083E027
:100F40008093890210925602CFCF80915602803250
:100F500008F051C0E091560281E08E0F8093560256
:100F60008091BB00F0E0EA5CFD4F8083BDCF85EC53
:100F70008093BC001092890280915602803230F436
:100F8000E0915602F0E0EA5CFD4F1082609156025B
:100F900070E0E0913402F091350286E392E0099529
:100FA0001092560236C084E0809389021092330278
:100FB00010923202E0913002F09131020995809155
:100FC0003202811105C081E080933202109210023A
:100FD000E091330281E08E0F80933302F0E0E05F16
:100FE000FD4F80818093BB0090913302809132024B
:100FF000981708F479CF85E88093BC000AC085EC87
:101000008093BC001092890204C0109287020E9453
:101010001901FF91EF91BF91AF919F918F917F91B6
:101020006F915F914F913F912F910F900FBE0F9055
:101030001F901895CF92DF92EF92FF920F931F931C
:10104000CF93DF936C017A018B01C0E0D0E0CE1525
:10105000DF0589F0D8016D918D01D601ED91FC91EC
:101060000190F081E02DC6010995892B11F47E01D4
:1010700002C02196ECCFC701DF91CF911F910F9154
:10108000FF90EF90DF90CF9008958EEA92E00E945B
:10109000BD0021E0892B09F420E0822F08950097FC
:1010A00069F0FC0101900020E9F73197AF01481B7E
:1010B000590BBC018BE893E00C941A0880E090E097
:1010C0000895CF93DF93CDB7DEB728970FB6F89486
:1010D000DEBF0FBECDBF1D8290E49E8324E12F832F
:1010E00024E5288719829A8390E19B8390E59C836D
:1010F00090919203691710F06FEF690F409193037D
:10110000262F30E0FE01E20FF31F403121F494302E
:1011100011F4918101C09581682F690F60688BE897
:1011200093E028960FB6F894DEBF0FBECDBFDF91D7
:10113000CF910C9452042091AD029091AC022132D7
:1011400008F04AC0809189028111FCCF32E03093CF
:10115000890231E0309388023FEF3093870210928A
:10116000860220938502ACE8B2E045E652E0FA013F
:101170003E2F341B321718F43D913193F9CF109262
:10118000640220916402990F922B909364029091D3
:101190006302913061F41092630290916402909323
:1011A000BB009091BC0093FDF8CF95EC01C095EE8B
:1011B0009093BC00909189029230E1F39091870264
:1011C0009F3F79F080918702803241F080918702C1
:1011D000803331F084E005C081E003C082E001C0CB
:1011E00083E010928B021092AD0210928A02089551
:1011F0001F920F920FB60F9211242F933F934F938C
:101200005F936F937F938F939F93AF93BF93EF936E
:10121000FF938EEA92E00E949802FF91EF91BF91B6
:10122000AF919F918F917F916F915F914F913F917E
:101230002F910F900FBE0F901F9018951092B10232
:101240001092B00288EE93E0A0E0B0E08093B2028A
:101250009093B302A093B402B093B50221E131E0C0
:101260003093AF022093AE0225EC30E03093BB0206
:101270002093BA0224EC30E03093BD022093BC02EC
:1012800020EC30E03093BF022093BE0221EC30E02E
:101290003093C1022093C00222EC30E03093C302AD
:1012A0002093C20226EC30E03093C5022093C402A2
:1012B0001092C7021092C8021092C9021092CA027C
:1012C00010924E0310924D0380934F03909350035E
:1012D000A0935103B093520383E291E090934C03A7
:1012E00080934B0380917B038C30A0F491E0980FA6
:1012F00090937B038093A90390E0FC01EE0FFF1F06
:101300008E0F9F1FFC01E95AFC4F88EB9BE09283F4
:10131000818303C08FEF8093A9031092A8031092DA
:10132000A70380917B038C30A0F491E0980F9093F9
:101330007B038093A40390E0FC01EE0FFF1F8E0F50
:101340009F1FFC01E95AFC4F88EB9BE0928381834D
:1013500003C08FEF8093A40310928E0310928D032D
:1013600085E391E090938C0380938B0310929B0311
:101370008FEF80939A031092990310929C038FE34E
:1013800080939603109297031092980310929503FE
:101390001092940384E080939D0382E080939E03E7
:1013A00081E080939F0380E18093A00380E280939B
:1013B000A10380E48093A20380E88093A30340E02C
:1013C00050E063E08BE893E00C94F800CF93DF9358
:1013D00000D0CDB7DEB7789484B5826084BD84B583
:1013E000816084BD85B5826085BD85B5816085BD20
:1013F00080916E00816080936E00109281008091D8
:10140000810082608093810080918100816080935F
:101410008100809180008160809380008091B10084
:1014200084608093B1008091B00081608093B000AF
:1014300080917A00846080937A0080917A00826043
:1014400080937A0080917A00816080937A00809105
:101450007A00806880937A001092C100E091BE0209
:10146000F091BF0282E08083E091BA02F091BB026A
:101470001082E091BC02F091BD0280E18083109265
:10148000C602E091C202F091C30286E08083E0913F
:10149000C002F091C102808180618083E091C0022E
:1014A000F091C102808188608083E091C002F09158
:1014B000C102808180688083E091C002F091C10206
:1014C00080818F7D808360E08EE00E947B0360E0FE
:1014D00081E10E947B0363E070E089EA93E00E946F
:1014E000CF0585E090E09093A8038093A703009137
:1014F000A7031091A803093B110594F0B80189EAEC
:1015000093E00E944C056FE070E080E090E00E9464
:10151000CE03055011091093A8030093A703E7CF4A
:1015200065E070E084EA93E00E94CF0585E090E0FA
:10153000909305018093040100910401109105012D
:101540000A3B110594F4B80184EA93E00E944C052B
:101550006FE070E080E090E00E94CE030B5F1F4FD1
:101560001093050100930401E7CF62E082E00E943E
:101570007B0360E08FE00E947B0360E080E10E94DB
:101580007B0361E084E00E947B0361E087E00E94CE
:101590007B0361E088E00E947B0360E088E00E94BA
:1015A0004B0360E087E00E944B0360E084E00E9410
:1015B0004B0361E089E00E947B0361E08CE00E94C4
:1015C0007B0361E089E00E944B0361E08CE00E94B4
:1015D0004B0320E042E060E18BE893E00E94ED04E1
:1015E00060E080E00E94610804E010E085E491E0A2
:1015F0000E944F0867E771E080E090E00E94CE0310
:101600008BE893E00E945A048EE491E00E944F0818
:1016100067E771E080E090E00E94CE038BE893E002
:101620000E945A0488E591E00E944F0867E771E044
:1016300080E090E00E94CE038BE893E00E945A0481
:101640000150110999F660E084E00E94610883E688
:1016500091E00E944F0860ED77E080E090E00E940A
:10166000CE038BE893E00E945A0490EB492E90E061
:10167000592E2CE9622E20E0722E38E8832E30E0BD
:10168000932E42E0A42EB12C59EBE52EF12C65E00F
:10169000C62ED12C8FE00E94B7038C0190938A0351
:1016A0008093890380E10E94B7031C019093880313
:1016B00080938703F2018491F3019491F4012491C2
:1016C0002223C9F0882331F02A8399830E942203C0
:1016D00099812A81E22FF0E0EE0FFF1FE458FF4FBF
:1016E000A591B4918C91982331E020E009F430E089
:1016F000832F922F02C080E090E0F1E08F27282F07
:101700002170209386032091840330918503211555
:10171000310509F05EC32CEB221622E0320634F0CC
:10172000E1E0F0E0F0938503E093840305361105D2
:101730003CF421E030E030930C0120930B010EC00B
:101740000C3B12402CF010920C0110920B0106C0C1
:10175000892B21F0B0920C01A0920B018EE00E9427
:10176000B7038C52914090938303809382031816A1
:1017700019061CF01092810303C081E0809381035D
:1017800081E10E94B7038C52914090938003809333
:101790007F03181619061CF010927E0303C081E027
:1017A00080937E0300910B0110910C0160E00230E8
:1017B000110531F488E00E944B0361E087E005C029
:1017C00087E00E944B0361E088E00E944B03809118
:1017D0007C0390917D03009731F460E089E00E94E2
:1017E0004B0361E007C0019741F461E089E00E948A
:1017F0004B0360E08CE00E944B030230110509F0BE
:10180000B3C080918103882309F453C080910A01F9
:1018100081114FC08BE893E00E945A0460E080E0A1
:101820000E9461088CE691E00E944F080091080137
:10183000109109010130110569F461E080E00E9416
:10184000610889E791E00E944F0810930701009317
:1018500006010EC0012B61F461E080E00E94610886
:1018600085E891E00E944F0810920701109206014E
:10187000D092A803C092A7030091A7031091A803D8
:101880000A3B110594F4B80189EA93E00E944C05E3
:101890006FE070E080E090E00E94CE030B5F1F4F8E
:1018A0001093A8030093A703E7CF81E080930A0178
:1018B00056C080917E038111FFC080910A01882368
:1018C00009F4FAC08BE893E00E945A0460E080E0DB
:1018D0000E94610881E991E00E944F08009108018F
:1018E000109109010130110569F461E080E00E9466
:1018F000610889E791E00E944F0810930701009367
:1019000006010EC0012B61F461E080E00E946108D5
:1019100085E891E00E944F0810920701109206019D
:10192000F092A803E092A7030091A7031091A803E7
:101930000530110594F0B80189EA93E00E944C0546
:101940006FE070E080E090E00E94CE030550110946
:101950001093A8030093A703E7CF10920A018BE826
:1019600093E00E945A04A8C00130110509F050C04C
:1019700080910A018111A0C08BE893E00E945A0473
:1019800060E080E00E9461088EE991E00E944F08CB
:1019900080910801909109018130910569F461E01D
:1019A00080E00E94610889E791E00E944F0810934F
:1019B0000701009306010EC0892B61F461E080E00D
:1019C0000E94610885E891E00E944F08109207018B
:1019D00010920601D092A803C092A7030091A7031A
:1019E0001091A8030A3B11050CF05FCFB80189EAFA
:1019F00093E00E944C056FE070E080E090E00E9470
:101A0000CE030B5F1F4F1093A8030093A703E6CFED
:101A1000012B09F051C080910A01882309F44CC0C0
:101A20008BE893E00E945A0460E080E00E94610825
:101A30008EEA91E00E944F0800910801109109017F
:101A40000130110569F461E080E00E94610889E7D6
:101A500091E00E944F0810930701009306010EC009
:101A6000012B61F461E080E00E94610885E891E06B
:101A70000E944F081092070110920601F092A803ED
:101A8000E092A7030091A7031091A8030530110568
:101A90000CF463CFB80189EA93E00E944C056FE033
:101AA00070E080E090E00E94CE0305501109109391
:101AB000A8030093A703E6CF8EEA92E00E949B0062
:101AC0008497D1F461E070E080E090E00E94CE0362
:101AD0008EEA92E00E949B008133910529F41092D6
:101AE0007D0310927C0308C0C09731F481E090E040
:101AF00090937D0380937C0380917C0390917D0380
:101B0000009709F05FC08091080190910901892B2D
:101B100009F0B3C08BE893E00E945A0460E080E0D3
:101B20000E94610820910A0180910B0190910C01A3
:101B3000222331F08230910549F48EEB91E010C000
:101B40008230910519F48AEC91E00AC08130910548
:101B500019F486ED91E004C0892B21F486EE91E022
:101B60000E944F0861E080E00E94610886EF91E0EA
:101B70000E944F08D0920501C09204010091040117
:101B8000109105010A3B110594F4B80184EA93E031
:101B90000E944C056FE070E080E090E00E94CE0370
:101BA0000B5F1F4F1093050100930401E7CF8BE8F3
:101BB00093E00E945A04E1E0F0E0F0930901E09321
:101BC00008015BC0019709F058C08091080190910D
:101BD0000901019709F051C08BE893E00E945A0473
:101BE00060E080E00E94610820910A0180910B0171
:101BF00090910C01222331F08230910549F48EEB53
:101C000091E010C08230910519F48AEC91E00AC08D
:101C10008130910519F486ED91E004C0892B21F4FF
:101C200086EE91E00E944F0861E080E00E9461082A
:101C300083E092E00E944F08F0920501E0920401D7
:101C400000910401109105010530110594F0B801CF
:101C500084EA93E00E944C056FE070E080E090E041
:101C60000E94CE0305501109109305010093040151
:101C7000E7CF109209011092080120910A0180918A
:101C8000020190910301222321F08D7F892BA1F184
:101C900003C00197029780F180910B0190910C0194
:101CA0008230910538F480910001909101010197F3
:101CB00049F422C0029731F4809100019091010112
:101CC000892BD1F080910801909109018130910513
:101CD00041F480910601909107018D7F892B61F07D
:101CE0009AC0892B09F097C0809106019091070155
:101CF0000197029708F08FC08BE893E00E945A0486
:101D000060E080E00E94610880910A0100910B016F
:101D100010910C0181111DC00230110579F48AEC7B
:101D200091E00E944F08109203011092020121E0FD
:101D300030E030930101209300012CC0012B51F5BC
:101D400086EE91E00E944F0810920301109202016A
:101D50001DC00230110579F48EEB91E00E944F080E
:101D600081E090E090930301809302019093010140
:101D7000809300010FC00130110561F486ED91E000
:101D80000E944F0810930301009302011092010179
:101D90001092000161E080E00E946108009108015A
:101DA000109109010130110549F489E791E00E9481
:101DB0004F0810930701009306012DC0012B59F520
:101DC00085E891E00E944F081092070110920601E9
:101DD00022C021303105F9F48BE893E00E945A04C7
:101DE000B0920301A092020160E088E00E944B03E0
:101DF00060E087E00E944B0360E084E00E944B03B8
:101E000080918703909188038536910524F4109280
:101E10008503109284030E94C9003CCC052E97FBD9
:101E20001EF400940E94250F57FD07D00E94400F1A
:101E300007FC03D04EF40C94250F50954095309537
:101E400021953F4F4F4F5F4F089590958095709526
:101E500061957F4F8F4F9F4F08950E94620FA59FFE
:101E6000900DB49F900DA49F800D911D1124089595
:101E7000B7FF0C942D0F0E942D0F821B930B08951A
:101E8000A1E21A2EAA1BBB1BFD010DC0AA1FBB1F7E
:101E9000EE1FFF1FA217B307E407F50720F0A21BF0
:101EA000B30BE40BF50B661F771F881F991F1A945D
:101EB00069F760957095809590959B01AC01BD0187
:101EC000CF010895A29FB001B39FC001A39F700DE1
:101ED000811D1124911DB29F700D811D1124911D32
:101EE0000895991B79E004C0991F961708F0961B76
:101EF000881F7A95C9F780950895EE0FFF1F05900A
:101F0000F491E02D099481E090E0F8940C94880F0E
:041F1000F894FFCF73
:101F140001000200050002000100010200000000AF
:101F240000B9021A088C000003BD009B00AF00003A
:101F3400000000A1017101D1014B0169015A014C5A
:101F440001000000000C011A08D101D001ED04F8D1
:101F5400004C022B024C6F6164696E672E004C6F5B
:101F64006164696E672E2E004C6F6164696E672E22
:101F74002E2E0057656C636F6D6521004D31203A3C
:101F840020436C6F73696E67004D32203A20436CB6
:101F94006F736564004D32203A204F70656E65643E
:101FA400004D31203A204F70656E696E67004D31E7
:101FB400203A20436C6F73696E67284629004D31BF
:101FC400203A204F70656E696E67284629004D31AE
:101FD400203A20436C6F736564004D31203A204FE2
:101FE40070656E6564004D31203A20436C6F7365F3
:101FF4006420284629004D31203A204F70656E65D3
:102004006420284629004D32203A20436C6F7369BE
:102014006E67004D32203A204F70656E696E67001E
:00000001FF
