:100000000C9462000C948A000C948A000C948A0070
:100010000C948A000C948A000C948A000C948A0038
:100020000C948A000C948A000C948A000C94F604B8
:100030000C948A000C948A000C948A000C948A0018
:100040000C94D3020C948A000C94FD070C94D707EF
:100050000C948A000C948A000C948A000C948A00F8
:100060000C94B7050C948A000000000024002700BF
:100070002A0000000000250028002B0000000000DE
:1000800023002600290004040404040404040202DA
:100090000202020203030303030301020408102007
:1000A0004080010204081020010204081020000012
:1000B0000008000201000003040700000000000027
:1000C0000000ED0E11241FBECFEFD8E0DEBFCDBF84
:1000D00012E0A0E0B1E0E2EAF0E202C005900D9289
:1000E000A232B107D9F724E0A2E2B2E001C01D922A
:1000F000A630B207E1F710E0C2E6D0E004C02197D5
:10010000FE010E944410C136D107C9F70E947C0944
:100110000C944F100C9400003FB7F89480916D023E
:1001200090916E02A0916F02B091700226B5A89BCB
:1001300005C02F3F19F00196A11DB11D3FBFBA2F79
:10014000A92F982F8827820F911DA11DB11DBC01D9
:10015000CD0142E0660F771F881F991F4A95D1F79E
:10016000089521E001C0220F6A95EAF7DC011C9690
:100170002C931C971A965C934E931997ED91FC91D2
:100180000484F585E02D60E00994DC01ED91FC919B
:100190000684F785E02D41E0099581E090E008951F
:1001A0000895089585ED8093BC008091BC0084FD86
:1001B000FCCF1092AA02089540914402262F30E00D
:1001C000240F311D21323105DCF42091AA022430A4
:1001D000C9F4FC0180E090E0861758F430914402A5
:1001E0002191DC01AE5DBD4FA30FB11D2C93019693
:1001F000F3CF80914402680F6093440280E0089539
:1002000081E0089582E00895089581E090E03091C2
:100210006B0220916A02321710F480E090E0919511
:1002200081959109089580916B0290916A028917D6
:1002300030F48F5F80936B0280E090E008958FEF41
:100240009FEF089580916A0290E020916B02821BDB
:1002500091090895CF92DF92EF92FF920F931F932F
:10026000CF93DF937C01262F972F8A018091AB02D9
:10027000882391F0C62FD72F6E01C40ED51ECC1542
:10028000DD0571F06991D701ED91FC910190F0814C
:10029000E02DC7010995F3CF642F822F0E94DC0067
:1002A000C801DF91CF911F910F91FF90EF90DF90E8
:1002B000CF900895CF93DF931F92CDB7DEB76983B8
:1002C0002091AB022223D1F02091CE02203240F0C7
:1002D00021E030E0FC013383228380E090E015C010
:1002E0008091AC02E82FF0E0E355FD4F99819083B7
:1002F0008F5F8093AC028093CE0205C061E0CE0197
:1003000001960E94DC0081E090E00F90DF91CF9198
:100310000895089580E090E00895FC012381222350
:10032000B9F09181909569236083828191E09093E7
:10033000AB028093CD021092AC021092CE0284EBFD
:1003400093E00E945A010E94EC08282F30E002C07E
:1003500020E030E081E090E0232B11F080E090E09D
:100360000895EF92FF920F931F93CF938C01FC019E
:10037000759684E0C0E060FF02C09081C92B66954D
:10038000815031968111F7CF413011F4F801448941
:10039000F8018585C82BC42B7801FEE0EF0EF11C17
:1003A000F80162896C2BC7010E948D01F8016289F6
:1003B00060956C23C701CF911F910F91FF90EF9033
:1003C0000C948D010F931F93CF93DF93062F0F7023
:1003D000423019F440E0602F10C0142F262FEC019A
:1003E00030E0B90184E0759567958A95E1F7CE0113
:1003F0000E94B101412F602FCE01DF91CF911F915B
:100400000F910C94B101FC0184858823A9F021850A
:1004100032852115310519F4611106C007C021305C
:10042000310521F4611102C0858701C015866585FB
:10043000CF010E960C948D010895833081F028F43D
:10044000813099F08230A1F008958730A9F088308A
:10045000B9F08430D1F4809180008F7D03C0809109
:1004600080008F7780938000089584B58F7702C0D5
:1004700084B58F7D84BD08958091B0008F7703C0CF
:100480008091B0008F7D8093B0000895CF93DF936B
:1004900090E0FC01E656FF4F2491FC01EA57FF4F24
:1004A0008491882361F190E0880F991FFC01E8593D
:1004B000FF4FC591D491FC01EE58FF4FA591B49127
:1004C000611109C09FB7F8948881209582238883A1
:1004D000EC912E230BC0623061F49FB7F894388101
:1004E000822F809583238883EC912E2B2C939FBFA2
:1004F00006C08FB7F894E8812E2B28838FBFDF9139
:10050000CF9108958E3008F08E508770806480936C
:100510007C0080917A00806480937A0080917A00D8
:1005200086FDFCCF809178002091790090E0922B9D
:1005300008958F929F92AF92BF92CF92DF92EF92E7
:10054000FF926B017C010E948C004B015C01C11485
:10055000D104E104F104F1F00E948C00DC01CB0134
:1005600088199909AA09BB09883E9340A105B105DC
:1005700070F321E0C21AD108E108F10888EE880E74
:1005800083E0981EA11CB11CC114D104E104F10444
:1005900019F7DDCFFF90EF90DF90CF90BF90AF9035
:1005A0009F908F9008951F920F920FB60F92112473
:1005B0002F933F938F939F93AF93BF93809180022C
:1005C00090918102A0918202B091830230916C02DD
:1005D00023E0230F2D3720F40196A11DB11D05C086
:1005E00026E8230F0296A11DB11D20936C02809373
:1005F000800290938102A0938202B0938302809143
:100600006D0290916E02A0916F02B09170020196FE
:10061000A11DB11D80936D0290936E02A0936F0295
:10062000B0937002BF91AF919F918F913F912F91A5
:100630000F900FBE0F901F901895DC01ED91FC916B
:100640000684F785E02D40E0099461E00E941D03D7
:100650008BE39FE10197F1F708950F931F93CF93D9
:10066000DF93EC01423018F08C8188608C834F83DB
:100670006887222329F0413019F48C8184608C83AF
:1006800064E670E080E090E00E9499026C8164FD75
:1006900031C0E881F9810684F785E02D42E063E00E
:1006A000CE0109958BE496E40197F1F7E881F98191
:1006B0000684F785E02D42E063E0CE01099503E56D
:1006C00012E0C8010197F1F7E881F9810684F78506
:1006D000E02D42E063E0CE010995C8010197F1F7F2
:1006E000E881F9810684F785E02D42E062E0CE01E1
:1006F000099517C06062CE010E941D038BE496E449
:100700000197F1F76C816062CE010E941D0303E541
:1007100012E0C8010197F1F76C816062CE010E947E
:100720001D03C8010197F1F76C816062CE010E9440
:100730001D038BEE90E00197F1F784E08D836CE070
:10074000CE010E941D03CE010E94250382E08E830C
:1007500066E0CE010E941D03E881F9810484F585DD
:10076000E02D6FEFCE01DF91CF911F910F91099492
:10077000EF92FF920F931F93CF93DF93EC01062F1D
:10078000F42EE22E8B85888B10926B0210926A02F7
:100790001092AC021092CE021092AA0211E01093B5
:1007A000A9021092840261E082E10E942F0861E0B8
:1007B00083E10E942F088091B9008E7F8093B90059
:1007C0008091B9008D7F8093B90088E48093B80050
:1007D00085E48093BC0088891093AB028093CD029E
:1007E0001092AC021092CE020E94EC0891E08111AE
:1007F00090E0998B992329F084EB93E00E941301F8
:100800008E878989882339F01F861C8260E0CE019B
:100810000E960E948D012E2D4F2D602FCE01DF915F
:10082000CF911F910F91FF90EF900C942D03CF92D9
:10083000DF92EF92FF92CF93DF93EC01603282E080
:1008400078070CF03DC077FD06C0653B71052CF0C4
:1008500064EB70E002C060E070E0898128E830E07D
:100860006901C81AD10887FDD394CC0CDD1CCC0CCF
:10087000DD1C0D2C000CEE08FF088A8128E532E013
:10088000281B310987FD3395220F331F220F331F99
:10089000C901330FAA0BBB0B9C01AD012C193D09FB
:1008A0004E095F09DB010E94211024EB30E040E09B
:1008B00050E00E94F70FC20ED31EE41EF51EB601D3
:1008C00088818C3080F5998148E850E0491B5109B6
:1008D00097FD5395440F551F440F551F6417750717
:1008E00084F09A8128E532E0291B310997FD339580
:1008F000220F331F220F331FAB01261737070CF4CB
:10090000A90142505109440F551F2FB7F89490E0A8
:10091000FC01EE0FFF1F8E0F9F1FFC01E054FC4FE8
:10092000528341832FBFDF91CF91FF90EF90DF90F3
:10093000CF9008951F93CF93DF93EC01162F8881FA
:100940008C3008F04EC061E0812F0E944602888101
:10095000E82FF0E09F01220F331FE20FF31FE05456
:10096000FC4F1F739081907C192B108319821A827F
:100970006CE00E9438109CE0899FB001112440E097
:1009800050E09A01260F371FF901EE0FFF1F2E0FBF
:100990003F1FF901E054FC4F908196FD16C04F5F58
:1009A0005F4F4C30510569F781110FC010928000E4
:1009B00082E0809381001092850010928400B19AA9
:1009C00080916F00826080936F00E881F0E0CF013A
:1009D000880F991FE80FF91FE054FC4F8081806455
:1009E00080838881DF91CF911F9108951F920F928C
:1009F0000FB60F9211242F933F934F935F936F93F2
:100A00007F938F939F93AF93BF93EF93FF938091C7
:100A1000690287FF05C010928500109284001BC0F8
:100A200020916902022E000C330B8091E40390E0C8
:100A30002817390784F480916902082E000C990B5D
:100A4000FC01EE0FFF1F8E0F9F1FFC01E054FC4FB7
:100A5000808186FD15C0809169028F5F8093690255
:100A600020916902022E000C330B8091E40390E088
:100A700028173907C4F4809169028C3064F113C0DF
:100A800080916902082E000C990BFC01EE0FFF1FEC
:100A90008E0F9F1FFC01E054FC4F808160E08F733C
:100AA0000E942F08D8CF80918400909185000496F1
:100AB00080349C4918F480E49CE905C0809184004E
:100AC00090918500049690938900809388008FEF21
:100AD000809369023BC02091840030918500809111
:100AE0006902082E000C990BFC01EE0FFF1F8E0F00
:100AF0009F1FFC01E054FC4F81819281820F931F64
:100B0000909389008093880080916902082E000CE0
:100B1000990BFC01EE0FFF1F8E0F9F1FFC01E0548D
:100B2000FC4F808186FF12C080916902082E000C64
:100B3000990BFC01EE0FFF1F8E0F9F1FFC01E0546D
:100B4000FC4F808161E08F730E942F08FF91EF912D
:100B5000BF91AF919F918F917F916F915F914F91D5
:100B60003F912F910F900FBE0F901F9018951F92DD
:100B70000F920FB60F9211242F933F934F935F93D1
:100B80006F937F938F939F93AF93BF93EF93FF9355
:100B90008091B900887F803609F49CC068F588325E
:100BA00009F45BC090F4803109F454C038F4882310
:100BB00009F4F6C0883009F44DC0F6C0883109F454
:100BC0004CC0803209F45DC0EFC0803409F468C0C5
:100BD00048F4803309F455C0883309F0E5C08093A8
:100BE000A802D8C0803509F44FC0883509F45DC02B
:100BF000883409F0D9C0D6C0883909F4C7C0A8F430
:100C0000883709F467C038F4883609F463C0803740
:100C100009F460C0C9C0883809F4B8C0803909F443
:100C20005FC0803809F0C0C05BC0803B09F486C05B
:100C300038F4803A09F466C0883A09F47FC0B4C039
:100C4000803C09F4A7C0883C09F4A4C0883B09F49F
:100C50008AC0AAC08091850210C09091A70280919D
:100C6000A602981770F5E091A70281E08E0F80939D
:100C7000A702F0E0EA57FD4F80818093BB0085EC2E
:100C800086C08093A8028EC0E091A70281E08E0FFB
:100C90008093A7028091BB00F0E0EA57FD4F80836C
:100CA0009091A7028091A6026EC0E091A70281E018
:100CB0008E0F8093A7028091BB00F0E0EA57FD4FB2
:100CC00080838091A90281116DC081E080938402AC
:100CD00084EA61C083E08093AA0210926802CFCFB9
:100CE00080916802803208F051C0E091680281E092
:100CF0008E0F809368028091BB00F0E0E85BFD4FAF
:100D00008083BDCF85EC8093BC001092AA028091B5
:100D10006802803230F4E0916802F0E0E85BFD4F59
:100D200010826091680270E0E0914602F091470203
:100D300088E492E009951092680236C084E08093BE
:100D4000AA021092450210924402E0914202F091F0
:100D50004302099580914402811105C081E080938E
:100D6000440210922202E091450281E08E0F8093AE
:100D70004502F0E0EE5DFD4F80818093BB009091D5
:100D8000450280914402981708F479CF85E8809352
:100D9000BC000AC085EC8093BC001092AA0204C07B
:100DA0001092A8020E94D200FF91EF91BF91AF91E3
:100DB0009F918F917F916F915F914F913F912F9173
:100DC0000F900FBE0F901F9018956115710579F067
:100DD000FB0101900020E9F73197AF01461B570B4B
:100DE000DC01ED91FC910280F381E02D099480E01B
:100DF00090E00895FC01538D448D252F30E0842F21
:100E000090E0821B930B541710F0CF960895019732
:100E10000895FC01918D828D981761F0828DDF011C
:100E2000A80FB11D5D968C91928D9F5F9F73928FDD
:100E300090E008958FEF9FEF0895FC01918D828DD2
:100E4000981731F0828DE80FF11D858D90E008959F
:100E50008FEF9FEF0895FC01918D228D892F90E0F7
:100E6000805C9F4F821B91098F73992708958FECA7
:100E700092E00E942B0721E0892B09F420E0822FC9
:100E80000895FC01848DDF01A80FB11DA35ABF4F47
:100E90002C91848D90E001968F739927848FA68979
:100EA000B7892C93A089B1898C9180648C93938DA0
:100EB000848D981306C00288F389E02D80818F7D90
:100EC00080830895EF92FF920F931F93CF93DF9348
:100ED000EC0181E0888F9B8D8C8D981305C0E8898B
:100EE000F989808185FD24C0F62E0B8D10E00F5FFF
:100EF0001F4F0F731127E02E8C8DE8120CC00FB618
:100F000007FCFACFE889F989808185FFF5CFCE010A
:100F10000E944107F1CF8B8DFE01E80FF11DE35ACE
:100F2000FF4FF0820B8FEA89FB898081806207C0C6
:100F3000EE89FF896083E889F989808180648083F4
:100F400081E090E0DF91CF911F910F91FF90EF90A2
:100F50000895CF93DF93EC01888D8823C9F0EA8947
:100F6000FB89808185FD05C0A889B9898C9186FDA2
:100F70000FC00FB607FCF5CF808185FFF2CFA8899F
:100F8000B9898C9185FFEDCFCE010E944107E7CF53
:100F9000DF91CF91089580E090E0892B29F00E94A5
:100FA000370781110C94000008950E944A101F9287
:100FB0000F920FB60F9211242F933F934F935F938D
:100FC0006F937F938F939F93AF93BF93EF93FF9311
:100FD0008FEC92E00E944107FF91EF91BF91AF919A
:100FE0009F918F917F916F915F914F913F912F9141
:100FF0000F900FBE0F901F9018951F920F920FB673
:101000000F9211242F938F939F93EF93FF93E0916F
:10101000DF02F091E0028081E091E502F091E602CA
:1010200082FD12C090818091E8028F5F8F732091C2
:10103000E902821751F0E091E802F0E0E153FD4F40
:10104000958F8093E80201C08081FF91EF919F917D
:101050008F912F910F900FBE0F901F9018951F9397
:10106000CF93DF93282F30E0F901E255FF4F8491B1
:10107000F901E656FF4FD491F901EA57FF4FC491A9
:10108000CC23C9F0162F81110E941D02EC2FF0E035
:10109000EE0FFF1FEE58FF4FA591B4918FB7F89454
:1010A000111105C09C91ED2FE095E92302C0EC9150
:1010B000ED2BEC938FBFDF91CF911F910895CF92CD
:1010C000DF92EF92FF920F931F93CF93DF936C0108
:1010D0007A018B01C0E0D0E0CE15DF0589F0D801A0
:1010E0006D918D01D601ED91FC910190F081E02D83
:1010F000C6010995892B11F47E0102C02196ECCF1F
:10110000C701DF91CF911F910F91FF90EF90DF907A
:10111000CF900895EFECF2E0A089B18982E08C9342
:10112000A485B5851C92A685B78580E18C93108E29
:10113000A489B58986E08C93A289B3898C9180615A
:101140008C93A289B3898C9188608C93A289B3898E
:101150008C9180688C930288F389E02D80818F7D4B
:1011600080830895CF93DF93CDB7DEB728970FB66E
:10117000F894DEBF0FBECDBF1D8290E49E8324E1B4
:101180002F8324E5288719829A8390E19B8390E539
:101190009C839091EC03691710F06FEF690F4091F9
:1011A000ED03262F30E0FE01E20FF31F403121F462
:1011B000943011F4918101C09581682F690F6068A6
:1011C00085EE93E028960FB6F894DEBF0FBECDBF34
:1011D000DF91CF910C941D032091CE029091CD020E
:1011E000213208F04AC08091AA028111FCCF32E07E
:1011F0003093AA0231E03093A9023FEF3093A80266
:101200001092A7022093A602ADEAB2E046E852E0AF
:10121000FA013E2F341B321718F43D913193F9CF68
:101220001092850220918502990F922B909385024E
:1012300090918402913061F4109284029091850221
:101240009093BB009091BC0093FDF8CF95EC01C04A
:1012500095EE9093BC009091AA029230E1F39091A8
:10126000A8029F3F79F08091A802803241F08091DE
:10127000A802803331F084E005C081E003C082E041
:1012800001C083E01092AC021092CE021092AB0229
:101290000895CF92DF92EF92FF920F931F932FB793
:1012A000F894C0908002D0908102E0908202F09089
:1012B00083022FBFDC01CB018C0D9D1DAE1DBF1D18
:1012C0004FB7F89400918002109181022091820220
:1012D000309183024FBF0C151D052E053F0528F0E8
:1012E00080179107A207B30758F71F910F91FF903E
:1012F000EF90DF90CF900895CF93DF9300D0CDB7DC
:10130000DEB7789484B5826084BD84B5816084BD85
:1013100085B5826085BD85B5816085BD80916E0093
:10132000816080936E0010928100809181008260C4
:101330008093810080918100816080938100809101
:1013400080008160809380008091B10084608093F0
:10135000B1008091B00081608093B00080917A00EC
:10136000846080937A0080917A00826080937A0012
:1013700080917A00816080937A0080917A00806801
:1013800080937A001092C1001092B0031092B103C2
:101390001092B2031092B30310926E0310926F0377
:1013A000109270031092710368EB7BE080E090E094
:1013B0000E9449098FEC92E09093AF038093AE03B3
:1013C0000E948A082FB7F894809180029091810240
:1013D000A0918202B09183022FBF80936E039093FD
:1013E0006F03A0937003B093710365E471E0809183
:1013F000AE039091AF030E94E5066AE070E080E0E2
:1014000090E00E94490981E0809382030E948A084B
:1014100060E08EE00E94460260E081E10E944602A8
:1014200063E070E083E094E00E949A0485E090E03D
:10143000909302048093010460910104709102046E
:10144000693B710584F083E094E00E9417046FE02B
:1014500070E080E090E00E949902809101049091F8
:1014600002040597E5CF65E070E08EEF93E00E94FF
:101470009A0485E090E09093050180930401009127
:101480000401109105010A3B110594F4B8018EEF97
:1014900093E00E9417046FE070E080E090E00E940B
:1014A00099020B5F1F4F1093050100930401E7CFD2
:1014B00062E082E00E94460260E08FE00E94460205
:1014C00060E080E10E94460261E084E00E94460202
:1014D00061E087E00E94460261E088E00E944602E7
:1014E00060E088E00E942F0860E087E00E942F08FB
:1014F00060E084E00E942F0861E089E00E944602DB
:1015000061E08CE00E94460261E089E00E942F08C1
:1015100061E08CE00E942F0820E042E060E185EE6F
:1015200093E00E94B80360E080E00E94B20804E00B
:1015300010E067E571E085EE93E00E94E50667E75D
:1015400071E080E090E00E94990285EE93E00E94B5
:10155000250360E671E085EE93E00E94E50667E70B
:1015600071E080E090E00E94990285EE93E00E9495
:1015700025036AE671E085EE93E00E94E50667E7E1
:1015800071E080E090E00E94990285EE93E00E9475
:1015900025030150110969F660E084E00E94B20859
:1015A00065E771E085EE93E00E94E50660ED77E087
:1015B00080E090E00E94990285EE93E00E9425036E
:1015C00090EB492E90E0592E2CE9622E20E0722EED
:1015D00038E8832E30E0932E42E0A42EB12C59EB54
:1015E000E52EF12C65E0C62ED12C8FE00E94820200
:1015F0008C0190937F0280937E0280E10E948202A0
:101600001C0190937D0280937C02F2018491F3018E
:101610009491F40124912223C9F0882331F02A8384
:1016200099830E941D0299812A81E22FF0E0EE0F3A
:10163000FF1FE458FF4FA591B4918C91982331E09E
:1016400020E009F430E0832F922F02C080E090E088
:10165000F1E08F27282F217020937B0220917902BF
:1016600030917A022115310509F092C32CEB221634
:1016700022E0320634F0E1E0F0E0F0937A02E09309
:101680007902053611053CF421E030E030930C017D
:1016900020930B010EC00C3B12402CF010920C0159
:1016A00010920B0106C0892B21F0B0920C01A09280
:1016B0000B018EE00E9482028C529140909378023E
:1016C00080937702181619061CF01092760203C058
:1016D00081E08093760281E10E9482028C529140E7
:1016E0009093750280937402181619061CF01092DC
:1016F000730203C081E08093730200910B0110918B
:101700000C0160E00230110531F488E00E942F08DE
:1017100061E087E005C087E00E942F0861E088E073
:101720000E942F088091710290917202009731F40B
:1017300060E089E00E942F0861E007C0019741F452
:1017400061E089E00E942F0860E08CE00E942F0891
:101750000230110509F0C3C080917602882309F494
:101760005BC080910A01811157C085EE93E00E9411
:10177000250360E080E00E94B2086EE771E085EE2C
:1017800093E00E94E50600910801109109010130E3
:10179000110579F461E080E00E94B2086BE871E025
:1017A00085EE93E00E94E506109307010093060181
:1017B00010C0012B71F461E080E00E94B20867E97B
:1017C00071E085EE93E00E94E50610920701109209
:1017D0000601D0920204C09201046091010470914C
:1017E00002046A3B7105A4F483E094E00E941704AC
:1017F0006FE070E080E090E00E9499028091010427
:101800009091020405969093020480930104E5CF21
:1018100081E080930A015EC080917302811117C13B
:1018200080910A01882309F412C185EE93E00E9499
:10183000250360E080E00E94B20863EA71E085EE73
:1018400093E00E94E5060091080110910901013022
:10185000110579F461E080E00E94B2086BE871E064
:1018600085EE93E00E94E5061093070100930601C0
:1018700010C0012B71F461E080E00E94B20867E9BA
:1018800071E085EE93E00E94E50610920701109248
:101890000601F0920204E09201046091010470914B
:1018A000020465307105A4F083E094E00E941704FF
:1018B0006FE070E080E090E00E9499028091010466
:1018C0009091020405979093020480930104E5CF60
:1018D00010920A0185EE93E00E942503B8C0013002
:1018E000110509F058C080910A018111B0C085EE40
:1018F00093E00E94250360E080E00E94B20860EB64
:1019000071E085EE93E00E94E506809108019091D8
:1019100009018130910579F461E080E00E94B2080C
:101920006BE871E085EE93E00E94E50610930701F5
:101930000093060110C0892B71F461E080E00E94E1
:10194000B20867E971E085EE93E00E94E506109227
:10195000070110920601D0920204C0920104609126
:101960000104709102046A3B71050CF051CF83E0D1
:1019700094E00E9417046FE070E080E090E00E9425
:1019800099028091010490910204059690930204BB
:1019900080930104E4CF012B09F059C080910A0122
:1019A000882309F454C085EE93E00E94250360E08B
:1019B00080E00E94B20860EC71E085EE93E00E9446
:1019C000E50600910801109109010130110579F433
:1019D00061E080E00E94B2086BE871E085EE93E080
:1019E0000E94E506109307010093060110C0012B29
:1019F00071F461E080E00E94B20867E971E085EE71
:101A000093E00E94E5061092070110920601F09201
:101A10000204E092010460910104709102046530B7
:101A200071050CF455CF83E094E00E9417046FE039
:101A300070E080E090E00E94990280910104909112
:101A4000020405979093020480930104E4CF8FEC85
:101A500092E00E9409078497D1F461E070E080E091
:101A600090E00E9499028FEC92E00E940907813376
:101A7000910529F4109272021092710208C0C09769
:101A800031F481E090E09093720280937102809132
:101A9000710290917202009709F063C08091080171
:101AA00090910901892B09F0BBC085EE93E00E945B
:101AB000250360E080E00E94B20820910A01809135
:101AC0000B0190910C01222331F08230910549F4F1
:101AD00060ED71E010C08230910519F46CED71E099
:101AE0000AC08130910519F468EE71E004C0892BB9
:101AF00031F468EF71E085EE93E00E94E50661E065
:101B000080E00E94B20868E072E085EE93E00E94F7
:101B1000E506D0920501C0920401009104011091E4
:101B200005010A3B110594F4B8018EEF93E00E9481
:101B300017046FE070E080E090E00E9499020B5F74
:101B40001F4F1093050100930401E7CF85EE93E04A
:101B50000E942503E1E0F0E0F0930901E093080121
:101B60005FC0019709F05CC0809108019091090164
:101B7000019709F055C085EE93E00E94250360E0CF
:101B800080E00E94B20820910A0180910B0190919F
:101B90000C01222331F08230910549F460ED71E0AF
:101BA00010C08230910519F46CED71E00AC08130EB
:101BB000910519F468EE71E004C0892B31F468EFE7
:101BC00071E085EE93E00E94E50661E080E00E940E
:101BD000B20865E172E085EE93E00E94E506F092BE
:101BE0000501E09204010091040110910501053006
:101BF000110594F0B8018EEF93E00E9417046FE096
:101C000070E080E090E00E94990205501109109365
:101C1000050100930401E7CF109209011092080119
:101C200020910A018091020190910301222321F069
:101C30008D7F892BA1F103C00197029780F18091DC
:101C40000B0190910C018230910538F480910001D4
:101C500090910101019749F422C0029731F48091DB
:101C6000000190910101892BD1F0809108019091A0
:101C700009018130910541F480910601909107019D
:101C80008D7F892B61F0A6C0892B09F0A3C08091BC
:101C90000601909107010197029708F09BC085EE1D
:101CA00093E00E94250360E080E00E94B2088091EA
:101CB0000A0100910B0110910C01811121C0023029
:101CC000110589F46CED71E085EE93E00E94E50664
:101CD000109203011092020121E030E030930101E3
:101CE0002093000132C0012B81F568EF71E085EE91
:101CF00093E00E94E506109203011092020121C0B8
:101D00000230110589F460ED71E085EE93E00E94E8
:101D1000E50681E090E090930301809302019093A7
:101D200001018093000111C00130110571F468EECA
:101D300071E085EE93E00E94E506109303010093A5
:101D40000201109201011092000161E080E00E9406
:101D5000B20800910801109109010130110559F4F0
:101D60006BE871E085EE93E00E94E50610930701B1
:101D7000009306012FC0012B69F567E971E085EE3C
:101D800093E00E94E506109207011092060122C01E
:101D900021303105F9F485EE93E00E942503B092DD
:101DA0000301A092020160E088E00E942F0860E039
:101DB00087E00E942F0860E084E00E942F08809155
:101DC0007C0290917D028536910524F410927A026E
:101DD000109279020E94CB0708CC1092D202109286
:101DE000D10288EE93E0A0E0B0E08093D30290931C
:101DF000D402A093D502B093D60221E131E0309312
:101E0000D0022093CF0225EC30E03093DC02209307
:101E1000DB0224EC30E03093DE022093DD0220EC84
:101E200030E03093E0022093DF0221EC30E0309389
:101E3000E2022093E10222EC30E03093E4022093AE
:101E4000E30226EC30E03093E6022093E5021092A4
:101E5000E8021092E9021092EA021092EB0210924C
:101E60007203109273031092740310927503109210
:101E700076031092770310927803109279031092F0
:101E80007A0310927B0310927C0310927D031092D0
:101E90007E0310927F0310928003109281031092B0
:101EA000B7031092B6038093B8039093B903A0933D
:101EB000BA03B093BB0383E291E09093B5038093A0
:101EC000B4038091E4038C30A0F491E0980F9093D8
:101ED000E4038093030490E0FC01EE0FFF1F8E0FDC
:101EE0009F1FFC01E054FC4F88EB9BE092838183B1
:101EF00003C08FEF80930304109202041092010438
:101F00008091E4038C30A0F491E0980F9093E40367
:101F10008093FE0390E0FC01EE0FFF1F8E0F9F1FCA
:101F2000FC01E054FC4F88EB9BE09283818303C06B
:101F30008FEF8093FE031092E8031092E70385E38E
:101F400091E09093E6038093E5031092F5038FEF01
:101F50008093F4031092F3031092F6038FE38093BF
:101F6000F0031092F1031092F2031092EF0310921B
:101F7000EE0384E08093F70382E08093F80381E02E
:101F80008093F90380E18093FA0380E28093FB035E
:101F900080E48093FC0380E88093FD0340E050E000
:101FA00063E085EE93E00C94B100A1E21A2EAA1B27
:101FB000BB1BFD010DC0AA1FBB1FEE1FFF1FA217F9
:101FC000B307E407F50720F0A21BB30BE40BF50BF6
:101FD000661F771F881F991F1A9469F7609570957F
:101FE000809590959B01AC01BD01CF010895052E10
:101FF00097FB1EF400940E940E1057FD07D00E941C
:10200000D50F07FC03D04EF40C940E10509540955C
:10201000309521953F4F4F4F5F4F08959095809594
:10202000709561957F4F8F4F9F4F08950E942910A3
:10203000A59F900DB49F900DA49F800D911D11241C
:102040000895B7FF0C9416100E941610821B930B74
:102050000895A29FB001B39FC001A39F700D811D81
:102060001124911DB29F700D811D1124911D0895A1
:10207000991B79E004C0991F961708F0961B881FDA
:102080007A95C9F780950895EE0FFF1F0590F4919A
:10209000E02D099481E090E0F8940C944F10F894AE
:0220A000FFCF70
:1020A2000100020005000200010001020000000020
:1020B2000062075F08FA06A9072B0709071D070038
:1020C2000000005A012A018A0104012201130105BC
:1020D2000100000000C5005F088A018901B803B150
:1020E200000302E201564D4450565F317C315F5687
:1020F2004D4450560D0A004C6F6164696E672E00A4
:102102004C6F6164696E672E2E004C6F6164696E5C
:10211200672E2E2E0057656C636F6D6521004D3161
:10212200203A20436C6F73696E67004D32203A206B
:10213200436C6F736564004D32203A204F70656EB8
:102142006564004D31203A204F70656E696E6700FC
:102152004D31203A20436C6F73696E67284629001F
:102162004D31203A204F70656E696E67284629000E
:102172004D31203A20436C6F736564004D31203A33
:10218200204F70656E6564004D31203A20436C6FBC
:1021920073656420284629004D31203A204F70652E
:1021A2006E656420284629004D32203A20436C6F28
:1021B20073696E67004D32203A204F70656E696E0A
:0221C2006700B4
:00000001FF
