:100000000C9462000C948A000C948A000C948A0070
:100010000C948A000C948A000C948A000C948A0038
:100020000C948A000C948A000C948A000C94370675
:100030000C948A000C948A000C948A000C948A0018
:100040000C9414040C948A000C9466020C944508D9
:100050000C948A000C948A000C948A000C948A00F8
:100060000C94F8060C948A0000000000240027007D
:100070002A0000000000250028002B0000000000DE
:1000800023002600290004040404040404040202DA
:100090000202020203030303030301020408102007
:1000A0004080010204081020010204081020000012
:1000B0000008000201000003040700000000000027
:1000C0000000071011241FBECFEFD8E0DEBFCDBF68
:1000D00012E0A0E0B1E0E6EDF2E202C005900D9280
:1000E000A633B107D9F724E0A6E3B2E001C01D9220
:1000F000A931B207E1F710E0C2E6D0E004C02197D1
:10010000FE010E945E11C136D107C9F70E94C509E0
:100110000C9469110C940000FC01538D448D252F23
:1001200030E0842F90E0821B930B541710F0CF9691
:10013000089501970895FC01918D828D981761F0C3
:10014000828DDF01A80FB11D5D968C91928D9F5F0E
:100150009F73928F90E008958FEF9FEF0895FC01B9
:10016000918D828D981731F0828DE80FF11D858D6C
:1001700090E008958FEF9FEF0895FC01918D228DFF
:10018000892F90E0805C9F4F821B91098F73992784
:10019000089580E090E0892B29F00E943B088111AE
:1001A0000C94000008953FB7F894809185029091D7
:1001B0008602A0918702B091880226B5A89B05C04F
:1001C0002F3F19F00196A11DB11D3FBFBA2FA92FD6
:1001D000982F8827820F911DA11DB11DBC01CD0153
:1001E00042E0660F771F881F991F4A95D1F708953F
:1001F00021E001C0220F6A95EAF7DC011C962C93DE
:100200001C971A965C934E931997ED91FC91048478
:10021000F585E02D60E00994DC01ED91FC91068408
:10022000F785E02D41E0099581E090E0089508957B
:10023000089585ED8093BC008091BC0084FDFCCFC7
:100240001092BD02089540915802262F30E0240FED
:10025000311D21323105DCF42091BD022430C9F476
:10026000FC0180E090E0861758F43091580221910B
:10027000DC01AA5CBD4FA30FB11D2C930196F3CFF7
:1002800080915802680F6093580280E0089581E0E1
:10029000089582E00895089581E090E030917F0212
:1002A00020917E02321710F480E090E091958195C4
:1002B0009109089580917F0290917E02891730F410
:1002C0008F5F80937F0280E090E008958FEF9FEF33
:1002D000089580917E0290E020917F02821B910917
:1002E0000895CF92DF92EF92FF920F931F93CF93D7
:1002F000DF937C01262F972F8A018091BE028823ED
:1003000091F0C62FD72F6E01C40ED51ECC15DD057A
:1003100071F06991D701ED91FC910190F081E02D90
:10032000C7010995F3CF642F822F0E942301C801D2
:10033000DF91CF911F910F91FF90EF90DF90CF90C1
:100340000895CF93DF931F92CDB7DEB769832091D5
:10035000BE022223D1F02091E102203240F021E0C0
:1003600030E0FC013383228380E090E015C080916F
:10037000BF02E82FF0E0E054FD4F998190838F5F3A
:100380008093BF028093E10205C061E0CE01019637
:100390000E94230181E090E00F90DF91CF910895BA
:1003A000089580E090E008950E946411FC0123818B
:1003B0002223B9F09181909569236083828191E035
:1003C0009093BE028093E0021092BF021092E1026D
:1003D00087EC93E00E94A1010E94F808282F30E0EA
:1003E00002C020E030E081E090E0232B11F080E0BB
:1003F00090E00895EF92FF920F931F93CF938C019B
:10040000FC01759684E0C0E060FF02C09081C92BBA
:100410006695815031968111F7CF413011F4F80182
:100420004489F8018585C82BC42B7801FEE0EF0EC6
:10043000F11CF80162896C2BC7010E94D601F801FA
:10044000628960956C23C701CF911F910F91FF9036
:10045000EF900C94D6010F931F93CF93DF93062F49
:100460000F70423019F440E0602F10C0142F262F77
:10047000EC0130E0B90184E0759567958A95E1F764
:10048000CE010E94FA01412F602FCE01DF91CF9162
:100490001F910F910C94FA01FC0184858823A9F027
:1004A000218532852115310519F4611106C007C077
:1004B0002130310521F4611102C0858701C0158604
:1004C0006585CF010E960C94D60108951F920F9268
:1004D0000FB60F9211242F938F939F93EF93FF9357
:1004E000E091F202F091F3028081E091F802F09144
:1004F000F90282FD12C090818091FB028F5F8F73A1
:100500002091FC02821751F0E091FB02F0E0EE51E5
:10051000FD4F958F8093FB0201C08081FF91EF9189
:100520009F918F912F910F900FBE0F901F90189554
:10053000FC01848DDF01A80FB11DA35ABF4F2C9180
:10054000848D90E001968F739927848FA689B7894F
:100550002C93A089B1898C9180648C93938D848D28
:10056000981306C00288F389E02D80818F7D8083F7
:100570000895EF92FF920F931F93CF93DF93EC01B7
:1005800081E0888F9B8D8C8D981305C0E889F9894F
:10059000808185FD24C0F62E0B8D10E00F5F1F4F6C
:1005A0000F731127E02E8C8DE8120CC00FB607FCDC
:1005B000FACFE889F989808185FFF5CFCE010E94C5
:1005C0009802F1CF8B8DFE01E80FF11DE35AFF4F2A
:1005D000F0820B8FEA89FB898081806207C0EE89F7
:1005E000FF896083E889F98980818064808381E064
:1005F00090E0DF91CF911F910F91FF90EF900895C0
:10060000CF93DF93EC01888D8823C9F0EA89FB89B9
:10061000808185FD05C0A889B9898C9186FD0FC0B0
:100620000FB607FCF5CF808185FFF2CFA889B98985
:100630008C9185FFEDCFCE010E949802E7CFDF912C
:10064000CF910895833081F028F4813099F0823081
:10065000A1F008958730A9F08830B9F08430D1F442
:10066000809180008F7D03C0809180008F77809380
:100670008000089584B58F7702C084B58F7D84BDD6
:1006800008958091B0008F7703C08091B0008F7D76
:100690008093B00008951F93CF93DF93282F30E00D
:1006A000F901E255FF4F8491F901E656FF4FD491CD
:1006B000F901EA57FF4FC491CC23C9F0162F8111DD
:1006C0000E942203EC2FF0E0EE0FFF1FEE58FF4FC9
:1006D000A591B4918FB7F894111105C09C91ED2F9D
:1006E000E095E92302C0EC91ED2BEC938FBFDF91F5
:1006F000CF911F910895CF93DF9390E0FC01E656D0
:10070000FF4F2491FC01EA57FF4F8491882361F148
:1007100090E0880F991FFC01E859FF4FC591D491D3
:10072000FC01EE58FF4FA591B491611109C09FB72C
:10073000F8948881209582238883EC912E230BC026
:10074000623061F49FB7F8943881822F80958323BB
:100750008883EC912E2B2C939FBF06C08FB7F89403
:10076000E8812E2B28838FBFDF91CF9108958E30A3
:1007700008F08E508770806480937C0080917A00AE
:10078000806480937A0080917A0086FDFCCF80910E
:1007900078002091790090E0922B08958F929F929B
:1007A000AF92BF92CF92DF92EF92FF926B017C01EA
:1007B0000E94D3004B015C01C114D104E104F10497
:1007C000F1F00E94D300DC01CB0188199909AA0934
:1007D000BB09883E9340A105B10570F321E0C21A20
:1007E000D108E108F10888EE880E83E0981EA11C6C
:1007F000B11CC114D104E104F10419F7DDCFFF905D
:10080000EF90DF90CF90BF90AF909F908F90089522
:100810002FB7F894609181027091820280918302D7
:10082000909184022FBF08951F920F920FB60F92DE
:1008300011242F933F938F939F93AF93BF938091F6
:10084000810290918202A0918302B0918402309142
:10085000800223E0230F2D3720F40196A11DB11D46
:1008600005C026E8230F0296A11DB11D209380022A
:100870008093810290938202A0938302B0938402BA
:100880008091850290918602A0918702B0918802A2
:100890000196A11DB11D8093850290938602A093BD
:1008A0008702B0938802BF91AF919F918F913F9142
:1008B0002F910F900FBE0F901F901895DC01ED91B6
:1008C000FC910684F785E02D40E0099461E00E94E8
:1008D0005E048BE39FE10197F1F708950F931F9357
:1008E000CF93DF93EC01423018F08C8188608C83C9
:1008F0004F836887222329F0413019F48C8184606A
:100900008C8364E670E080E090E00E94CE036C810E
:1009100064FD31C0E881F9810684F785E02D42E06D
:1009200063E0CE0109958BE496E40197F1F7E88145
:10093000F9810684F785E02D42E063E0CE01099558
:1009400003E512E0C8010197F1F7E881F981068417
:10095000F785E02D42E063E0CE010995C8010197DB
:10096000F1F7E881F9810684F785E02D42E062E045
:10097000CE01099517C06062CE010E945E048BE42F
:1009800096E40197F1F76C816062CE010E945E04EB
:1009900003E512E0C8010197F1F76C816062CE01B6
:1009A0000E945E04C8010197F1F76C816062CE017C
:1009B0000E945E048BEE90E00197F1F784E08D8356
:1009C0006CE0CE010E945E04CE010E94660482E0CB
:1009D0008E8366E0CE010E945E04E881F981048482
:1009E000F585E02D6FEFCE01DF91CF911F910F9133
:1009F0000994EF92FF920F931F93CF93DF93EC0133
:100A0000062FF42EE22E8B85888B10927F02109297
:100A10007E021092BF021092E1021092BD0211E01C
:100A20001093BC021092970261E082E10E944B0396
:100A300061E083E10E944B038091B9008E7F809337
:100A4000B9008091B9008D7F8093B90088E48093CC
:100A5000B80085E48093BC0088891093BE0280931F
:100A6000E0021092BF021092E1020E94F80891E0A9
:100A7000811190E0998B992329F087EC93E00E94F3
:100A80005A018E878989882339F01F861C8260E08D
:100A9000CE010E960E94D6012E2D4F2D602FCE0135
:100AA000DF91CF911F910F91FF90EF900C946E0406
:100AB000CF92DF92EF92FF92CF93DF93EC016032FF
:100AC00082E078070CF03DC077FD06C0653B7105FC
:100AD0002CF064EB70E002C060E070E0898128E8EF
:100AE00030E06901C81AD10887FDD394CC0CDD1C15
:100AF000CC0CDD1C0D2C000CEE08FF088A8128E5CB
:100B000032E0281B310987FD3395220F331F220F56
:100B1000331FC901330FAA0BBB0B9C01AD012C196C
:100B20003D094E095F09DB010E943B1124EB30E0D7
:100B300040E050E00E941111C20ED31EE41EF51ECB
:100B4000B60188818C3080F5998148E850E0491BD6
:100B5000510997FD5395440F551F440F551F6417B6
:100B6000750784F09A8128E532E0291B310997FD49
:100B70003395220F331F220F331FAB012617370780
:100B80000CF4A90142505109440F551F2FB7F89496
:100B900090E0FC01EE0FFF1F8E0F9F1FFC01ED5236
:100BA000FC4F528341832FBFDF91CF91FF90EF9095
:100BB000DF90CF9008951F93CF93DF93EC01162F12
:100BC00088818C3008F04EC061E0812F0E947B0349
:100BD0008881E82FF0E09F01220F331FE20FF31FFF
:100BE000ED52FC4F1F739081907C192B108319825A
:100BF0001A826CE00E9452119CE0899FB00111247E
:100C000040E050E09A01260F371FF901EE0FFF1F59
:100C10002E0F3F1FF901ED52FC4F908196FD16C03B
:100C20004F5F5F4F4C30510569F781110FC0109233
:100C3000800082E0809381001092850010928400F1
:100C4000B19A80916F00826080936F00E881F0E03C
:100C5000CF01880F991FE80FF91FED52FC4F8081DB
:100C6000806480838881DF91CF911F9108951F92C6
:100C70000F920FB60F9211242F933F934F935F93D0
:100C80006F937F938F939F93AF93BF93EF93FF9354
:100C900080917D0287FF05C010928500109284002C
:100CA0001BC020917D02022E000C330B8091F703B4
:100CB00090E02817390784F480917D02082E000CFB
:100CC000990BFC01EE0FFF1F8E0F9F1FFC01ED52D1
:100CD000FC4F808186FD15C080917D028F5F8093DF
:100CE0007D0220917D02022E000C330B8091F703D0
:100CF00090E028173907C4F480917D028C3064F1AC
:100D000013C080917D02082E000C990BFC01EE0FA0
:100D1000FF1F8E0F9F1FFC01ED52FC4F808160E092
:100D20008F730E944B03D8CF8091840090918500EF
:100D3000049680349C4918F480E49CE905C08091B5
:100D40008400909185000496909389008093880098
:100D50008FEF80937D023BC020918400309185000D
:100D600080917D02082E000C990BFC01EE0FFF1FF5
:100D70008E0F9F1FFC01ED52FC4F81819281820FEB
:100D8000931F909389008093880080917D02082EA4
:100D9000000C990BFC01EE0FFF1F8E0F9F1FFC0133
:100DA000ED52FC4F808186FF12C080917D02082E9B
:100DB000000C990BFC01EE0FFF1F8E0F9F1FFC0113
:100DC000ED52FC4F808161E08F730E944B03FF91D5
:100DD000EF91BF91AF919F918F917F916F915F91B3
:100DE0004F913F912F910F900FBE0F901F9018952C
:100DF0001F920F920FB60F9211242F933F934F9390
:100E00005F936F937F938F939F93AF93BF93EF9372
:100E1000FF938091B900887F803609F49CC068F503
:100E2000883209F45BC090F4803109F454C038F47E
:100E3000882309F4F6C0883009F44DC0F6C0883123
:100E400009F44CC0803209F45DC0EFC0803409F46D
:100E500068C048F4803309F455C0883309F0E5C010
:100E60008093BB02D8C0803509F44FC0883509F49F
:100E70005DC0883409F0D9C0D6C0883909F4C7C02C
:100E8000A8F4883709F467C038F4883609F463C0D9
:100E9000803709F460C0C9C0883809F4B8C0803907
:100EA00009F45FC0803809F0C0C05BC0803B09F422
:100EB00086C038F4803A09F466C0883A09F47FC0E5
:100EC000B4C0803C09F4A7C0883C09F4A4C0883BA6
:100ED00009F48AC0AAC08091980210C09091BA0209
:100EE0008091B902981770F5E091BA0281E08E0FF7
:100EF0008093BA02F0E0E756FD4F80818093BB00FB
:100F000085EC86C08093BB028EC0E091BA0281E07E
:100F10008E0F8093BA028091BB00F0E0E756FD4F40
:100F200080839091BA028091B9026EC0E091BA02BA
:100F300081E08E0F8093BA028091BB00F0E0E7560B
:100F4000FD4F80838091BC0281116DC081E0809350
:100F5000970284EA61C083E08093BD0210927C0214
:100F6000CFCF80917C02803208F051C0E0917C02AA
:100F700081E08E0F80937C028091BB00F0E0E45A08
:100F8000FD4F8083BDCF85EC8093BC001092BD02E5
:100F900080917C02803230F4E0917C02F0E0E45AEF
:100FA000FD4F108260917C0270E0E0915A02F09156
:100FB0005B028CE592E0099510927C0236C084E0D9
:100FC0008093BD021092590210925802E09156028D
:100FD000F0915702099580915802811105C081E076
:100FE0008093580210923602E091590281E08E0FF0
:100FF00080935902F0E0EA5CFD4F80818093BB0052
:101000009091590280915802981708F479CF85E899
:101010008093BC000AC085EC8093BC001092BD0296
:1010200004C01092BB020E941901FF91EF91BF9181
:10103000AF919F918F917F916F915F914F913F9170
:101040002F910F900FBE0F901F901895611571058D
:1010500079F0FB0101900020E9F73197AF01461BC1
:10106000570BDC01ED91FC910280F381E02D099496
:1010700080E090E0089582EE92E00E94BD0021E0C1
:10108000892B09F420E0822F08951F920F920FB64A
:101090000F9211242F933F934F935F936F937F93FE
:1010A0008F939F93AF93BF93EF93FF9382EE92E062
:1010B0000E949802FF91EF91BF91AF919F918F9104
:1010C0007F916F915F914F913F912F910F900FBE44
:1010D0000F901F901895CF92DF92EF92FF920F938F
:1010E0001F93CF93DF936C017A018B01C0E0D0E0B6
:1010F000CE15DF0589F0D8016D918D01D601ED91F6
:10110000FC910190F081E02DC6010995892B11F425
:101110007E0102C02196ECCFC701DF91CF911F91D4
:101120000F91FF90EF90DF90CF900895E2EEF2E004
:10113000A089B18982E08C93A485B5851C92A6858F
:10114000B78580E18C93108EA489B58986E08C9355
:10115000A289B3898C9180618C93A289B3898C9187
:1011600088608C93A289B3898C9180688C93028863
:10117000F389E02D80818F7D80830895CF93DF9365
:10118000CDB7DEB728970FB6F894DEBF0FBECDBF40
:101190001D8290E49E8324E12F8324E52887198211
:1011A0009A8390E19B8390E59C839091FF0369175C
:1011B00010F06FEF690F40910004262F30E0FE0120
:1011C000E20FF31F403121F4943011F4918101C0FA
:1011D0009581682F690F606888EF93E028960FB6B5
:1011E000F894DEBF0FBECDBFDF91CF910C945E04AB
:1011F0002091E1029091E002213208F04AC08091F2
:10120000BD028111FCCF32E03093BD0231E030935A
:10121000BC023FEF3093BB021092BA022093B90296
:10122000A0ECB2E049E952E0FA013E2F341B32173C
:1012300018F43D913193F9CF1092980220919802C1
:10124000990F922B9093980290919702913061F4AC
:1012500010929702909198029093BB009091BC00DD
:1012600093FDF8CF95EC01C095EE9093BC00909162
:10127000BD029230E1F39091BB029F3F79F08091E3
:10128000BB02803241F08091BB02803331F084E0B8
:1012900005C081E003C082E001C083E01092BF027C
:1012A0001092E1021092BE0208958F929F92AF9227
:1012B000BF92CF92DF92EF92FF926B017C010E946E
:1012C00008044B015C01C60ED71EE81EF91E0E94E1
:1012D0000804681579058A059B0528F0C616D70607
:1012E000E806F906A0F7FF90EF90DF90CF90BF904F
:1012F000AF909F908F9008954F925F926F927F92E0
:10130000EF92FF920F931F93CF93DF93CDB7DEB78A
:10131000A1970FB6F894DEBF0FBECDBF7C01FA01D6
:10132000CB0119A2223008F42AE08E010F5D1F4F75
:10133000422E512C612C712CBF01A30192010E94FD
:10134000EF10F901CA01015011096A3014F4605D0F
:1013500001C0695CD8016C93232B242B252B61F7EA
:10136000B801C7010E942608A1960FB6F894DEBF07
:101370000FBECDBFDF91CF911F910F91FF90EF90E6
:101380007F906F905F904F900895789484B58260BD
:1013900084BD84B5816084BD85B5826085BD85B519
:1013A000816085BD80916E00816080936E00109297
:1013B0008100809181008260809381008091810012
:1013C00081608093810080918000816080938000A3
:1013D0008091B10084608093B1008091B000816001
:1013E0008093B00080917A00846080937A0080912D
:1013F0007A00826080937A0080917A008160809385
:101400007A0080917A00806880937A001092C100FF
:101410001092C3031092C4031092C5031092C60326
:10142000109281031092820310928303109284031E
:1014300068EB7BE080E090E00E94550982EE92E04C
:101440009093C2038093C1030E9496080E940804EF
:10145000609381037093820380938303909384034A
:1014600065E471E08091C1039091C2030E94260857
:101470006AE070E080E090E00E94550981E080938E
:1014800095030E94960860E08EE00E947B0360E076
:1014900081E10E947B0363E070E086E194E00E94BA
:1014A000DB0585E090E0909315048093140460912F
:1014B000140470911504693B710584F086E194E091
:1014C0000E9458056FE070E080E090E00E94CE033B
:1014D00080911404909115040597E5CF65E070E0C4
:1014E00081E194E00E94DB0585E090E090930501A6
:1014F00080930401C0910401D0910501CA3BD1053C
:101500008CF4BE0181E194E00E9458056FE070E028
:1015100080E090E00E94CE032596D0930501C09311
:101520000401E8CF62E082E00E947B0360E08FE08C
:101530000E947B0360E080E10E947B0361E084E025
:101540000E947B0361E087E00E947B0361E088E00A
:101550000E947B0361E088E00E944B0361E087E02A
:101560000E944B0361E084E00E944B0361E089E04C
:101570000E947B0361E08CE00E947B0361E089E0D4
:101580000E944B0361E08CE00E944B0320E042E0AC
:1015900060E188EF93E00E94F90460E080E00E943F
:1015A000BE08C4E0D0E067E571E088EF93E00E94F8
:1015B000260867E771E080E090E00E94CE0388EFA4
:1015C00093E00E94660460E671E088EF93E00E9479
:1015D000260867E771E080E090E00E94CE0388EF84
:1015E00093E00E9466046AE671E088EF93E00E944F
:1015F000260867E771E080E090E00E94CE0388EF64
:1016000093E00E946604219771F660E084E00E94F6
:10161000BE0865E771E088EF93E00E94260860ED60
:1016200077E080E090E00E94CE0388EF93E00E9494
:101630006604C1E0D0E092E0292E312C29EBE22EA5
:10164000F12C35E0C32ED12C42E3842E912CA12C19
:10165000B12C8FE00E94B7038C0190939602809387
:10166000950280E10E94B7033C019093940280931D
:101670009302E0EBF0E08491ECE9F0E05490E8E8CC
:10168000F0E044904420A1F081110E942203E42D57
:10169000F0E0EE0FFF1FE458FF4FA591B4918C913D
:1016A000582291E080E009F490E0292F382F02C001
:1016B00020E030E0F1E02F27822F817080939202AA
:1016C0008091900290919102009709F07CC44CEBBC
:1016D000641642E0740624F0D0939102C093900205
:1016E000053611052CF4D0930C01C0930B010EC0EC
:1016F0000C3B12402CF010920C0110920B0106C012
:10170000232B21F030920C0120920B018EE00E94DD
:10171000B7038C52914090938F0280938E021816DB
:1017200019061CF010928D0203C081E080938D0297
:1017300084EF91E0A0E0B0E080938D0390938E035E
:10174000A0938F03B0939003109291031092920391
:1017500010929303109294038091850390918603D5
:10176000A0918703B09188038093890390938A03A3
:10177000A0938B03B0938C030E94080460938503AD
:101780007093860380938703909388030E940804D4
:10179000009181031091820320918303309184038F
:1017A000DC01CB01801B910BA20BB30B82339105A3
:1017B000A105B10550F4A5019401281B390B4A0B72
:1017C0005B0BCA01B9010E9455090E94080460938D
:1017D00081037093820380938303909384030E9418
:1017E00008042B013C016EE771E08091C1039091E8
:1017F000C2030E9426082AE041E050E060E070E069
:101800008091C1039091C2030E947C0965E871E058
:101810008091C1039091C2030E9426082AE0B3017F
:10182000A2018091C1039091C2030E947C0967E8E4
:1018300071E08091C1039091C2030E9426088091BB
:10184000850390918603A0918703B0918803B3012B
:10185000A201481B590B6A0B7B0B2AE08091C10344
:101860009091C2030E947C0967E871E08091C103F6
:101870009091C2030E9426084091850350918603EF
:1018800060918703709188038091890390918A0306
:10189000A0918B03B0918C03481B590B6A0B7B0BF7
:1018A0002AE08091C1039091C2030E947C0969E8FB
:1018B00071E08091C1039091C2030E94260840907C
:1018C0008B0250908C020091C1031091C203052C31
:1018D000000C6608770877FE12C0D801ED91FC91E4
:1018E0000190F081E02D6DE2C8010995442755274C
:1018F000BA0144195509660977092AE003C02AE0AC
:10190000B301A201C8010E947C090091C10310919A
:10191000C2036BE871E0C8010E94260864E571E02B
:10192000C8010E94260865E070E080E090E00E9417
:1019300055090E9408046093850370938603809381
:1019400087039093880381E10E94B70390938C02F0
:1019500080938B0200910B0110910C0161E0023029
:10196000110531F488E00E944B0360E087E005C078
:1019700087E00E944B0360E088E00E944B03809167
:10198000890290918A02009731F460E089E00E9418
:101990004B0361E007C0019741F461E089E00E94D8
:1019A0004B0360E08CE00E944B030230110509F00C
:1019B000BDC090918D0280910A01992309F459C00C
:1019C00081116CC188EF93E00E94660460E080E0C2
:1019D0000E94BE0862E971E088EF93E00E94260849
:1019E00000910801109109010130110579F461E0BD
:1019F00080E00E94BE086FE971E088EF93E00E94EA
:101A00002608109307010093060110C0012B71F402
:101A100061E080E00E94BE086BEA71E088EF93E02D
:101A20000E9426081092070110920601D092150418
:101A3000C092140460911404709115046A3B7105FE
:101A4000A4F486E194E00E9458056FE070E080E025
:101A500090E00E94CE0380911404909115040596A5
:101A60009093150480931404E5CF81E080930A01DC
:101A700058C0882309F412C188EF93E00E946604DD
:101A800060E080E00E94BE0867EB71E088EF93E0C1
:101A90000E942608009108011091090101301105EA
:101AA00079F461E080E00E94BE086FE971E088EFA0
:101AB00093E00E942608109307010093060110C0CE
:101AC000012B71F461E080E00E94BE086BEA71E0D6
:101AD00088EF93E00E9426081092070110920601F9
:101AE000F0921504E09214046091140470911504AE
:101AF00065307105A4F086E194E00E9458056FE01E
:101B000070E080E090E00E94CE03809114049091F8
:101B1000150405979093150480931404E5CF109253
:101B20000A0188EF93E00E946604B8C001301105F5
:101B300009F058C080910A018111B0C088EF93E08C
:101B40000E94660460E080E00E94BE0864EC71E0E0
:101B500088EF93E00E942608809108019091090186
:101B60008130910579F461E080E00E94BE086FE960
:101B700071E088EF93E00E9426081093070100931C
:101B8000060110C0892B71F461E080E00E94BE085C
:101B90006BEA71E088EF93E00E942608109207013B
:101BA00010920601D0921504C0921404609114049E
:101BB000709115046A3B71050CF057CF86E194E0F3
:101BC0000E9458056FE070E080E090E00E94CE0334
:101BD00080911404909115040596909315048093B8
:101BE0001404E4CF012B09F059C080910A01882325
:101BF00009F454C088EF93E00E94660460E080E03E
:101C00000E94BE0864ED71E088EF93E00E94260810
:101C100000910801109109010130110579F461E08A
:101C200080E00E94BE086FE971E088EF93E00E94B7
:101C30002608109307010093060110C0012B71F4D0
:101C400061E080E00E94BE086BEA71E088EF93E0FB
:101C50000E9426081092070110920601F0921504C6
:101C6000E0921404609114047091150465307105BC
:101C70000CF455CF86E194E00E9458056FE070E0C7
:101C800080E090E00E94CE038091140490911504AE
:101C900005979093150480931404E4CF82EE92E0AC
:101CA0000E949B008497C1F461E070E080E090E0C6
:101CB0000E94CE0382EE92E00E949B008133910548
:101CC00029F410928A021092890206C0C09721F46A
:101CD000D0938A02C09389028091890290918A02EE
:101CE000009709F061C08091080190910901892B4A
:101CF00009F0B9C088EF93E00E94660460E080E0DC
:101D00000E94BE0820910A0180910B0190910C0164
:101D1000222331F08230910549F464EE71E010C065
:101D20008230910519F460EF71E00AC081309105AD
:101D300019F46CEF71E004C0892B31F46CE072E0AF
:101D400088EF93E00E94260861E080E00E94BE08D0
:101D50006CE172E088EF93E00E942608D0920501C2
:101D6000C092040100910401109105010A3B110584
:101D700094F4B80181E194E00E9458056FE070E0AE
:101D800080E090E00E94CE030B5F1F4F109305018F
:101D900000930401E7CF88EF93E00E946604D0939C
:101DA0000901C09308015FC0019709F05CC08091F0
:101DB000080190910901019709F055C088EF93E05F
:101DC0000E94660460E080E00E94BE0820910A0143
:101DD00080910B0190910C01222331F0823091050A
:101DE00049F464EE71E010C08230910519F460EF9F
:101DF00071E00AC08130910519F46CEF71E004C004
:101E0000892B31F46CE072E088EF93E00E942608A1
:101E100061E080E00E94BE0869E272E088EF93E032
:101E20000E942608F0920501E0920401009104014D
:101E3000109105010530110594F0B80181E194E09D
:101E40000E9458056FE070E080E090E00E94CE03B1
:101E5000055011091093050100930401E7CF10927A
:101E600009011092080120910A01809102019091CC
:101E70000301222321F08D7F892BA1F103C001975B
:101E8000029780F180910B0190910C0182309105B5
:101E900038F48091000190910101019749F422C02A
:101EA000029731F48091000190910101892BD1F0CA
:101EB00080910801909109018130910541F4809150
:101EC0000601909107018D7F892B61F09DC0892BC0
:101ED00009F09AC08091060190910701019702973D
:101EE00008F092C088EF93E00E94660460E080E012
:101EF0000E94BE0880910A0100910B0110910C0113
:101F000081111BC00230110559F460EF71E088EFB8
:101F100093E00E94260810920301109202011AC059
:101F2000012B71F56CE072E088EF93E00E942608C7
:101F300010920301109202011FC00230110579F4C2
:101F400064EE71E088EF93E00E942608D0930301CD
:101F5000C0930201D0930101C093000111C0013070
:101F6000110571F46CEF71E088EF93E00E94260890
:101F700010930301009302011092010110920001DD
:101F800061E080E00E94BE08009108011091090103
:101F90000130110559F46FE971E088EF93E00E9478
:101FA000260810930701009306012EC0012B61F54E
:101FB0006BEA71E088EF93E00E9426081092070117
:101FC0001092060121C00197F9F488EF93E00E9476
:101FD0006604309203012092020161E088E00E94D1
:101FE0004B0361E087E00E944B0361E084E00E94C4
:101FF0004B0380919302909194028536910524F4CD
:1020000010929102109290020E94C90022CB10926D
:10201000E5021092E40288EE93E0A0E0B0E0809345
:10202000E6029093E702A093E802B093E90221E16F
:1020300031E03093E3022093E20225EC30E030936C
:10204000EF022093EE0224EC30E03093F102209373
:10205000F00220EC30E03093F3022093F20221EC06
:1020600030E03093F5022093F40222EC30E030931C
:10207000F7022093F60226EC30E03093F902209329
:10208000F8021092FB021092FC021092FD021092D4
:10209000FE0210928503109286031092870310921D
:1020A00088031092890310928A0310928B03109276
:1020B0008C0310928D0310928E0310928F03109256
:1020C0009003109291031092920310929303109236
:1020D00094031092CA031092C9038093CB03909388
:1020E000CC03A093CD03B093CE0383E291E0909311
:1020F000C8038093C7038091F7038C30A0F491E06C
:10210000980F9093F7038093160490E0FC01EE0F74
:10211000FF1F8E0F9F1FFC01ED52FC4F88EB9BE0D1
:102120009283818303C08FEF80931604109215046D
:10213000109214048091F7038C30A0F491E0980F72
:102140009093F7038093110490E0FC01EE0FFF1FC2
:102150008E0F9F1FFC01ED52FC4F88EB9BE092839A
:10216000818303C08FEF809311041092FB031092C0
:10217000FA0385E391E09093F9038093F8031092BA
:1021800008048FEF8093070410920604109209044C
:102190008FE38093030410920404109205041092BC
:1021A00002041092010484E080930A0482E0809388
:1021B0000B0481E080930C0480E180930D0480E2A5
:1021C00080930E0480E480930F0480E880931004D1
:1021D00040E050E063E088EF93E00C94F800A1E267
:1021E0001A2EAA1BBB1BFD010DC0AA1FBB1FEE1F91
:1021F000FF1FA217B307E407F50720F0A21BB30BDC
:10220000E40BF50B661F771F881F991F1A9469F757
:1022100060957095809590959B01AC01BD01CF01B3
:102220000895052E97FB1EF400940E94281157FD77
:1022300007D00E94EF1007FC03D04EF40C94281135
:1022400050954095309521953F4F4F4F5F4F0895E2
:1022500090958095709561957F4F8F4F9F4F089512
:102260000E944311A59F900DB49F900DA49F800DD7
:10227000911D11240895B7FF0C9430110E94301164
:10228000821B930B0895A29FB001B39FC001A39F2F
:10229000700D811D1124911DB29F700D811D11249F
:1022A000911D0895991B79E004C0991F961708F0B5
:1022B000961B881F7A95C9F780950895EE0FFF1F2A
:1022C0000590F491E02D099481E090E0F8940C944D
:0622D0006911F894FFCF34
:1022D60001000200050002000100010200000000EA
:1022E60000B9026B088C000003BD009B00AF000024
:1022F600000000A1017101D1014B0169015A014C95
:1023060001000000000C016B08D101D001F904F8AE
:10231600004C022B02564D4450565F317C315F56BD
:102326004D4450560D0A004C6F6164696E672E006D
:102336004C6F6164696E672E2E004C6F6164696E26
:10234600672E2E2E0057656C636F6D652100564D06
:102356004450455F003A323A007C005F564D445087
:1023660045004D31203A20436C6F73696E67004D0E
:1023760032203A20436C6F736564004D32203A2058
:102386004F70656E6564004D31203A204F70656E62
:10239600696E67004D31203A20436C6F73696E6732
:1023A600284629004D31203A204F70656E696E67C8
:1023B600284629004D31203A20436C6F736564002E
:1023C6004D31203A204F70656E6564004D31203ADC
:1023D60020436C6F73656420284629004D31203AEE
:1023E600204F70656E656420284629004D32203ADC
:1023F60020436C6F73696E67004D32203A204F7030
:06240600656E696E6700BF
:00000001FF
