:100000000C9462000C948A000C948A000C948A0070
:100010000C948A000C948A000C948A000C948A0038
:100020000C948A000C948A000C948A000C945B0651
:100030000C948A000C948A000C948A000C948A0018
:100040000C9438040C948A000C948F010C94690170
:100050000C948A000C948A000C948A000C948A00F8
:100060000C941C070C948A00000000002500280056
:100070002B000000000023002600290004040404D3
:100080000404040402020202020203030303030342
:10009000010204081020408001020408102001021F
:1000A00004081020000000080002010000030407FB
:1000B00000000000000000000000000024002700F5
:1000C0002A00160F11241FBECFEFD8E0DEBFCDBF30
:1000D00012E0A0E0B1E0E4EBF0E202C005900D9286
:1000E000A03BB107D9F724E0A0EBB2E001C01D921C
:1000F000AD34B207E1F710E0C2E6D0E004C02197CA
:10010000FE010E944D10C136D107C9F70E941B099C
:100110000C9458100C940000FC01538D448D252F35
:1001200030E0842F90E0821B930B541710F0CF9691
:10013000089501970895FC01918D828D981761F0C3
:10014000828DDF01A80FB11D5D968C91928D9F5F0E
:100150009F73928F90E008958FEF9FEF0895FC01B9
:10016000918D828D981731F0828DE80FF11D858D6C
:1001700090E008958FEF9FEF0895FC01918D228DFF
:10018000892F90E0805C9F4F821B91098F73992784
:1001900008958EE593E00E94BD0021E0892B09F4CB
:1001A00020E0822F0895FC01848DDF01A80FB11D8E
:1001B000A35ABF4F2C91848D90E001968F7399279D
:1001C000848FA689B7892C93A089B1898C9180648A
:1001D0008C93938D848D981306C00288F389E02D4B
:1001E00080818F7D80830895EF92FF920F931F93FC
:1001F000CF93DF93EC0181E0888F9B8D8C8D9813DA
:1002000005C0E889F989808185FD24C0F62E0B8D13
:1002100010E00F5F1F4F0F731127E02E8C8DE81237
:100220000CC00FB607FCFACFE889F989808185FFF9
:10023000F5CFCE010E94D300F1CF8B8DFE01E80FE8
:10024000F11DE35AFF4FF0820B8FEA89FB89808111
:10025000806207C0EE89FF896083E889F98980811F
:100260008064808381E090E0DF91CF911F910F91B6
:10027000FF90EF900895CF93DF93EC01888D882352
:10028000C9F0EA89FB89808185FD05C0A889B98903
:100290008C9186FD0FC00FB607FCF5CF808185FFDE
:1002A000F2CFA889B9898C9185FFEDCFCE010E944C
:1002B000D300E7CFDF91CF91089580E090E0892BC4
:1002C00029F00E94C90081110C94000008950E9439
:1002D00053101F920F920FB60F9211242F933F933A
:1002E0004F935F936F937F938F939F93AF93BF933E
:1002F000EF93FF938EE593E00E94D300FF91EF917F
:10030000BF91AF919F918F917F916F915F914F912D
:100310003F912F910F900FBE0F901F9018951F9235
:100320000F920FB60F9211242F938F939F93EF93F9
:10033000FF93E0916E03F0916F038081E09174036D
:10034000F091750382FD12C09081809177038F5FD9
:100350008F7320917803821751F0E0917703F0E0DA
:10036000E25AFC4F958F8093770301C08081FF9103
:10037000EF919F918F912F910F900FBE0F901F9033
:1003800018951F93CF93DF93282F30E0F901EC5598
:10039000FF4F8491F901E057FF4FD491F901E458E0
:1003A000FF4FC491CC23C9F0162F81110E94820304
:1003B000EC2FF0E0EE0FFF1FE859FF4FA591B4912D
:1003C0008FB7F894111105C09C91ED2FE095E923AA
:1003D00002C0EC91ED2BEC938FBFDF91CF911F9179
:1003E00008953FB7F89480910F0390911003A09166
:1003F0001103B091120326B5A89B05C02F3F19F039
:100400000196A11DB11D3FBFBA2FA92F982F882794
:10041000820F911DA11DB11DBC01CD0142E0660FEF
:10042000771F881F991F4A95D1F7089521E001C0D1
:10043000220F6A95EAF7DC011C962C931C971A96FA
:100440005C934E931997ED91FC910484F585E02D12
:1004500060E00994DC01ED91FC910684F785E02DC4
:1004600041E0099581E090E008950895089585EDB3
:100470008093BC008091BC0084FDFCCF10923903B6
:1004800008954091E202262F30E0240F311D2132E1
:100490003105DCF4209139032430C9F4FC0180E0FB
:1004A00090E0861758F43091E2022191DC01A054CB
:1004B000BD4FA30FB11D2C930196F3CF8091E202A3
:1004C000680F6093E20280E0089581E0089582E081
:1004D0000895089581E090E0309109032091080388
:1004E000321710F480E090E091958195910908957C
:1004F0008091090390910803891730F48F5F8093EE
:10050000090380E090E008958FEF9FEF08958091B8
:10051000080390E020910903821B91090895CF926E
:10052000DF92EF92FF920F931F93CF93DF937C01A3
:10053000262F972F8A0180913A03882391F0C62FA6
:10054000D72F6E01C40ED51ECC15DD0571F0699153
:10055000D701ED91FC910190F081E02DC701099543
:10056000F3CF642F822F0E944102C801DF91CF9107
:100570001F910F91FF90EF90DF90CF900895CF9350
:10058000DF931F92CDB7DEB7698320913A03222310
:10059000D1F020915D03203240F021E030E0FC01F9
:1005A0003383228380E090E015C080913B03E82FE5
:1005B000F0E0E45CFC4F998190838F5F80933B0374
:1005C00080935D0305C061E0CE0101960E94410267
:1005D00081E090E00F90DF91CF910895089580E041
:1005E00090E00895FC0123812223B9F09181909538
:1005F00069236083828191E090933A0380935C0346
:1006000010923B0310925D038BEF93E00E94BF02B8
:100610000E94BE08282F30E002C020E030E081E0D8
:1006200090E0232B11F080E090E00895EF92FF928C
:100630000F931F93CF938C01FC01759684E0C0E06B
:1006400060FF02C09081C92B66958150319681115F
:10065000F7CF413011F4F8014489F8018585C82BA2
:10066000C42B7801FEE0EF0EF11CF80162896C2BBF
:10067000C7010E94F202F801628960956C23C701EC
:10068000CF911F910F91FF90EF900C94F2020F9376
:100690001F93CF93DF93062F0F70423019F440E081
:1006A000602F10C0142F262FEC0130E0B90184E038
:1006B000759567958A95E1F7CE010E941603412F43
:1006C000602FCE01DF91CF911F910F910C941603F3
:1006D000FC0184858823A9F0218532852115310507
:1006E00019F4611106C007C02130310521F46111F0
:1006F00002C0858701C015866585CF010E960C94D2
:10070000F2020895833081F028F4813099F082302C
:10071000A1F008958730A9F08830B9F08430D1F481
:10072000809180008F7D03C0809180008F778093BF
:100730008000089584B58F7702C084B58F7D84BD15
:1007400008958091B0008F7703C08091B0008F7DB5
:100750008093B0000895CF93DF9390E0FC01E057C1
:10076000FF4F2491FC01E458FF4F8491882361F1ED
:1007700090E0880F991FFC01E854FF4FC591D49178
:10078000FC01E859FF4FA591B491611109C09FB7D1
:10079000F8948881209582238883EC912E230BC0C6
:1007A000623061F49FB7F8943881822F809583235B
:1007B0008883EC912E2B2C939FBF06C08FB7F894A3
:1007C000E8812E2B28838FBFDF91CF9108958E3043
:1007D00008F08E508770806480937C0080917A004E
:1007E000806480937A0080917A0086FDFCCF8091AE
:1007F00078002091790090E0922B08958F929F923B
:10080000AF92BF92CF92DF92EF92FF926B017C0189
:100810000E94F1014B015C01C114D104E104F10417
:10082000F1F00E94F101DC01CB0188199909AA09B4
:10083000BB09883E9340A105B10570F321E0C21ABF
:10084000D108E108F10888EE880E83E0981EA11C0B
:10085000B11CC114D104E104F10419F7DDCFFF90FC
:10086000EF90DF90CF90BF90AF909F908F900895C2
:100870001F920F920FB60F9211242F933F938F93D5
:100880009F93AF93BF9380910B0390910C03A09122
:100890000D03B0910E0330910A0323E0230F2D378F
:1008A00020F40196A11DB11D05C026E8230F029674
:1008B000A11DB11D20930A0380930B0390930C0399
:1008C000A0930D03B0930E0380910F03909110033A
:1008D000A0911103B09112030196A11DB11D809347
:1008E0000F0390931003A0931103B0931203BF91D1
:1008F000AF919F918F913F912F910F900FBE0F90CD
:100900001F901895DC01ED91FC910684F785E02D90
:1009100040E0099461E00E9482048BE39FE101972B
:10092000F1F708950F931F93CF93DF93EC014230BB
:1009300018F08C8188608C834F836887222329F08C
:10094000413019F48C8184608C8364E670E080E02F
:1009500090E00E94FE036C8164FD31C0E881F98162
:100960000684F785E02D42E063E0CE0109958BE433
:1009700096E40197F1F7E881F9810684F785E02D87
:1009800042E063E0CE01099503E512E0C80101975A
:10099000F1F7E881F9810684F785E02D42E063E014
:1009A000CE010995C8010197F1F7E881F981068424
:1009B000F785E02D42E062E0CE01099517C0606244
:1009C000CE010E9482048BE496E40197F1F76C81DA
:1009D0006062CE010E94820403E512E0C801019723
:1009E000F1F76C816062CE010E948204C801019718
:1009F000F1F76C816062CE010E9482048BEE90E080
:100A00000197F1F784E08D836CE0CE010E948204AF
:100A1000CE010E948A0482E08E8366E0CE010E94AD
:100A20008204E881F9810484F585E02D6FEFCE0121
:100A3000DF91CF911F910F910994EF92FF920F9345
:100A40001F93CF93DF93EC01062FF42EE22E8B85BC
:100A5000888B109209031092080310923B031092A6
:100A60005D031092390311E01093380310921303C1
:100A700061E082E10E94C10161E083E10E94C10165
:100A80008091B9008E7F8093B9008091B9008D7FED
:100A90008093B90088E48093B80085E48093BC001B
:100AA000888910933A0380935C0310923B03109261
:100AB0005D030E94BE0891E0811190E0998B99231B
:100AC00029F08BEF93E00E9478028E878989882332
:100AD00039F01F861C8260E0CE010E960E94F20261
:100AE0002E2D4F2D602FCE01DF91CF911F910F91B1
:100AF000FF90EF900C949204CF92DF92EF92FF92CE
:100B0000CF93DF93EC01603282E078070CF03DC0B8
:100B100077FD06C0653B71052CF064EB70E002C008
:100B200060E070E0898128E830E06901C81AD108E6
:100B300087FDD394CC0CDD1CCC0CDD1C0D2C000CE3
:100B4000EE08FF088A8128E532E0281B310987FD7D
:100B50003395220F331F220F331FC901330FAA0B06
:100B6000BB0B9C01AD012C193D094E095F09DB014E
:100B70000E94081024EB30E040E050E00E94DE0FBD
:100B8000C20ED31EE41EF51EB60188818C3080F59E
:100B9000998148E850E0491B510997FD5395440F4E
:100BA000551F440F551F6417750784F09A8128E577
:100BB00032E0291B310997FD3395220F331F220F95
:100BC000331FAB01261737070CF4A9014250510916
:100BD000440F551F2FB7F89490E0FC01EE0FFF1F54
:100BE0008E0F9F1FFC01E95FFB4F528341832FBF94
:100BF000DF91CF91FF90EF90DF90CF9008951F93FA
:100C0000CF93DF93EC01162F88818C3008F04EC013
:100C100061E0812F0E94AB038881E82FF0E09F0103
:100C2000220F331FE20FF31FE95FFB4F1F73908109
:100C3000907C192B108319821A826CE00E9441105B
:100C40009CE0899FB001112440E050E09A01260FFA
:100C5000371FF901EE0FFF1F2E0F3F1FF901E95F4C
:100C6000FB4F908196FD16C04F5F5F4F4C30510592
:100C700069F781110FC01092800082E0809381009B
:100C80001092850010928400B19A80916F0082606A
:100C900080936F00E881F0E0CF01880F991FE80F83
:100CA000F91FE95FFB4F8081806480838881DF9139
:100CB000CF911F9108951F920F920FB60F9211249A
:100CC0002F933F934F935F936F937F938F939F9354
:100CD000AF93BF93EF93FF938091070387FF05C006
:100CE00010928500109284001BC020910703022EF1
:100CF000000C330B80912B0490E02817390784F403
:100D000080910703082E000C990BFC01EE0FFF1FCA
:100D10008E0F9F1FFC01E95FFB4F808186FD15C090
:100D2000809107038F5F8093070320910703022EB2
:100D3000000C330B80912B0490E028173907C4F482
:100D4000809107038C3064F113C080910703082E53
:100D5000000C990BFC01EE0FFF1F8E0F9F1FFC0173
:100D6000E95FFB4F808160E08F730E94C101D8CFA3
:100D70008091840090918500049680349C4918F4F9
:100D800080E49CE905C080918400909185000496E0
:100D900090938900809388008FEF809307033BC076
:100DA000209184003091850080910703082E000C6B
:100DB000990BFC01EE0FFF1F8E0F9F1FFC01E95FD7
:100DC000FB4F81819281820F931F909389008093C2
:100DD000880080910703082E000C990BFC01EE0F90
:100DE000FF1F8E0F9F1FFC01E95FFB4F808186FF75
:100DF00012C080910703082E000C990BFC01EE0F26
:100E0000FF1F8E0F9F1FFC01E95FFB4F808161E098
:100E10008F730E94C101FF91EF91BF91AF919F919C
:100E20008F917F916F915F914F913F912F910F9093
:100E30000FBE0F901F9018951F920F920FB60F9232
:100E400011242F933F934F935F936F937F938F93CF
:100E50009F93AF93BF93EF93FF938091B900887FE7
:100E6000803609F49CC068F5883209F45BC090F4C0
:100E7000803109F454C038F4882309F4F6C088306E
:100E800009F44DC0F6C0883109F44CC0803209F431
:100E90005DC0EFC0803409F468C048F4803309F4C1
:100EA00055C0883309F0E5C080933703D8C080353A
:100EB00009F44FC0883509F45DC0883409F0D9C001
:100EC000D6C0883909F4C7C0A8F4883709F467C0C8
:100ED00038F4883609F463C0803709F460C0C9C0AB
:100EE000883809F4B8C0803909F45FC0803809F047
:100EF000C0C05BC0803B09F486C038F4803A09F476
:100F000066C0883A09F47FC0B4C0803C09F4A7C029
:100F1000883C09F4A4C0883B09F48AC0AAC0809127
:100F2000140310C09091360380913503981770F523
:100F3000E091360381E08E0F80933603F0E0EB5EA4
:100F4000FC4F80818093BB0085EC86C08093370383
:100F50008EC0E091360381E08E0F8093360380913E
:100F6000BB00F0E0EB5EFC4F8083909136038091F4
:100F700035036EC0E091360381E08E0F8093360317
:100F80008091BB00F0E0EB5EFC4F808380913803E2
:100F900081116DC081E08093130384EA61C083E016
:100FA0008093390310920603CFCF809106038032DD
:100FB00008F051C0E091060381E08E0F8093060394
:100FC0008091BB00F0E0EA51FD4F8083BDCF85ECFE
:100FD0008093BC001092390380910603803230F474
:100FE000E0910603F0E0EA51FD4F108260910603A4
:100FF00070E0E091E402F091E50286EE92E009955E
:101000001092060336C084E0809339031092E30205
:101010001092E202E091E002F091E10209958091E4
:10102000E202811105C081E08093E2021092C002C9
:10103000E091E30281E08E0F8093E302F0E0E05460
:10104000FD4F80818093BB009091E3028091E2028A
:10105000981708F479CF85E88093BC000AC085EC26
:101060008093BC001092390304C0109237030E9491
:101070003702FF91EF91BF91AF919F918F917F9137
:101080006F915F914F913F912F910F900FBE0F90F5
:101090001F901895CF92DF92EF92FF920F931F93BC
:1010A000CF93DF936C017A018B01C0E0D0E0CE15C5
:1010B000DF0589F0D8016D918D01D601ED91FC918C
:1010C0000190F081E02DC6010995892B11F47E0174
:1010D00002C02196ECCFC701DF91CF911F910F91F4
:1010E000FF90EF90DF90CF900895009769F0FC019A
:1010F00001900020E9F73197AF01481B590BBC0163
:101100008CE294E00C944A0880E090E00895CF933C
:10111000DF93CDB7DEB728970FB6F894DEBF0FBECA
:10112000CDBF1D8290E49E8324E12F8324E5288790
:1011300019829A8390E19B8390E59C8320913304EC
:10114000821710F08FEF820F3091340490E0FE018F
:10115000E80FF91F303121F4243011F4618101C00E
:10116000658160688CE294E028960FB6F894DEBF43
:101170000FBECDBFDF91CF910C94820420915D030F
:1011800090915C03213208F04AC0809139038111AB
:10119000FCCF32E03093390331E0309338033FEF36
:1011A000309337031092360320933503ACE3B3E05A
:1011B00045E153E0FA013E2F341B321718F43D91FC
:1011C0003193F9CF1092140320911403990F922BAD
:1011D0009093140390911303913061F410921303D0
:1011E000909114039093BB009091BC0093FDF8CFB5
:1011F00095EC01C095EE9093BC009091390392302C
:10120000E1F3909137039F3F79F08091370380326B
:1012100041F080913703803331F084E005C081E0F4
:1012200003C082E001C083E010923B0310925D0393
:1012300010923A030895CF93DF9300D0CDB7DEB775
:10124000789484B5826084BD84B5816084BD85B5A1
:10125000826085BD85B5816085BD80916E008160AD
:1012600080936E0010928100809181008260809353
:101270008100809181008160809381008091800055
:101280008160809380008091B10084608093B10080
:101290008091B00081608093B00080917A0084607A
:1012A00080937A0080917A00826080937A008091A6
:1012B0007A00816080937A0080917A0080688093C0
:1012C0007A001092C100E0916E03F0916F0382E00A
:1012D0008083E0916A03F0916B031082E0916C03CC
:1012E000F0916D0380E1808310927603E0917203A8
:1012F000F091730386E08083E0917003F0917103B5
:10130000808180618083E0917003F091710380811E
:1013100088608083E0917003F09171038081806820
:101320008083E0917003F091710380818F7D8083D1
:1013300060E08EE00E94AB0360E081E10E94AB03BD
:1013400063E070E08AE494E00E94FF0585E090E0AD
:101350009093490480934804609148047091490433
:101360006A3B710584F48AE494E00E947C056FE096
:1013700070E080E090E00E94FE038091480490912C
:1013800049040596E5CF65E070E085E494E00E94AD
:10139000FF0585E090E090930501809304010091A2
:1013A0000401109105010A3B110594F4B80185E48C
:1013B00094E00E947C056FE070E080E090E00E9485
:1013C000FE030B5F1F4F1093050100930401E7CF4D
:1013D00062E082E00E94AB0360E08FE00E94AB031A
:1013E00060E080E10E94AB0361E084E00E94AB0317
:1013F00061E087E00E94AB0361E088E00E94AB03FC
:1014000060E088E00E94C10160E087E00E94C101C5
:1014100060E084E00E94C10161E089E00E94AB03CA
:1014200061E08CE00E94AB0361E089E00E94C101B1
:1014300061E08CE00E94C10120E042E060E18CE2CA
:1014400094E00E941D0580E00E94870803E010E000
:1014500085E491E00E94750867E771E080E090E024
:101460000E94FE038CE294E00E948A048EE491E0E4
:101470000E94750867E771E080E090E00E94FE033B
:101480008CE294E00E948A0488E591E00E9475084D
:1014900067E771E080E090E00E94FE038CE294E058
:1014A0000E948A040150110999F680E00E94870881
:1014B00083E691E00E94750881E00E94870884E736
:1014C00091E00E94750868EE73E080E090E00E9471
:1014D000FE038CE294E00E948A0480E00E94870868
:1014E00085E891E00E94750881E00E94870886E9FE
:1014F00091E00E94750868EE73E080E090E00E9441
:10150000FE038CE294E00E948A0480E00E94870837
:1015100087EA91E00E94750881E00E94870888EBC5
:1015200091E00E94750868EE73E080E090E00E9410
:10153000FE038CE294E00E948A0480E00E94870807
:1015400089EC91E00E94750881E00E9487088AED8D
:1015500091E00E94750868EE73E080E090E00E94E0
:10156000FE038CE294E00E948A0480E00E948708D7
:1015700089EE91E00E94750881E00E9487088AEF59
:1015800091E00E94750868EE73E080E090E00E94B0
:10159000FE038CE294E00E948A0496EA492E90E0D1
:1015A000592E22E9622E20E0722E3EE7832E30E093
:1015B000932E42E0A42EB12C59EBC52ED12C65E020
:1015C000E62EF12C8FE00E94E7038C019093BF027E
:1015D0008093BE0280E10E94E7031C019093BD024C
:1015E0008093BC02F2018491F3019491F40124915F
:1015F0002223C9F0882331F02A8399830E94820331
:1016000099812A81E22FF0E0EE0FFF1FEE58FF4F85
:10161000A591B4918C91982331E020E009F430E059
:10162000832F922F02C080E090E0F1E08F27282FD7
:1016300021702093BB022091B9023091BA0221158A
:10164000310509F072C32CEB221622E0320634F089
:10165000E1E0F0E0F093BA02E093B902053611053B
:101660003CF421E030E030930C0120930B010EC0DC
:101670000C3B12402CF010920C0110920B0106C092
:10168000892B21F0B0920C01A0920B018EE00E94F8
:10169000E703845691099093B8028093B702181615
:1016A00019061CF01092B60203C081E08093B602C6
:1016B00081E10E94E703845691099093B5028093DB
:1016C000B402181619061CF01092B30203C081E090
:1016D0008093B30200910B0110910C0160E0023085
:1016E000110531F488E00E94C10161E087E005C086
:1016F00087E00E94C10161E088E00E94C101809101
:10170000B1029091B202009731F460E089E00E944A
:10171000C10161E007C0019741F461E089E00E94E6
:10172000C10160E08CE00E94C1010230110509F0A6
:10173000B1C08091B602882309F452C080910A0199
:1017400081114EC08CE294E00E948A0480E00E94E5
:1017500087088BE092E00E947508009108011091C3
:1017600009010130110561F481E00E94870888E1D8
:1017700092E00E94750810930701009306010DC0C6
:10178000012B59F481E00E94870884E292E00E94D4
:1017900075081092070110920601F0924904E09238
:1017A000480460914804709149046A3B7105A4F4AF
:1017B0008AE494E00E947C056FE070E080E090E0B5
:1017C0000E94FE03809148049091490405969093ED
:1017D000490480934804E5CF81E080930A0155C015
:1017E0008091B3028111FCC080910A01882309F421
:1017F000F7C08CE294E00E948A0480E00E9487088F
:1018000080E392E00E94750800910801109109019F
:101810000130110561F481E00E94870888E192E0BF
:101820000E94750810930701009306010DC0012B5B
:1018300059F481E00E94870884E292E00E947508D2
:101840001092070110920601D0924904C0924804F8
:10185000609148047091490465307105A4F08AE4F0
:1018600094E00E947C056FE070E080E090E00E94D0
:10187000FE03809148049091490405979093490490
:1018800080934804E5CF10920A018CE294E00E9414
:101890008A04A6C00130110509F04FC080910A01E9
:1018A00081119EC08CE294E00E948A0480E00E9434
:1018B00087088DE392E00E9475088091080190915D
:1018C00009018130910561F481E00E94870888E177
:1018D00092E00E94750810930701009306010DC065
:1018E000892B59F481E00E94870884E292E00E94EB
:1018F00075081092070110920601F0924904E092D7
:10190000480460914804709149046A3B71050CF0E9
:1019100063CF8AE494E00E947C056FE070E080E091
:1019200090E00E94FE03809148049091490405963E
:101930009093490480934804E4CF012B09F050C0F0
:1019400080910A01882309F44BC08CE294E00E9444
:101950008A0480E00E9487088DE492E00E94750866
:1019600000910801109109010130110561F481E035
:101970000E94870888E192E00E9475081093070191
:10198000009306010DC0012B59F481E00E948708E5
:1019900084E292E00E9475081092070110920601FD
:1019A000D0924904C092480460914804709149045F
:1019B000653071050CF467CF8AE494E00E947C05E1
:1019C0006FE070E080E090E00E94FE0380914804A8
:1019D0009091490405979093490480934804E4CF7B
:1019E0008EE593E00E949B008497D1F461E070E063
:1019F00080E090E00E94FE038EE593E00E949B0051
:101A00008133910529F41092B2021092B10208C0FC
:101A1000C09731F481E090E09093B2028093B102DC
:101A20008091B1029091B202009709F05FC01092CC
:101A3000B0028091080190910901892B09F05FC0E3
:101A40008CE294E00E948A0480E00E948708209142
:101A50000A0180910B0190910C01222331F0823018
:101A6000910549F48DE592E010C08230910519F49A
:101A700089E692E00AC08130910519F485E792E089
:101A800004C0892B21F485E892E00E94750881E06A
:101A90000E94870885E992E00E947508F09205018E
:101AA000E092040100910401109105010A3B110527
:101AB00094F4B80185E494E00E947C056FE070E046
:101AC00080E090E00E94FE030B5F1F4F1093050122
:101AD00000930401E7CF8CE294E00E948A04E1E0E5
:101AE000F0E0F0930901E093080109C0019739F48F
:101AF0008091080190910901019709F43BC18091FF
:101B0000B002882309F467C08091B1029091B202BB
:101B1000019709F060C08091080190910901892B1B
:101B200009F059C08091B302811155C08CE294E054
:101B30000E948A0480E00E94870820910A01809117
:101B40000B0190910C01222331F08230910549F470
:101B50008DE592E010C08230910519F489E692E09B
:101B60000AC08130910519F485E792E004C0892B01
:101B700021F485E892E00E94750881E00E948708C0
:101B800085E992E00E947508F0920501E092040157
:101B900000910401109105010A3B110594F4B8016C
:101BA00085E494E00E947C056FE070E080E090E0C6
:101BB0000E94FE030B5F1F4F109305010093040169
:101BC000E7CF8CE294E00E948A0421E030E0309379
:101BD00009012093080120910A018091020190914E
:101BE0000301222321F08D7F892BA1F103C00197EE
:101BF000029780F180910B0190910C018230910548
:101C000038F48091000190910101019749F422C0BC
:101C1000029731F48091000190910101892BD1F05C
:101C200080910801909109018130910541F48091E2
:101C30000601909107018D7F892B61F098C0892B57
:101C400009F095C0809106019091070101970297D4
:101C500008F08DC08CE294E00E948A0480E00E942B
:101C6000870880910A0100910B0110910C018111EC
:101C70001DC00230110579F489E692E00E947508D2
:101C8000109203011092020181E090E09093010113
:101C9000809300012CC0012B51F585E892E00E9451
:101CA000750810920301109202011DC00230110547
:101CB00079F48DE592E00E947508E1E0F0E0F093A0
:101CC0000301E0930201F0930101E09300010FC0D2
:101CD0000130110561F485E792E00E9475081093C8
:101CE000030100930201109201011092000181E0B2
:101CF0000E94870800910801109109010130110527
:101D000049F488E192E00E9475081093070100935E
:101D100006012DC0012B59F584E292E00E9475085E
:101D2000109207011092060122C021303105F9F40A
:101D30008CE294E00E948A04B0920301A092020116
:101D400060E088E00E94C10160E087E00E94C1017C
:101D500060E084E00E94C1018091BC029091BD02CC
:101D60008536910524F41092BA021092B9020E94AD
:101D70005D0128CC8091B0028111C1CE8091B60264
:101D8000882309F4BCCE8CE294E00E948A0480E0AF
:101D90000E94870820910A0180910B0190910C010B
:101DA000222331F08230910549F48DE592E010C094
:101DB0008230910519F489E692E00AC081309105DC
:101DC00019F485E792E004C0892B21F485E892E0BC
:101DD0000E94750881E00E94870882EA92E00E94D2
:101DE0007508D0920501C092040100910401109180
:101DF00005010530110594F0B80185E494E00E94D6
:101E00007C056FE070E080E090E00E94FE030550EA
:101E100011091093050100930401E7CF81E080933D
:101E2000B002109209011092080169CE109261036C
:101E30001092600388EE93E0A0E0B0E0809362032C
:101E400090936303A0936403B093650321E131E0B1
:101E500030935F0320935E0325EC30E030936B03F7
:101E600020936A0324EC30E030936D0320936C03DD
:101E700020EC30E030936F0320936E0321EC30E0D0
:101E8000309371032093700322EC30E0309373039E
:101E90002093720326EC30E0309375032093740393
:101EA00010927703109278031092790310927A03BC
:101EB0001092FE031092FD038093FF0390930004A1
:101EC000A0930104B093020483E291E09093FC0399
:101ED0008093FB0380912B048C30A0F491E0980F49
:101EE00090932B0480934A0490E0FC01EE0FFF1FB7
:101EF0008E0F9F1FFC01E95FFB4F88EB9BE09283F5
:101F0000818303C08FEF80934A041092490410929A
:101F1000480480912B048C30A0F491E0980F9093AA
:101F20002B048093450490E0FC01EE0FFF1F8E0F01
:101F30009F1FFC01E95FFB4F88EB9BE0928381834D
:101F400003C08FEF8093450410922F0410922E044B
:101F500085E391E090932D0480932C0410923C042F
:101F60008FEF80933B0410923A0410923D048FE36C
:101F7000809337041092380410923904109236047A
:101F80001092350484E080933E0482E080933F0405
:101F900081E08093400480E18093410480E280935B
:101FA000420480E48093430480E88093440440E04A
:101FB00050E063E08CE294E00C941602052E97FB4F
:101FC0001EF400940E94F50F57FD07D00E941010D8
:101FD00007FC03D04EF40C94F50F509540953095C6
:101FE00021953F4F4F4F5F4F089590958095709585
:101FF00061957F4F8F4F9F4F08950E943210A59F8C
:10200000900DB49F900DA49F800D911D11240895F3
:10201000B7FF0C94FD0F0E94FD0F821B930B0895D8
:10202000A1E21A2EAA1BBB1BFD010DC0AA1FBB1FDC
:10203000EE1FFF1FA217B307E407F50720F0A21B4E
:10204000B30BE40BF50B661F771F881F991F1A94BB
:1020500069F760957095809590959B01AC01BD01E5
:10206000CF010895A29FB001B39FC001A39F700D3F
:10207000811D1124911DB29F700D811D1124911D90
:102080000895991B79E004C0991F961708F0961BD4
:10209000881F7A95C9F780950895EE0FFF1F059068
:1020A000F491E02D099481E090E0F8940C9458109C
:0420B000F894FFCFD2
:1020B400010002000500020001000102000000000E
:1020C40000F4004A088C003B01BD009B00AF0000F7
:1020D400000000BF028F02EF026902870278026AE1
:1020E40002000000002A024A08EF02EE021D051653
:1020F40002680347034C6F6164696E672E004C6F7E
:102104006164696E672E2E004C6F6164696E672E80
:102114002E2E0020202062793A20486F7373616D5F
:10212400202020002020202020415A5A4F555A2098
:10213400202020200020202020202641796F756255
:102144002020202020002020202020444144414EF3
:1021540049202020202000202020264E6F75616118
:102164006D616E65202020002020204149542044C8
:10217400414F5544202020200020262041626465E0
:10218400727261686D616E6520002020204452499E
:102194004F5543482020202000202020202659612C
:1021A4007373696E6520202020002020426F756CB7
:1021B40061616C616D6174202020004D31203A20F2
:1021C400436C6F73696E67004D32203A20436C6F25
:1021D400736564004D32203A204F70656E6564006B
:1021E4004D31203A204F70656E696E67004D312085
:1021F4003A20436C6F73696E67284629004D31207D
:102204003A204F70656E696E67284629004D31206B
:102214003A20436C6F736564004D31203A204F704F
:10222400656E6564004D31203A20436C6F736564BC
:1022340020284629004D31203A204F70656E656490
:1022440020284629004D32203A20436C6F73696E72
:1022540067004D32203A204F70656E696E6700004A
:107E0000112484B714BE81FFF0D085E080938100F7
:107E100082E08093C00088E18093C10086E0809377
:107E2000C20080E18093C4008EE0C9D0259A86E02C
:107E300020E33CEF91E0309385002093840096BBD3
:107E4000B09BFECF1D9AA8958150A9F7CC24DD24C4
:107E500088248394B5E0AB2EA1E19A2EF3E0BF2EE7
:107E6000A2D0813461F49FD0082FAFD0023811F036
:107E7000013811F484E001C083E08DD089C08234E0
:107E800011F484E103C0853419F485E0A6D080C0E4
:107E9000853579F488D0E82EFF2485D0082F10E0AE
:107EA000102F00270E291F29000F111F8ED06801E7
:107EB0006FC0863521F484E090D080E0DECF843638
:107EC00009F040C070D06FD0082F6DD080E0C81688
:107ED00080E7D80618F4F601B7BEE895C0E0D1E017
:107EE00062D089930C17E1F7F0E0CF16F0E7DF06D8
:107EF00018F0F601B7BEE89568D007B600FCFDCFD4
:107F0000A601A0E0B1E02C9130E011968C91119780
:107F100090E0982F8827822B932B1296FA010C0160
:107F200087BEE89511244E5F5F4FF1E0A038BF0790
:107F300051F7F601A7BEE89507B600FCFDCF97BE46
:107F4000E89526C08437B1F42ED02DD0F82E2BD052
:107F50003CD0F601EF2C8F010F5F1F4F84911BD097
:107F6000EA94F801C1F70894C11CD11CFA94CF0C13
:107F7000D11C0EC0853739F428D08EE10CD085E9AC
:107F80000AD08FE07ACF813511F488E018D01DD067
:107F900080E101D065CF982F8091C00085FFFCCF94
:107FA0009093C60008958091C00087FFFCCF809118
:107FB000C00084FD01C0A8958091C6000895E0E648
:107FC000F0E098E1908380830895EDDF803219F02E
:107FD00088E0F5DFFFCF84E1DECF1F93182FE3DFCA
:107FE0001150E9F7F2DF1F91089580E0E8DFEE27F6
:047FF000FF270994CA
:027FFE00040479
:0400000300007E007B
:00000001FF