:100000000C945D000C9485000C9485000C94850084
:100010000C9485000C9485000C9485000C9485004C
:100020000C9485000C9485000C9485000C9485003C
:100030000C9485000C9485000C9485000C9485002C
:100040000C9483040C9485000C9451040C942B04A0
:100050000C9485000C9485000C9485000C9485000C
:100060000C9485000C94850000000008000201003B
:100070000003040700000000000000000000000072
:10008000250028002B0000000000240027002A0083
:10009000040404040404040402020202020203032E
:1000A0000303030301020408102040800102040836
:1000B0001020010204081020CD0411241FBECFEF30
:1000C000D8E0DEBFCDBF22E0A2E6B1E001C01D92C4
:1000D000AA36B207E1F711E0A0E0B1E0EEE9FFE0F7
:1000E00002C005900D92A236B107D9F710E0CDE518
:1000F000D0E004C02197FE010E94C207CC35D10791
:10010000C9F70E9427050C94CD070C94000090E0DD
:10011000FC01EC55FF4F2491FC01E057FF4F849107
:10012000882399F090E0880F991FFC01EA57FF4F50
:10013000A591B491FC01E458FF4F859194918FB73C
:10014000F894EC91E22BEC938FBF0895E7E7F1E090
:10015000A089B18982E08C93A485B5851C92A6857F
:10016000B7858FEC8C93108EA489B58986E08C932B
:10017000A289B3898C9180618C93A289B3898C9177
:1001800088608C93A289B3898C9180688C93028853
:10019000F389E02D80818F7D80830895CF92DF9257
:1001A000EF92FF920F931F932FB7F894C0907301B3
:1001B000D0907401E0907501F09076012FBFDC01C2
:1001C000CB018C0D9D1DAE1DBF1D4FB7F894009146
:1001D00073011091740120917501309176014FBF28
:1001E0000C151D052E053F0528F080179107A20765
:1001F000B30758F71F910F91FF90EF90DF90CF90CA
:100200000895CF92DF92EF92FF920F931F93CF93B7
:10021000DF936C017A018B01C0E0D0E0CE15DF05E1
:1002200089F0D8016D918D01D601ED91FC9101907D
:10023000F081E02DC6010995892B11F47E0102C0E1
:100240002196ECCFC701DF91CF911F910F91FF90C5
:10025000EF90DF90CF900895089580E090E00895AA
:10026000FC01538D448D252F30E0842F90E0821BBC
:10027000930B541710F0CF96089501970895FC0141
:10028000918D828D981761F0828DDF01A80FB11DCD
:100290005D968C91928D9F5F9F73928F90E00895F1
:1002A0008FEF9FEF0895FC01918D828D981731F0AB
:1002B000828DE80FF11D858D90E008958FEF9FEFFF
:1002C0000895FC01918D228D892F90E0805C9F4FD5
:1002D000821B91098F739927089587E791E00E9407
:1002E000610121E0892B09F420E0822F0895FC01AF
:1002F000848DDF01A80FB11DA35ABF4F2C91848DAF
:1003000090E001968F739927848FA689B7892C93E3
:10031000A089B1898C9180648C93938D848D98137E
:1003200006C00288F389E02D80818F7D8083089547
:10033000EF92FF920F931F93CF93DF93EC0181E035
:10034000888F9B8D8C8D981305C0E889F9898081F1
:1003500085FD24C0F62E0B8D10E00F5F1F4F0F732D
:100360001127E02E8C8DE8120CC00FB607FCFACFD7
:10037000E889F989808185FFF5CFCE010E94770158
:10038000F1CF8B8DFE01E80FF11DE35AFF4FF08294
:100390000B8FEA89FB898081806207C0EE89FF8923
:1003A0006083E889F98980818064808381E090E0BE
:1003B000DF91CF911F910F91FF90EF900895CF9310
:1003C000DF93EC01888D8823C9F0EA89FB8980815D
:1003D00085FD05C0A889B9898C9186FD0FC00FB62F
:1003E00007FCF5CF808185FFF2CFA889B9898C9170
:1003F00085FFEDCFCE010E947701E7CFDF91CF914E
:10040000089580E090E0892B29F00E946D01811110
:100410000C940000089590E0FC01E859FF4F3491DE
:10042000FC01EC55FF4F2491FC01E057FF4FE49194
:10043000EE2309F43BC0332339F1333091F038F423
:100440003130A9F0323001F584B58F7D12C03730DC
:1004500091F03830A1F03430B9F4809180008F7D74
:1004600003C0809180008F77809380000DC084B599
:100470008F7784BD09C08091B0008F7703C08091D1
:10048000B0008F7D8093B000F0E0EE0FFF1FE458C6
:10049000FF4FA591B4918FB7F894EC91611103C00F
:1004A00020952E2301C02E2B2C938FBF08953FB78C
:1004B000F8948091630190916401A0916501B091DD
:1004C000660126B5A89B05C02F3F19F00196A11D16
:1004D000B11D3FBFBA2FA92F982F8827820F911DDA
:1004E000A11DB11DBC01CD0142E0660F771F881F21
:1004F000991F4A95D1F708958EBD0DB407FEFDCF23
:100500008EB508950F931F93CF93DF93C82FD62FE7
:100510000CE512E060E0F80182850E940B028C2F4E
:10052000880F8E770E947C028D2F0E947C0261E0F2
:10053000F8018285DF91CF911F910F910C940B02EE
:100540000F931F93CF93C82F0CE512E060E0F801E2
:1005500082850E940B028C2F880F8E7780680E9404
:100560007C0280E00E947C02C82F61E0F801828555
:100570000E940B028C2FCF911F910F9108951F9312
:10058000CF93DF931F92CDB7DEB7182F69830E94F8
:10059000A0026981682B812F0F90DF91CF911F916D
:1005A0000C9482021F93CF93DF931F92CDB7DEB7D7
:1005B000182F69830E94A002698160956823812FAA
:1005C0000F90DF91CF911F910C9482028F929F9296
:1005D000AF92BF92CF92DF92EF92FF920F931F9351
:1005E000CF93DF931F92CDB7DEB75C01C62E4A01D1
:1005F000890167EF82E00E94820260E884E00E9445
:10060000D20260E88AE00E94BF0260E081E00E94BE
:1006100082027501D12CC7018A199B098C159D0591
:1006200038F4F70161917F0189E00E948202F3CFE3
:100630006CE081E00E94820260E88DE00E94BF02CF
:1006400030EDC32E37E0D32E84E00E94A002F82EB6
:10065000F1E0CF1AD10811F08173B1F360E88DE0B9
:100660000E94D202CD2811F482E03EC086E00E94B2
:10067000A0028B71C9F78AE00E94A002982F8CE03B
:1006800099830E94A00287709981692F70E0882366
:1006900051F06150710923E0660F771F2A95E1F749
:1006A000680F711D05C083E0660F771F8A95E1F71B
:1006B000F80171836083992321F0913118F090E162
:1006C00001C091E06401092F10E0C6018819990961
:1006D0008017910738F489E00E94A002F601819307
:1006E0006F01F3CF8F2D81700F90DF91CF911F910C
:1006F0000F91FF90EF90DF90CF90BF90AF909F90C1
:100700008F9008950E94C8076115710579F0FB016B
:1007100001900020E9F73197AF01461B570BDC0130
:10072000ED91FC910280F381E02D099480E090E04E
:100730000895CF93DF93BC0187E791E00E94840383
:10074000EC0165E371E087E791E00E9484038C0F80
:100750009D1FDF91CF9108958F929F92AF92BF928C
:10076000CF92DF92EF92FF920F931F93CF93DF937D
:10077000CDB7DEB7A1970FB6F894DEBF0FBECDBFE1
:100780006C01990FEE08FF08F7FE33C0E091770186
:10079000F09178010190F081E02D6DE287E791E022
:1007A00009958C0122273327A9012C193D094E09EF
:1007B0005F0919A2CE0181967C019AE0892E912CC5
:1007C000A12CB12CCA01B901A50194010E94A00776
:1007D000605DF70162937F012115310541055105E7
:1007E00089F7BF0187E791E00E948403800F911F82
:1007F0001FC0A701960119A28E010F5D1F4F8AE04D
:10080000C82ED12CE12CF12CCA01B901A701960107
:100810000E94A007605DF80162938F0121153105E8
:100820004105510589F7BF0187E791E00E948403E4
:10083000A1960FB6F894DEBF0FBECDBFDF91CF916A
:100840001F910F91FF90EF90DF90CF90BF90AF90EE
:100850009F908F9008951F920F920FB60F921124C0
:100860002F933F934F935F936F937F938F939F93B8
:10087000AF93BF93EF93FF9387E791E00E947701D7
:10088000FF91EF91BF91AF919F918F917F916F9168
:100890005F914F913F912F910F900FBE0F901F903E
:1008A00018951F920F920FB60F9211242F938F93CA
:1008B0009F93EF93FF93E0918701F09188018081EE
:1008C000E0918D01F0918E0182FD12C090818091A6
:1008D00090018F5F8F7320919101821751F0E09109
:1008E0009001F0E0E958FE4F958F8093900101C090
:1008F0008081FF91EF919F918F912F910F900FBE6B
:100900000F901F9018951F920F920FB60F921124FF
:100910002F933F938F939F93AF93BF9380917301D6
:1009200090917401A0917501B091760130916201AE
:1009300023E0230F2D3720F40196A11DB11D05C022
:1009400026E8230F0296A11DB11D2093620180931A
:10095000730190937401A0937501B0937601809117
:10096000630190916401A0916501B09166010196C7
:10097000A11DB11D8093630190936401A093650153
:10098000B0936601BF91AF919F918F913F912F914D
:100990000F900FBE0F901F901895CF93DF93E7E74E
:1009A000F1E01382128288EE93E0A0E0B0E084834D
:1009B0009583A683B78388E191E09183808385EC5A
:1009C00090E09587848784EC90E09787868780EC19
:1009D00090E0918B808B81EC90E0938B828B82EC0A
:1009E00090E0958B848B86EC90E0978B868B118EB4
:1009F000128E138E148EE4E1F2E0168217821086B6
:100A00001186128613861486158616861786108A16
:100A1000118A128A138A148A158ACCE5D2E08AE0F8
:100A200090E09B878A870E94870060E08A850E9409
:100A30000B0289E00E94870061E089E00E940B02BE
:100A400089E090E09D878C87DF91CF910895CF93C7
:100A5000DF93CDB7DEB762970FB6F894DEBF0FBE57
:100A6000CDBF789484B5826084BD84B5816084BD37
:100A700085B5826085BD85B5816085BD80916E003C
:100A8000816080936E00109281008091810082606D
:100A900080938100809181008160809381008091AA
:100AA00080008160809380008091B1008460809399
:100AB000B1008091B00081608093B00080917A0095
:100AC000846080937A0080917A00826080937A00BB
:100AD00080917A00816080937A0080917A008068AA
:100AE00080937A001092C10010925802109259021D
:100AF00010925A0210925B02109216021092170284
:100B0000109218021092190268EB7BE080E090E0EE
:100B10000E94CE0087E791E090935702809356029F
:100B20000E94A6002FB7F8948091730190917401F0
:100B3000A0917501B09176012FBF8093160290931A
:100B40001702A0931802B093190266E271E0809137
:100B50005602909157020E9484036AE070E080E0A0
:100B600090E00E94CE0081E080932A020E94A600BD
:100B70008DE00E9487008BE00E9487008AE00E943F
:100B8000870060E08DE00E940B0260E08BE00E9435
:100B90000B0261E08AE00E940B028CB580618CBD83
:100BA0008CB580648CBD61E0809168020E940B026C
:100BB0006FE081E00E9482026DE88AE20E94820278
:100BC0006EE38BE20E9482026EE18DE20E9482025D
:100BD00060E08CE20E94820260E485E10E94820271
:100BE0006DE381E10E94820284E10E94A002837091
:100BF00021F463E084E10E94BF0276E2772EE3E90C
:100C00006E2EF0E25F2EA5E04A2EB0E53B2E01E00D
:100C100010E067E08DE00E94820279829E012F5EE3
:100C20003F4FAE014F5F5F4F61E0CA010E94E60295
:100C300081115CC189899A89409709F057C160E0A8
:100C40008DE00E94820269825A829E012F5E3F4F90
:100C5000AE014F5F5F4F62E0CA010E94E602811160
:100C60000AC02A81998192272B8192272C81922771
:100C70002D81921382E0FE013196ACE5B2E0942D15
:100C800001900D929A95E1F7811156C0ACE5B2E062
:100C9000E9E6F1E08D9190E08193919321E0E337D3
:100CA000F207C1F78091690190916A018539910538
:100CB00009F580916B0190916C01833C9105E1F500
:100CC00080916D0190916E018A3F9105A9F5809107
:100CD0006F0190917001823C910571F580917101D5
:100CE000909172018E36910539F510936801009349
:100CF000670122C0803D9105F9F480916B019091CC
:100D00006C01823E9105C1F480916D0190916E015C
:100D1000893A910589F480916F01909170014B9708
:100D200059F480917101909172018038910521F4FC
:100D3000109268011092670180916701909168019B
:100D40008130910509F04EC069E6E62E61E0F62E8D
:100D5000F701819191917F010E94AC0368E371E0FA
:100D600087E791E00E948403F3E7EF16F1E0FF06C6
:100D700079F787E391E00E9499035AE0E52E51E06C
:100D8000F52EF701819191917F010E94AC0368E3F8
:100D900071E087E791E00E948403F4E1EF16F1E04F
:100DA000FF0679F787E391E00E94990340E0E42E83
:100DB00041E0F42EF701819191917F010E94AC03F3
:100DC00068E371E087E791E00E948403FAE0EF16A0
:100DD000F1E0FF0679F787E391E00E9499038AE347
:100DE00091E050C0892B09F04FC039E6E32E31E085
:100DF000F32EF701819191917F010E94AC0368E38A
:100E000071E087E791E00E948403F3E7EF16F1E0D9
:100E1000FF0679F787E391E00E9499032AE0E22E2A
:100E200021E0F22EF701819191917F010E94AC03A4
:100E300068E371E087E791E00E948403F4E1EF1634
:100E4000F1E0FF0679F787E391E00E94990390E0D3
:100E5000E92E91E0F92EF701819191917F010E9495
:100E6000AC0368E371E087E791E00E948403FAE055
:100E7000EF16F1E0FF0679F787E391E00E9499030E
:100E800085E491E00E94990339821A8264E085E04A
:100E90000E94D20260E88AE00E94BF02698189E074
:100EA0000E9482026A8189E00E94820263E081E0FE
:100EB0000E948202FF24FA9485E00E94A002FA9424
:100EC000FF2011F082FFF8CF82E20E94A0028B8304
:100ED00081E20E94A0028C839E012F5E3F4FAE01F3
:100EE0004F5F5F4F64E0CA010E94E6020E94570212
:100EF0004B015C0188EEC82E83E0D82EE12CF12C4A
:100F00000E945702DC01CB0188199909AA09BB0983
:100F1000883E9340A105B10558F021E0C21AD108DE
:100F2000E108F10888EE880E83E0981EA11CB11C30
:100F3000C114D104E104F10419F70E94010269CE41
:100F4000A1E21A2EAA1BBB1BFD010DC0AA1FBB1FCD
:100F5000EE1FFF1FA217B307E407F50720F0A21B3F
:100F6000B30BE40BF50B661F771F881F991F1A94AC
:100F700069F760957095809590959B01AC01BD01D6
:100F8000CF010895EE0FFF1F0590F491E02D099415
:0E0F900081E090E0F8940C94CD07F894FFCF28
:100F9E00D000E200A9001B0080009500C300FA00FB
:100FAE00C2006E0000000000980101013001DF0157
:100FBE0061013F015301564D4450565F317C315F04
:100FCE00564D4450560D0A002C00476F6F64204E4C
:100FDE0069676874004974277320446161616161B7
:100FEE0061616161616161616161616161616179CB
:020FFE000000F1
:00000001FF
