:100000000C945D000C9485000C9485000C94850084
:100010000C9485000C9485000C9485000C9485004C
:100020000C9485000C9485000C9485000C9485003C
:100030000C9485000C9485000C9485000C9485002C
:100040000C94F1030C9485000C94BF030C94990359
:100050000C9485000C9485000C9485000C9485000C
:100060000C9485000C94850000000008000201003B
:100070000003040700000000000000000000000072
:10008000250028002B0000000000240027002A0083
:10009000040404040404040402020202020203032E
:1000A0000303030301020408102040800102040836
:1000B00010200102040810203B0411241FBECFEFC2
:1000C000D8E0DEBFCDBF22E0AAE2B1E001C01D92C0
:1000D000A233B207E1F711E0A0E0B1E0EAE0FDE011
:1000E00002C005900D92AA32B107D9F710E0CDE514
:1000F000D0E004C02197FE010E947806CC35D107DC
:10010000C9F70E9495040C9483060C94000090E0BB
:10011000FC01EC55FF4F2491FC01E057FF4F849107
:10012000882399F090E0880F991FFC01EA57FF4F50
:10013000A591B491FC01E458FF4F859194918FB73C
:10014000F894EC91E22BEC938FBF0895EFE3F1E08C
:10015000A089B18982E08C93A485B5851C92A6857F
:10016000B78580E18C93108EA489B58986E08C9345
:10017000A289B3898C9180618C93A289B3898C9177
:1001800088608C93A289B3898C9180688C93028853
:10019000F389E02D80818F7D80830895CF92DF9257
:1001A000EF92FF920F931F932FB7F894C0903B01EB
:1001B000D0903C01E0903D01F0903E012FBFDC016A
:1001C000CB018C0D9D1DAE1DBF1D4FB7F894009146
:1001D0003B0110913C0120913D0130913E014FBF08
:1001E0000C151D052E053F0528F080179107A20765
:1001F000B30758F71F910F91FF90EF90DF90CF90CA
:100200000895CF92DF92EF92FF920F931F93CF93B7
:10021000DF936C017A018B01C0E0D0E0CE15DF05E1
:1002200089F0D8016D918D01D601ED91FC9101907D
:10023000F081E02DC6010995892B11F47E0102C0E1
:100240002196ECCFC701DF91CF911F910F91FF90C5
:10025000EF90DF90CF900895089580E090E00895AA
:10026000FC01538D448D252F30E0842F90E0821BBC
:10027000930B541710F0CF96089501970895FC0141
:10028000918D828D981761F0828DDF01A80FB11DCD
:100290005D968C91928D9F5F9F73928F90E00895F1
:1002A0008FEF9FEF0895FC01918D828D981731F0AB
:1002B000828DE80FF11D858D90E008958FEF9FEFFF
:1002C0000895FC01918D228D892F90E0805C9F4FD5
:1002D000821B91098F73992708958FE391E00E9403
:1002E000610121E0892B09F420E0822F0895FC01AF
:1002F000848DDF01A80FB11DA35ABF4F2C91848DAF
:1003000090E001968F739927848FA689B7892C93E3
:10031000A089B1898C9180648C93938D848D98137E
:1003200006C00288F389E02D80818F7D8083089547
:10033000EF92FF920F931F93CF93DF93EC0181E035
:10034000888F9B8D8C8D981305C0E889F9898081F1
:1003500085FD24C0F62E0B8D10E00F5F1F4F0F732D
:100360001127E02E8C8DE8120CC00FB607FCFACFD7
:10037000E889F989808185FFF5CFCE010E94770158
:10038000F1CF8B8DFE01E80FF11DE35AFF4FF08294
:100390000B8FEA89FB898081806207C0EE89FF8923
:1003A0006083E889F98980818064808381E090E0BE
:1003B000DF91CF911F910F91FF90EF900895CF9310
:1003C000DF93EC01888D8823C9F0EA89FB8980815D
:1003D00085FD05C0A889B9898C9186FD0FC00FB62F
:1003E00007FCF5CF808185FFF2CFA889B9898C9170
:1003F00085FFEDCFCE010E947701E7CFDF91CF914E
:10040000089580E090E0892B29F00E946D01811110
:100410000C940000089590E0FC01E859FF4F3491DE
:10042000FC01EC55FF4F2491FC01E057FF4FE49194
:10043000EE2309F43BC0332339F1333091F038F423
:100440003130A9F0323001F584B58F7D12C03730DC
:1004500091F03830A1F03430B9F4809180008F7D74
:1004600003C0809180008F77809380000DC084B599
:100470008F7784BD09C08091B0008F7703C08091D1
:10048000B0008F7D8093B000F0E0EE0FFF1FE458C6
:10049000FF4FA591B4918FB7F894EC91611103C00F
:1004A00020952E2301C02E2B2C938FBF08953FB78C
:1004B000F89480912B0190912C01A0912D01B09185
:1004C0002E0126B5A89B05C02F3F19F00196A11D4E
:1004D000B11D3FBFBA2FA92F982F8827820F911DDA
:1004E000A11DB11DBC01CD0142E0660F771F881F21
:1004F000991F4A95D1F708958EBD0DB407FEFDCF23
:100500008EB508950F931F93CF93DF93C82FD62FE7
:1005100004E212E060E0F80182850E940B028C2F59
:10052000880F8E770E947C028D2F0E947C0261E0F2
:10053000F8018285DF91CF911F910F910C940B02EE
:100540000F931F93CF93C82F04E212E060E0F801ED
:1005500082850E940B028C2F880F8E7780680E9404
:100560007C0280E00E947C02C82F61E0F801828555
:100570000E940B028C2FCF911F910F9108951F9312
:10058000CF93DF931F92CDB7DEB7182F69830E94F8
:10059000A0026981682B812F0F90DF91CF911F916D
:1005A0000C9482021F93CF93DF931F92CDB7DEB7D7
:1005B000182F69830E94A002698160956823812FAA
:1005C0000F90DF91CF911F910C9482028F929F9296
:1005D000AF92BF92CF92DF92EF92FF920F931F9351
:1005E000CF93DF931F92CDB7DEB75C01C62E4A01D1
:1005F000890167EF82E00E94820260E884E00E9445
:10060000D20260E88AE00E94BF0260E081E00E94BE
:1006100082027501D12CC7018A199B098C159D0591
:1006200038F4F70161917F0189E00E948202F3CFE3
:100630006CE081E00E94820260E88DE00E94BF02CF
:1006400030EDC32E37E0D32E84E00E94A002F82EB6
:10065000F1E0CF1AD10811F08173B1F360E88DE0B9
:100660000E94D202CD2811F482E03EC086E00E94B2
:10067000A0028B71C9F78AE00E94A002982F8CE03B
:1006800099830E94A00287709981692F70E0882366
:1006900051F06150710923E0660F771F2A95E1F749
:1006A000680F711D05C083E0660F771F8A95E1F71B
:1006B000F80171836083992321F0913118F090E162
:1006C00001C091E06401092F10E0C6018819990961
:1006D0008017910738F489E00E94A002F601819307
:1006E0006F01F3CF8F2D81700F90DF91CF911F910C
:1006F0000F91FF90EF90DF90CF90BF90AF909F90C1
:100700008F9008950E947E066115710579F0FB01B6
:1007100001900020E9F73197AF01461B570BDC0130
:10072000ED91FC910280F381E02D099480E090E04E
:1007300008951F920F920FB60F9211242F933F939B
:100740004F935F936F937F938F939F93AF93BF93D9
:10075000EF93FF938FE391E00E947701FF91EF9178
:10076000BF91AF919F918F917F916F915F914F91C9
:100770003F912F910F900FBE0F901F9018951F92D1
:100780000F920FB60F9211242F938F939F93EF9395
:10079000FF93E0914F01F09150018081E09155016C
:1007A000F091560182FD12C09081809158018F5FB7
:1007B0008F7320915901821751F0E0915801F0E0B8
:1007C000E15CFE4F958F8093580101C08081FF91BD
:1007D000EF919F918F912F910F900FBE0F901F90CF
:1007E00018951F920F920FB60F9211242F933F93DB
:1007F0008F939F93AF93BF9380913B0190913C0166
:10080000A0913D01B0913E0130912A0123E0230FD8
:100810002D3720F40196A11DB11D05C026E8230F38
:100820000296A11DB11D20932A0180933B01909354
:100830003C01A0933D01B0933E0180912B0190912A
:100840002C01A0912D01B0912E010196A11DB11D89
:1008500080932B0190932C01A0932D01B0932E0136
:10086000BF91AF919F918F913F912F910F900FBEAC
:100870000F901F901895CF93DF93EFE3F1E0138271
:10088000128288EE93E0A0E0B0E084839583A68393
:10089000B78384E091E09183808385EC90E0958735
:1008A000848784EC90E09787868780EC90E0918B3A
:1008B000808B81EC90E0938B828B82EC90E0958B27
:1008C000848B86EC90E0978B868B118E128E138E24
:1008D000148EECEDF1E016821782108611861286D6
:1008E00013861486158616861786108A118A128A30
:1008F000138A148A158AC4E2D2E08AE090E09B87CA
:100900008A870E94870060E08A850E940B0289E046
:100910000E94870061E089E00E940B0289E090E07C
:100920009D878C87DF91CF910895CF93DF93CDB7CB
:10093000DEB762970FB6F894DEBF0FBECDBF7894D6
:1009400084B5826084BD84B5816084BD85B58260D4
:1009500085BD85B5816085BD80916E008160809385
:100960006E001092810080918100826080938100EE
:1009700080918100816080938100809180008160FE
:10098000809380008091B10084608093B100809159
:10099000B00081608093B00080917A008460809381
:1009A0007A0080917A00826080937A0080917A0048
:1009B000816080937A0080917A00806880937A00C9
:1009C0001092C10010922002109221021092220275
:1009D000109223021092DE011092DF011092E001CA
:1009E0001092E10168EB7BE080E090E00E94CE0095
:1009F0008FE391E090931F0280931E020E94A60055
:100A00002FB7F89480913B0190913C01A0913D015A
:100A1000B0913E012FBF8093DE019093DF01A09340
:100A2000E001B093E10162E171E080911E029091DA
:100A30001F020E9484036AE070E080E090E00E9460
:100A4000CE0081E08093F2010E94A6008DE00E941A
:100A500087008BE00E9487008AE00E94870060E0A8
:100A60008DE00E940B0260E08BE00E940B0261E0CF
:100A70008AE00E940B028CB580618CBD8CB58064CD
:100A80008CBD61E0809130020E940B026FE081E03A
:100A90000E9482026DE88AE20E9482026EE38BE28B
:100AA0000E9482026EE18DE20E94820260E08CE28E
:100AB0000E94820260E485E10E9482026DE381E18E
:100AC0000E94820284E10E94A002837021F463E00C
:100AD00084E10E94BF0296E2B92E23E9A22E30E201
:100AE000932E45E0842E50E5352E01E010E067E0BE
:100AF0008DE00E948202B9829E012F5E3F4FAE01BF
:100B00004F5F5F4F61E0CA010E94E6028111C6C0DB
:100B100089899A89409709F0C1C060E08DE00E9400
:100B20008202A9829A829E012F5E3F4FAE014F5FE3
:100B30005F4F62E0CA010E94E60281110AC02A8169
:100B4000998192272B8192272C8192272D819213B4
:100B500082E0FE013196A4E2B2E0982D01900D9260
:100B60009A95E1F7811156C0A4E2B2E0E1E3F1E029
:100B70008D9190E08193919321E0EB33F207C1F7DF
:100B800080913101909132018539910509F580916B
:100B9000330190913401833C9105E1F58091350159
:100BA000909136018A3F9105A9F580913701909186
:100BB0003801823C910571F58091390190913A019B
:100BC0008E36910539F51093300100932F0122C024
:100BD000803D9105F9F48091330190913401823E7A
:100BE0009105C1F48091350190913601893A9105C2
:100BF00089F480913701909138014B9759F4809195
:100C0000390190913A018038910521F41092300118
:100C100010922F0180912F01909130018130910528
:100C200019F464E271E004C0892B31F467E271E0E9
:100C30008FE391E00E94840339821A8264E085E0A8
:100C40000E94D20260E88AE00E94BF02698189E0C6
:100C50000E9482026A8189E00E94820263E081E050
:100C60000E948202FF24FA9485E00E94A002FA9476
:100C7000FF2011F082FFF8CF82E20E94A0028B8356
:100C800081E20E94A0028C839E012F5E3F4FAE0145
:100C90004F5F5F4F64E0CA010E94E6020E94570264
:100CA0002B013C0188EEC82E83E0D82EE12CF12CDC
:100CB0000E945702DC01CB0184199509A609B709E6
:100CC000883E9340A105B10558F081E0C81AD108CB
:100CD000E108F10828EE420E23E0521E611C711C4F
:100CE000C114D104E104F10419F70E940102FFCEFE
:100CF000EE0FFF1F0590F491E02D099481E090E044
:0A0D0000F8940C948306F894FFCFDA
:100D0A0000000000980101013001DF0161013F018B
:100D1A005301564D4450565F317C315F564D445015
:0A0D2A00560D0A00243000243100A9
:00000001FF
